{
  "contractName": "Drug",
  "abi": [
    {
      "inputs": [],
      "payable": false,
      "stateMutability": "nonpayable",
      "type": "constructor"
    },
    {
      "anonymous": false,
      "inputs": [
        {
          "indexed": false,
          "name": "slu",
          "type": "uint256"
        }
      ],
      "name": "Manufactured",
      "type": "event"
    },
    {
      "anonymous": false,
      "inputs": [
        {
          "indexed": false,
          "name": "slu",
          "type": "uint256"
        }
      ],
      "name": "Packed",
      "type": "event"
    },
    {
      "anonymous": false,
      "inputs": [
        {
          "indexed": false,
          "name": "slu",
          "type": "uint256"
        }
      ],
      "name": "ForSale",
      "type": "event"
    },
    {
      "anonymous": false,
      "inputs": [
        {
          "indexed": false,
          "name": "slu",
          "type": "uint256"
        }
      ],
      "name": "Sold",
      "type": "event"
    },
    {
      "anonymous": false,
      "inputs": [
        {
          "indexed": false,
          "name": "slu",
          "type": "uint256"
        }
      ],
      "name": "Shipped",
      "type": "event"
    },
    {
      "anonymous": false,
      "inputs": [
        {
          "indexed": false,
          "name": "slu",
          "type": "uint256"
        }
      ],
      "name": "EnvUpdated",
      "type": "event"
    },
    {
      "anonymous": false,
      "inputs": [
        {
          "indexed": false,
          "name": "slu",
          "type": "uint256"
        }
      ],
      "name": "Received",
      "type": "event"
    },
    {
      "anonymous": false,
      "inputs": [
        {
          "indexed": false,
          "name": "pku",
          "type": "uint256"
        }
      ],
      "name": "Purchased",
      "type": "event"
    },
    {
      "constant": false,
      "inputs": [
        {
          "name": "_udpc",
          "type": "uint256"
        },
        {
          "name": "quantity",
          "type": "uint256"
        }
      ],
      "name": "manufacturDrugsLoud",
      "outputs": [],
      "payable": false,
      "stateMutability": "nonpayable",
      "type": "function"
    },
    {
      "constant": false,
      "inputs": [
        {
          "name": "_slu",
          "type": "uint256"
        }
      ],
      "name": "packDrugsLoud",
      "outputs": [],
      "payable": false,
      "stateMutability": "nonpayable",
      "type": "function"
    },
    {
      "constant": false,
      "inputs": [
        {
          "name": "_slu",
          "type": "uint256"
        },
        {
          "name": "_unitPrice",
          "type": "uint256"
        }
      ],
      "name": "addDrugsLoud",
      "outputs": [],
      "payable": false,
      "stateMutability": "nonpayable",
      "type": "function"
    },
    {
      "constant": false,
      "inputs": [
        {
          "name": "_slu",
          "type": "uint256"
        },
        {
          "name": "_receiver",
          "type": "address"
        }
      ],
      "name": "buyDrugsLoud",
      "outputs": [],
      "payable": true,
      "stateMutability": "payable",
      "type": "function"
    },
    {
      "constant": false,
      "inputs": [
        {
          "name": "_slu",
          "type": "uint256"
        }
      ],
      "name": "shipDrugsLoud",
      "outputs": [],
      "payable": false,
      "stateMutability": "nonpayable",
      "type": "function"
    },
    {
      "constant": false,
      "inputs": [
        {
          "name": "_slu",
          "type": "uint256"
        },
        {
          "name": "_humidity",
          "type": "uint256"
        },
        {
          "name": "_temprture",
          "type": "uint256"
        }
      ],
      "name": "updateDrugsLoudShippmentEnv",
      "outputs": [],
      "payable": false,
      "stateMutability": "nonpayable",
      "type": "function"
    },
    {
      "constant": false,
      "inputs": [
        {
          "name": "_slu",
          "type": "uint256"
        }
      ],
      "name": "receiveDrugsLoud",
      "outputs": [],
      "payable": false,
      "stateMutability": "nonpayable",
      "type": "function"
    },
    {
      "constant": false,
      "inputs": [
        {
          "name": "_slu",
          "type": "uint256"
        },
        {
          "name": "_humidity",
          "type": "uint256"
        },
        {
          "name": "_temprture",
          "type": "uint256"
        }
      ],
      "name": "updateDrugsLoudStockEnv",
      "outputs": [],
      "payable": false,
      "stateMutability": "nonpayable",
      "type": "function"
    },
    {
      "constant": false,
      "inputs": [
        {
          "name": "_pku",
          "type": "uint256"
        }
      ],
      "name": "purchaseDrug",
      "outputs": [],
      "payable": true,
      "stateMutability": "payable",
      "type": "function"
    },
    {
      "constant": true,
      "inputs": [
        {
          "name": "_slu",
          "type": "uint256"
        }
      ],
      "name": "fetchDrugLoaudData",
      "outputs": [
        {
          "name": "quantity",
          "type": "uint256"
        },
        {
          "name": "_udpc",
          "type": "uint256"
        },
        {
          "name": "state",
          "type": "string"
        },
        {
          "name": "currentOwner",
          "type": "address"
        },
        {
          "name": "manufacturerId",
          "type": "address"
        },
        {
          "name": "deistributorId",
          "type": "address"
        },
        {
          "name": "retailerId",
          "type": "address"
        },
        {
          "name": "price",
          "type": "uint256"
        }
      ],
      "payable": false,
      "stateMutability": "view",
      "type": "function"
    },
    {
      "constant": true,
      "inputs": [
        {
          "name": "_pku",
          "type": "uint256"
        }
      ],
      "name": "fetchDrugItemData",
      "outputs": [
        {
          "name": "_udpc",
          "type": "uint256"
        },
        {
          "name": "_slu",
          "type": "uint256"
        },
        {
          "name": "state",
          "type": "string"
        },
        {
          "name": "currentOwner",
          "type": "address"
        },
        {
          "name": "manufacturerId",
          "type": "address"
        },
        {
          "name": "deistributorId",
          "type": "address"
        },
        {
          "name": "retailerId",
          "type": "address"
        },
        {
          "name": "price",
          "type": "uint256"
        },
        {
          "name": "packingTimeStamp",
          "type": "uint256"
        },
        {
          "name": "numberOfEnvUpdate",
          "type": "uint256"
        }
      ],
      "payable": false,
      "stateMutability": "view",
      "type": "function"
    },
    {
      "constant": true,
      "inputs": [
        {
          "name": "_slu",
          "type": "uint256"
        }
      ],
      "name": "fetchLoudPKUs",
      "outputs": [
        {
          "name": "loadPKUs",
          "type": "uint256[]"
        }
      ],
      "payable": false,
      "stateMutability": "view",
      "type": "function"
    },
    {
      "constant": true,
      "inputs": [
        {
          "name": "_pku",
          "type": "uint256"
        }
      ],
      "name": "fetchEnvHistory",
      "outputs": [
        {
          "name": "numberOfupdate",
          "type": "uint256"
        },
        {
          "name": "timeStamps",
          "type": "uint256[]"
        },
        {
          "name": "temprtures",
          "type": "uint256[]"
        },
        {
          "name": "humiditys",
          "type": "uint256[]"
        },
        {
          "name": "updaterAddresses",
          "type": "address[]"
        }
      ],
      "payable": false,
      "stateMutability": "view",
      "type": "function"
    }
  ],
  "bytecode": "0x608060405234801561001057600080fd5b506000600181905550600080819055506127728061002f6000396000f3fe6080604052600436106100c5576000357c0100000000000000000000000000000000000000000000000000000000900463ffffffff1680635043ceaf146100ca578063693082c41461010f578063719c2e521461015e57806383be91e5146101ad578063a7d25040146101db578063b442510b1461034a578063b635053614610385578063c3c7b82c146103ca578063d331029714610405578063d8f271a914610440578063d8fcc6f8146104d0578063e716a4d714610665578063fb32211114610808575b600080fd5b3480156100d657600080fd5b5061010d600480360360408110156100ed57600080fd5b810190808035906020019092919080359060200190929190505050610856565b005b34801561011b57600080fd5b5061015c6004803603606081101561013257600080fd5b81019080803590602001909291908035906020019092919080359060200190929190505050610b72565b005b34801561016a57600080fd5b506101ab6004803603606081101561018157600080fd5b81019080803590602001909291908035906020019092919080359060200190929190505050610e8c565b005b6101d9600480360360208110156101c357600080fd5b81019080803590602001909291905050506111d5565b005b3480156101e757600080fd5b50610214600480360360208110156101fe57600080fd5b810190808035906020019092919050505061130e565b6040518086815260200180602001806020018060200180602001858103855289818151815260200191508051906020019060200280838360005b8381101561026957808201518184015260208101905061024e565b50505050905001858103845288818151815260200191508051906020019060200280838360005b838110156102ab578082015181840152602081019050610290565b50505050905001858103835287818151815260200191508051906020019060200280838360005b838110156102ed5780820151818401526020810190506102d2565b50505050905001858103825286818151815260200191508051906020019060200280838360005b8381101561032f578082015181840152602081019050610314565b50505050905001995050505050505050505060405180910390f35b34801561035657600080fd5b506103836004803603602081101561036d57600080fd5b810190808035906020019092919050505061155a565b005b34801561039157600080fd5b506103c8600480360360408110156103a857600080fd5b810190808035906020019092919080359060200190929190505050611758565b005b3480156103d657600080fd5b50610403600480360360208110156103ed57600080fd5b8101908080359060200190929190505050611971565b005b34801561041157600080fd5b5061043e6004803603602081101561042857600080fd5b8101908080359060200190929190505050611b8a565b005b34801561044c57600080fd5b506104796004803603602081101561046357600080fd5b8101908080359060200190929190505050611de1565b6040518080602001828103825283818151815260200191508051906020019060200280838360005b838110156104bc5780820151818401526020810190506104a1565b505050509050019250505060405180910390f35b3480156104dc57600080fd5b50610509600480360360208110156104f357600080fd5b8101908080359060200190929190505050611e4c565b60405180898152602001888152602001806020018773ffffffffffffffffffffffffffffffffffffffff1673ffffffffffffffffffffffffffffffffffffffff1681526020018673ffffffffffffffffffffffffffffffffffffffff1673ffffffffffffffffffffffffffffffffffffffff1681526020018573ffffffffffffffffffffffffffffffffffffffff1673ffffffffffffffffffffffffffffffffffffffff1681526020018473ffffffffffffffffffffffffffffffffffffffff1673ffffffffffffffffffffffffffffffffffffffff168152602001838152602001828103825288818151815260200191508051906020019080838360005b83811015610623578082015181840152602081019050610608565b50505050905090810190601f1680156106505780820380516001836020036101000a031916815260200191505b50995050505050505050505060405180910390f35b34801561067157600080fd5b5061069e6004803603602081101561068857600080fd5b8101908080359060200190929190505050611f7e565b604051808b81526020018a8152602001806020018973ffffffffffffffffffffffffffffffffffffffff1673ffffffffffffffffffffffffffffffffffffffff1681526020018873ffffffffffffffffffffffffffffffffffffffff1673ffffffffffffffffffffffffffffffffffffffff1681526020018773ffffffffffffffffffffffffffffffffffffffff1673ffffffffffffffffffffffffffffffffffffffff1681526020018673ffffffffffffffffffffffffffffffffffffffff1673ffffffffffffffffffffffffffffffffffffffff16815260200185815260200184815260200183815260200182810382528a818151815260200191508051906020019080838360005b838110156107c45780820151818401526020810190506107a9565b50505050905090810190601f1680156107f15780820380516001836020036101000a031916815260200191505b509b50505050505050505050505060405180910390f35b6108546004803603604081101561081e57600080fd5b8101908080359060200190929190803573ffffffffffffffffffffffffffffffffffffffff1690602001909291905050506123f4565b005b60006001600081546001019190508190559050610871612649565b838160000181815250508181604001818152505060008160600190600681111561089757fe5b908160068111156108a457fe5b8152505033816080019073ffffffffffffffffffffffffffffffffffffffff16908173ffffffffffffffffffffffffffffffffffffffff1681525050338160a0019073ffffffffffffffffffffffffffffffffffffffff16908173ffffffffffffffffffffffffffffffffffffffff168152505060008161014001818152505060008090505b83811015610b345760008060008154600101919050819055905080836020018181525050826002600083815260200190815260200160002060008201518160000155602082015181600101556040820151816002015560608201518160030160006101000a81548160ff021916908360068111156109a457fe5b021790555060808201518160030160016101000a81548173ffffffffffffffffffffffffffffffffffffffff021916908373ffffffffffffffffffffffffffffffffffffffff16021790555060a08201518160040160006101000a81548173ffffffffffffffffffffffffffffffffffffffff021916908373ffffffffffffffffffffffffffffffffffffffff16021790555060c08201518160050160006101000a81548173ffffffffffffffffffffffffffffffffffffffff021916908373ffffffffffffffffffffffffffffffffffffffff16021790555060e08201518160060160006101000a81548173ffffffffffffffffffffffffffffffffffffffff021916908373ffffffffffffffffffffffffffffffffffffffff1602179055506101008201518160070155610120820151816008015561014082015181600a01559050506003600085815260200190815260200160002081908060018154018082558091505090600182039060005260206000200160009091929091909150555050808060010191505061092a565b507fd29d8a68ca7c8c74be5579719d445aabfe230ed6e6a83aff475a663500eb7609826040518082815260200191505060405180910390a150505050565b826000600360008381526020019081526020016000206000815481101515610b9657fe5b9060005260206000200154905060056006811115610bb057fe5b6002600083815260200190815260200160002060030160009054906101000a900460ff166006811115610bdf57fe5b141515610beb57600080fd5b846000600360008381526020019081526020016000206000815481101515610c0f57fe5b9060005260206000200154905060003373ffffffffffffffffffffffffffffffffffffffff166002600084815260200190815260200160002060060160009054906101000a900473ffffffffffffffffffffffffffffffffffffffff1673ffffffffffffffffffffffffffffffffffffffff16149050801515610c9157600080fd5b6000600360008a8152602001908152602001600020805490509050610cb4612707565b6080604051908101604052804281526020018a81526020018981526020013373ffffffffffffffffffffffffffffffffffffffff16815250905060008090505b82811015610e48576000600360008d815260200190815260200160002082815481101515610d1e57fe5b90600052602060002001549050600680811115610d3757fe5b6002600083815260200190815260200160002060030160009054906101000a900460ff166006811115610d6657fe5b141515610e3a578260026000838152602001908152602001600020600901600060026000858152602001908152602001600020600a0154815260200190815260200160002060008201518160000155602082015181600101556040820151816002015560608201518160030160006101000a81548173ffffffffffffffffffffffffffffffffffffffff021916908373ffffffffffffffffffffffffffffffffffffffff16021790555090505060026000828152602001908152602001600020600a01600081548092919060010191905055505b508080600101915050610cf4565b507f332d23c9d7e8e885c3f1696ae3b424351c1e9e2a4cc531396d6848b79a0dac988a6040518082815260200191505060405180910390a150505050505050505050565b826000600360008381526020019081526020016000206000815481101515610eb057fe5b9060005260206000200154905060046006811115610eca57fe5b6002600083815260200190815260200160002060030160009054906101000a900460ff166006811115610ef957fe5b141515610f0557600080fd5b846000600360008381526020019081526020016000206000815481101515610f2957fe5b9060005260206000200154905060003373ffffffffffffffffffffffffffffffffffffffff166002600084815260200190815260200160002060040160009054906101000a900473ffffffffffffffffffffffffffffffffffffffff1673ffffffffffffffffffffffffffffffffffffffff1614905060003373ffffffffffffffffffffffffffffffffffffffff166002600085815260200190815260200160002060050160009054906101000a900473ffffffffffffffffffffffffffffffffffffffff1673ffffffffffffffffffffffffffffffffffffffff1614905081806110115750805b151561101c57600080fd5b6000600360008b815260200190815260200160002080549050905061103f612707565b6080604051908101604052804281526020018b81526020018a81526020013373ffffffffffffffffffffffffffffffffffffffff16815250905060008090505b82811015611190576000600360008e8152602001908152602001600020828154811015156110a957fe5b906000526020600020015490508260026000838152602001908152602001600020600901600060026000858152602001908152602001600020600a0154815260200190815260200160002060008201518160000155602082015181600101556040820151816002015560608201518160030160006101000a81548173ffffffffffffffffffffffffffffffffffffffff021916908373ffffffffffffffffffffffffffffffffffffffff16021790555090505060026000828152602001908152602001600020600a016000815480929190600101919050555050808060010191505061107f565b507f332d23c9d7e8e885c3f1696ae3b424351c1e9e2a4cc531396d6848b79a0dac988b6040518082815260200191505060405180910390a15050505050505050505050565b80600560068111156111e357fe5b6002600083815260200190815260200160002060030160009054906101000a900460ff16600681111561121257fe5b14151561121e57600080fd5b81600060026000838152602001908152602001600020600a01541415151561124557600080fd5b60066002600085815260200190815260200160002060030160006101000a81548160ff0219169083600681111561127857fe5b0217905550336002600085815260200190815260200160002060030160016101000a81548173ffffffffffffffffffffffffffffffffffffffff021916908373ffffffffffffffffffffffffffffffffffffffff1602179055507f653d56639fee6b566a5c804764e9689de38645f0b733df89a36a1b7b42173dd8836040518082815260200191505060405180910390a1505050565b600060608060608085600060026000838152602001908152602001600020600a01541415151561133d57600080fd5b600060026000898152602001908152602001600020905080600a0154965060608760405190808252806020026020018201604052801561138c5781602001602082028038833980820191505090505b5090506060886040519080825280602002602001820160405280156113c05781602001602082028038833980820191505090505b5090506060896040519080825280602002602001820160405280156113f45781602001602082028038833980820191505090505b50905060608a6040519080825280602002602001820160405280156114285781602001602082028038833980820191505090505b50905060008090505b85600a015481101561153657600086600901600083815260200190815260200160002090508060000154868381518110151561146957fe5b90602001906020020181815250508060020154858381518110151561148a57fe5b9060200190602002018181525050806001015484838151811015156114ab57fe5b90602001906020020181815250508060030160009054906101000a900473ffffffffffffffffffffffffffffffffffffffff1683838151811015156114ec57fe5b9060200190602002019073ffffffffffffffffffffffffffffffffffffffff16908173ffffffffffffffffffffffffffffffffffffffff1681525050508080600101915050611431565b5083838383809a50819b50829c50839d505050505050505050505091939590929450565b80600060036000838152602001908152602001600020600081548110151561157e57fe5b906000526020600020015490506003600681111561159857fe5b6002600083815260200190815260200160002060030160009054906101000a900460ff1660068111156115c757fe5b1415156115d357600080fd5b8260006003600083815260200190815260200160002060008154811015156115f757fe5b9060005260206000200154905060003373ffffffffffffffffffffffffffffffffffffffff166002600084815260200190815260200160002060040160009054906101000a900473ffffffffffffffffffffffffffffffffffffffff1673ffffffffffffffffffffffffffffffffffffffff1614905080151561167957600080fd5b60006003600088815260200190815260200160002080549050905060008090505b81811015611717576000600360008a8152602001908152602001600020828154811015156116c457fe5b9060005260206000200154905060046002600083815260200190815260200160002060030160006101000a81548160ff0219169083600681111561170457fe5b021790555050808060010191505061169a565b507ff00b9a5725b80c54016f42114f6ed7792d22eecb116011c4afac29c57bef6c95876040518082815260200191505060405180910390a150505050505050565b81600060036000838152602001908152602001600020600081548110151561177c57fe5b906000526020600020015490506001600681111561179657fe5b6002600083815260200190815260200160002060030160009054906101000a900460ff1660068111156117c557fe5b1415156117d157600080fd5b8360006003600083815260200190815260200160002060008154811015156117f557fe5b9060005260206000200154905060003373ffffffffffffffffffffffffffffffffffffffff166002600084815260200190815260200160002060040160009054906101000a900473ffffffffffffffffffffffffffffffffffffffff1673ffffffffffffffffffffffffffffffffffffffff1614905080151561187757600080fd5b60006003600089815260200190815260200160002080549050905060008090505b8181101561192f576000600360008b8152602001908152602001600020828154811015156118c257fe5b90600052602060002001549050600280600083815260200190815260200160002060030160006101000a81548160ff0219169083600681111561190157fe5b0217905550886002600083815260200190815260200160002060070181905550508080600101915050611898565b507fa96ae0fc3224ebd79eebfe54bd130cc9cb94416cddd1f2386115e00b72532468886040518082815260200191505060405180910390a15050505050505050565b80600060036000838152602001908152602001600020600081548110151561199557fe5b90600052602060002001549050600060068111156119af57fe5b6002600083815260200190815260200160002060030160009054906101000a900460ff1660068111156119de57fe5b1415156119ea57600080fd5b826000600360008381526020019081526020016000206000815481101515611a0e57fe5b9060005260206000200154905060003373ffffffffffffffffffffffffffffffffffffffff166002600084815260200190815260200160002060040160009054906101000a900473ffffffffffffffffffffffffffffffffffffffff1673ffffffffffffffffffffffffffffffffffffffff16149050801515611a9057600080fd5b60006003600088815260200190815260200160002080549050905060008090505b81811015611b49576000600360008a815260200190815260200160002082815481101515611adb57fe5b9060005260206000200154905060016002600083815260200190815260200160002060030160006101000a81548160ff02191690836006811115611b1b57fe5b0217905550426002600083815260200190815260200160002060080181905550508080600101915050611ab1565b507f9b3b66e2380b690bae22c73ef1428fb0c91e72fe14a4b6defa13035214187aff876040518082815260200191505060405180910390a150505050505050565b806000600360008381526020019081526020016000206000815481101515611bae57fe5b9060005260206000200154905060046006811115611bc857fe5b6002600083815260200190815260200160002060030160009054906101000a900460ff166006811115611bf757fe5b141515611c0357600080fd5b826000600360008381526020019081526020016000206000815481101515611c2757fe5b90600052602060002001549050600060026000838152602001908152602001600020600a015414151515611c5a57600080fd5b846000600360008381526020019081526020016000206000815481101515611c7e57fe5b9060005260206000200154905060003373ffffffffffffffffffffffffffffffffffffffff166002600084815260200190815260200160002060060160009054906101000a900473ffffffffffffffffffffffffffffffffffffffff1673ffffffffffffffffffffffffffffffffffffffff16149050801515611d0057600080fd5b6000600360008a815260200190815260200160002080549050905060008090505b81811015611d9e576000600360008c815260200190815260200160002082815481101515611d4b57fe5b9060005260206000200154905060056002600083815260200190815260200160002060030160006101000a81548160ff02191690836006811115611d8b57fe5b0217905550508080600101915050611d21565b507fa8142743f8f70a4c26f3691cf4ed59718381fb2f18070ec52be1f1022d855557896040518082815260200191505060405180910390a1505050505050505050565b606060036000838152602001908152602001600020805480602002602001604051908101604052809291908181526020018280548015611e4057602002820191906000526020600020905b815481526020019060010190808311611e2c575b50505050509050919050565b600080606060008060008060006001548911158015611e6c575060008914155b1515611ee0576040517f08c379a000000000000000000000000000000000000000000000000000000000815260040180806020018281038252601a8152602001807f476976656e20534c55204e6f742043726561746564205965742100000000000081525060200191505060405180910390fd5b6000600360008b81526020019081526020016000206001600360008d81526020019081526020016000208054905003815481101515611f1b57fe5b90600052602060002001549050611f3181611f7e565b909192939495969750905050809850819950829a50839b50849c50859d50869e5050505050505050600360008b815260200190815260200160002080549050985050919395975091939597565b6000806060600080600080600080600080548b11158015611fa0575060008b14155b1515612014576040517f08c379a000000000000000000000000000000000000000000000000000000000815260040180806020018281038252601a8152602001807f476976656e20504b55204e6f742043726561746564205965742100000000000081525060200191505060405180910390fd5b6000600260008d8152602001908152602001600020905080600001549a50806002015499506000600681111561204657fe5b8160030160009054906101000a900460ff16600681111561206357fe5b14156120a6576040805190810160405280600c81526020017f4d616e75666163747572656400000000000000000000000000000000000000008152509850612335565b600160068111156120b357fe5b8160030160009054906101000a900460ff1660068111156120d057fe5b1415612113576040805190810160405280600681526020017f5061636b656400000000000000000000000000000000000000000000000000008152509850612334565b6002600681111561212057fe5b8160030160009054906101000a900460ff16600681111561213d57fe5b1415612180576040805190810160405280600781526020017f466f7253616c65000000000000000000000000000000000000000000000000008152509850612333565b6003600681111561218d57fe5b8160030160009054906101000a900460ff1660068111156121aa57fe5b14156121ed576040805190810160405280600481526020017f536f6c64000000000000000000000000000000000000000000000000000000008152509850612332565b600460068111156121fa57fe5b8160030160009054906101000a900460ff16600681111561221757fe5b141561225a576040805190810160405280600781526020017f53686970706564000000000000000000000000000000000000000000000000008152509850612331565b6005600681111561226757fe5b8160030160009054906101000a900460ff16600681111561228457fe5b14156122c7576040805190810160405280600881526020017f52656365697665640000000000000000000000000000000000000000000000008152509850612330565b6006808111156122d357fe5b8160030160009054906101000a900460ff1660068111156122f057fe5b141561232f576040805190810160405280600981526020017f507572636861736564000000000000000000000000000000000000000000000081525098505b5b5b5b5b5b5b8060030160019054906101000a900473ffffffffffffffffffffffffffffffffffffffff1697508060040160009054906101000a900473ffffffffffffffffffffffffffffffffffffffff1696508060050160009054906101000a900473ffffffffffffffffffffffffffffffffffffffff1695508060060160009054906101000a900473ffffffffffffffffffffffffffffffffffffffff169450806007015493508060080154925080600a01549150509193959799509193959799565b81600060036000838152602001908152602001600020600081548110151561241857fe5b906000526020600020015490506002600681111561243257fe5b6002600083815260200190815260200160002060030160009054906101000a900460ff16600681111561246157fe5b14151561246d57600080fd5b60006003600086815260200190815260200160002080549050905060008090505b8181101561260a57600060036000888152602001908152602001600020828154811015156124b857fe5b9060005260206000200154905060036002600083815260200190815260200160002060030160006101000a81548160ff021916908360068111156124f857fe5b0217905550336002600083815260200190815260200160002060030160016101000a81548173ffffffffffffffffffffffffffffffffffffffff021916908373ffffffffffffffffffffffffffffffffffffffff160217905550336002600083815260200190815260200160002060050160006101000a81548173ffffffffffffffffffffffffffffffffffffffff021916908373ffffffffffffffffffffffffffffffffffffffff160217905550856002600083815260200190815260200160002060060160006101000a81548173ffffffffffffffffffffffffffffffffffffffff021916908373ffffffffffffffffffffffffffffffffffffffff16021790555050808060010191505061248e565b507f92f64ca637d023f354075a4be751b169c1a8a9ccb6d33cdd0cb3520543995727856040518082815260200191505060405180910390a15050505050565b610160604051908101604052806000815260200160008152602001600081526020016000600681111561267857fe5b8152602001600073ffffffffffffffffffffffffffffffffffffffff168152602001600073ffffffffffffffffffffffffffffffffffffffff168152602001600073ffffffffffffffffffffffffffffffffffffffff168152602001600073ffffffffffffffffffffffffffffffffffffffff1681526020016000815260200160008152602001600081525090565b608060405190810160405280600081526020016000815260200160008152602001600073ffffffffffffffffffffffffffffffffffffffff168152509056fea165627a7a72305820d20be919028c16b42bc6965daab29aaf592fbebef3edaf00e8b1443706c33d230029",
  "source": "pragma solidity ^0.5.0;\n\n\n/// @author Khalid F.Sh\n/// @title Drug Chain Contract\ncontract Drug {\n\n    /// Variable for tracking Product Kepping Unit (PKU)\n    uint pku;\n\n    /// Variable for tracking Stock Louding Uint (SLU)\n    uint slu;\n\n    /// Public mapping from PKU to a Drug Item\n    mapping (uint => DrugItem) dItems;\n\n    /// Public mapping from SLU to a array of PKU\n    mapping (uint => uint[]) stockLouds;\n\n    // Enumaration for defining variety of Drug State\n    enum DrugState {\n        Manufactured,\n        Packed,\n        ForSale,\n        Sold,\n        Shipped,\n        Received,\n        Purchased\n    }\n\n    // Structure for Envirument update unit\n    struct EnvUpdateOpj {\n        uint timeStamp;\n        uint humidity;\n        uint temprture;\n        address updaterAddress;\n    }\n\n    /// Structure for keeping Drug Design fields structured\n    struct DrugItem {\n        uint udpc;\n        uint pku;\n        uint slu;\n        DrugState state;\n        address payable currentOwnerId;\n        address manufacturerId;\n        address deistributorId;\n        address retailerId;\n        uint price;\n        uint packingTimeStamp;\n        mapping(uint => EnvUpdateOpj) envHistory;\n        uint envUpdateCounter;\n    }\n\n    /// Event to emit them for users in functions, accept `slu` as input as stock expected\n    event Manufactured(uint slu);\n    event Packed(uint slu);\n    event ForSale(uint slu);\n    event Sold(uint slu);\n    event Shipped(uint slu);\n    event EnvUpdated(uint slu);\n    event Received(uint slu);\n    /// Event to emit them for users in functions, accept `pku` as input as one product unit expected\n    event Purchased(uint pku);\n\n    /// Modifier that checks if an DrugDesignItem.state of a udpc is Owned\n    modifier isManufactured(uint _slu) {\n        uint firstPKU = stockLouds[_slu][0];\n        require(dItems[firstPKU].state == DrugState.Manufactured);\n        _;\n    }\n\n    /// Modifier that checks if an DrugDesignItem.state of a udpc is Owned\n    modifier isPacked(uint _slu) {\n        uint firstPKU = stockLouds[_slu][0];\n        require(dItems[firstPKU].state == DrugState.Packed);\n        _;\n    }\n\n    /// Modifier that checks if an DrugDesignItem.state of a udpc is Owned\n    modifier drugLoudforSale(uint _slu) {\n        uint firstPKU = stockLouds[_slu][0];\n        require(dItems[firstPKU].state == DrugState.ForSale);\n        _;\n    }\n\n    /// Modifier that checks if an DrugDesignItem.state of a udpc is Owned\n    modifier isSold(uint _slu) {\n        uint firstPKU = stockLouds[_slu][0];\n        require(dItems[firstPKU].state == DrugState.Sold);\n        _;\n    }\n\n    /// Modifier that checks if an DrugDesignItem.state of a udpc is Owned\n    modifier isShipped(uint _slu) {\n        uint firstPKU = stockLouds[_slu][0];\n        require(dItems[firstPKU].state == DrugState.Shipped);\n        _;\n    }\n\n    /// Modifier that checks if an DrugDesignItem.state of a udpc is Owned\n    modifier isEnvTracked(uint _slu) {\n        uint firstPKU = stockLouds[_slu][0];\n        require(dItems[firstPKU].envUpdateCounter != 0);\n        _;\n    }\n\n    modifier isReceived(uint _slu) {\n        uint firstPKU = stockLouds[_slu][0];\n        require(dItems[firstPKU].state == DrugState.Received);\n        _;\n    }\n\n    /// Modifier that checks if an DrugDesignItem.state of a udpc is Owned\n    modifier onlyManufacturerOf(uint _slu) {\n        uint firstPKU = stockLouds[_slu][0];\n        bool isManuf = dItems[firstPKU].manufacturerId == msg.sender;\n        require(isManuf);\n        _;\n    }\n\n\n    /// Modifier that checks if an DrugDesignItem.state of a udpc is Owned\n    modifier onlyManufacturerOrDistributorOf(uint _slu) {\n        uint firstPKU = stockLouds[_slu][0];\n        bool isManuf = dItems[firstPKU].manufacturerId == msg.sender;\n        bool isDistr = dItems[firstPKU].deistributorId == msg.sender;\n        require(isManuf || isDistr);\n        _;\n    }\n\n    /// Modifier that checks if an DrugDesignItem.state of a udpc is Owned\n    modifier onlyRetailerOf(uint _slu) {\n        uint firstPKU = stockLouds[_slu][0];\n        bool isReta = dItems[firstPKU].retailerId == msg.sender;\n        require(isReta);\n        _;\n    }\n\n    /// Modifier that checks if an DrugDesignItem.state of a udpc is Owned\n    modifier isDrugReceived(uint _pku) {\n        require(dItems[_pku].state == DrugState.Received);\n        _;\n    }\n\n    /// Modifier that checks if an DrugDesignItem.state of a udpc is Owned\n    modifier isDrugEnvTracked(uint _pku) {\n        require(dItems[_pku].envUpdateCounter != 0);\n        _;\n    }\n\n    /// Constructor Function sets up SLU and PKU to 0\n    constructor() public {\n        slu = 0;\n        pku = 0;\n    }\n\n    /// Function helps manufacturer to manufactur a new Drug Loud\n    function manufacturDrugsLoud(uint _udpc, uint quantity) public {\n        uint _slu = ++slu;\n        DrugItem memory newDrugItem;\n        newDrugItem.udpc = _udpc;\n        newDrugItem.slu = _slu;\n        newDrugItem.state = DrugState.Manufactured;\n        newDrugItem.currentOwnerId = msg.sender;\n        newDrugItem.manufacturerId = msg.sender;\n        newDrugItem.envUpdateCounter = 0;\n        for (uint i = 0; i < quantity; i++) {\n            uint _pku = ++pku;\n            newDrugItem.pku = _pku;\n            dItems[_pku] = newDrugItem;\n            \n            stockLouds[_slu].push(_pku);\n        }\n        emit Manufactured(_slu);\n    }\n\n    /// Function helps manufacturer to Pack a isManufactured Drug Loud\n    function packDrugsLoud(uint _slu)\n        public\n        isManufactured(_slu)\n        onlyManufacturerOf(_slu)\n    {\n        uint quantity = stockLouds[_slu].length;\n        for (uint i = 0; i < quantity; i++) {\n            uint _pku = stockLouds[_slu][i];\n            dItems[_pku].state = DrugState.Packed;\n            dItems[_pku].packingTimeStamp = now;\n        }\n        emit Packed(_slu);\n    }\n\n    /// Function helps manufacturer to add Drug Loud for sale\n    function addDrugsLoud(uint _slu, uint _unitPrice)\n        public\n        isPacked(_slu)\n        onlyManufacturerOf(_slu)\n    {\n        uint quantity = stockLouds[_slu].length;\n        for (uint i = 0; i < quantity; i++) {\n            uint _pku = stockLouds[_slu][i];\n            dItems[_pku].state = DrugState.ForSale;\n            dItems[_pku].price = _unitPrice;\n        }\n        emit ForSale(_slu);\n    }\n\n    /// Function helps distributor to buy a Drug Loud\n    /// it can be quantity only order but i think its not important for now\n    function buyDrugsLoud(uint _slu, address _receiver)\n        public\n        payable\n        drugLoudforSale(_slu)\n    {\n        uint quantity = stockLouds[_slu].length;\n        for (uint i = 0; i < quantity; i++) {\n            uint _pku = stockLouds[_slu][i];\n            dItems[_pku].state = DrugState.Sold;\n            dItems[_pku].currentOwnerId = msg.sender;\n            dItems[_pku].deistributorId = msg.sender;\n            dItems[_pku].retailerId = _receiver;\n\n        }\n        emit Sold(_slu);\n    }\n\n    /// Function helps manufacturer to ship a Drug Loud\n    function shipDrugsLoud(uint _slu)\n        public\n        isSold(_slu)\n        onlyManufacturerOf(_slu)\n    {\n        uint quantity = stockLouds[_slu].length;\n        for (uint i = 0; i < quantity; i++) {\n            uint _pku = stockLouds[_slu][i];\n            dItems[_pku].state = DrugState.Shipped;\n        }\n        emit Shipped(_slu);\n    }\n\n    /// Function helps manufacturer and distributor to update Drug Loud envuirment\n    function updateDrugsLoudShippmentEnv (\n        uint _slu,\n        uint _humidity,\n        uint _temprture\n    )\n        public\n        isShipped(_slu)\n        onlyManufacturerOrDistributorOf(_slu)\n    {\n        uint quantity = stockLouds[_slu].length;\n        EnvUpdateOpj memory _envUpdate = EnvUpdateOpj(\n            now,\n            _humidity,\n            _temprture,\n            msg.sender\n        );\n        for (uint i = 0; i < quantity; i++) {\n            uint _pku = stockLouds[_slu][i];\n\n            dItems[_pku].envHistory[dItems[_pku].envUpdateCounter] = _envUpdate;\n            dItems[_pku].envUpdateCounter ++;\n        }\n        emit EnvUpdated(_slu);\n    }\n\n    /// Function helps manufacturer to Pack a isManufactured Drug Loud\n    function receiveDrugsLoud (\n        uint _slu\n    )\n        public\n        isShipped(_slu)\n        isEnvTracked(_slu)\n        onlyRetailerOf(_slu)\n    {\n        uint quantity = stockLouds[_slu].length;\n        for (uint i = 0; i < quantity; i++) {\n            uint _pku = stockLouds[_slu][i];\n\n            dItems[_pku].state = DrugState.Received;\n        }\n        emit Received(_slu);\n    }\n\n    /// Function helps manufacturer to Pack a isManufactured Drug Loud\n    function updateDrugsLoudStockEnv (\n        uint _slu,\n        uint _humidity,\n        uint _temprture\n    )\n        public\n        isReceived(_slu)\n        onlyRetailerOf(_slu)\n    {\n        uint quantity = stockLouds[_slu].length;\n        EnvUpdateOpj memory _envUpdate = EnvUpdateOpj(\n            now,\n            _humidity,\n            _temprture,\n            msg.sender\n        );\n\n        for (uint i = 0; i < quantity; i++) {\n            uint _pku = stockLouds[_slu][i];\n\n            if (dItems[_pku].state != DrugState.Purchased) {\n                dItems[_pku].envHistory[dItems[_pku].envUpdateCounter] = _envUpdate;\n                dItems[_pku].envUpdateCounter ++;\n            }\n        }\n        emit EnvUpdated(_slu);\n    }\n\n    /// Function helps manufacturer to Pack a isManufactured Drug Loud\n    function purchaseDrug (uint _pku)\n        public\n        payable\n        isDrugReceived(_pku)\n        isDrugEnvTracked(_pku)\n    {\n        dItems[_pku].state = DrugState.Purchased;\n        dItems[_pku].currentOwnerId = msg.sender;\n\n        emit Purchased(_pku);\n    }\n    \n    /// public data featching functions\n    function fetchDrugLoaudData(uint _slu) \n        external \n        view \n        returns(\n            uint quantity,\n            uint _udpc,\n            string memory state,\n            address currentOwner,\n            address manufacturerId,\n            address deistributorId,\n            address retailerId,\n            uint price\n        )\n    {\n        require(_slu <= slu && _slu != 0, 'Given SLU Not Created Yet!');\n\n        uint sampleItemPKU = stockLouds[_slu][stockLouds[_slu].length-1];\n        (\n            _udpc,\n            ,\n            state,\n            currentOwner,\n            manufacturerId,\n            deistributorId,\n            retailerId,\n            price,\n            ,\n            \n        ) = fetchDrugItemData(sampleItemPKU);\n\n        quantity = stockLouds[_slu].length;\n    }\n\n    function fetchDrugItemData(uint _pku)\n        public\n        view\n        returns(\n            uint _udpc,\n            uint _slu,\n            string memory state,\n            address currentOwner,\n            address manufacturerId,\n            address deistributorId,\n            address retailerId,\n            uint price,\n            uint packingTimeStamp,\n            uint numberOfEnvUpdate\n        )\n    {\n        require(_pku <= pku && _pku != 0, 'Given PKU Not Created Yet!');\n        DrugItem  storage _drugItem = dItems[_pku];\n\n        _udpc = _drugItem.udpc;\n        _slu = _drugItem.slu;\n\n        if (_drugItem.state == DrugState.Manufactured)\n            state = 'Manufactured';\n        else if (_drugItem.state == DrugState.Packed)\n            state = 'Packed';\n        else if (_drugItem.state == DrugState.ForSale)\n            state = 'ForSale';\n        else if (_drugItem.state == DrugState.Sold)\n            state = 'Sold';\n        else if (_drugItem.state == DrugState.Shipped)\n            state = 'Shipped';\n        else if (_drugItem.state == DrugState.Received)\n            state = 'Received';\n        else if (_drugItem.state == DrugState.Purchased)\n            state = 'Purchased';\n\n        currentOwner = _drugItem.currentOwnerId;\n        manufacturerId = _drugItem.manufacturerId;\n        deistributorId = _drugItem.deistributorId;\n        retailerId = _drugItem.retailerId;\n        price = _drugItem.price;\n        packingTimeStamp = _drugItem.packingTimeStamp;\n        numberOfEnvUpdate = _drugItem.envUpdateCounter;\n    }\n\n    function fetchLoudPKUs(uint _slu)\n        external\n        view\n        returns(\n            uint[] memory loadPKUs\n        )\n    {\n        loadPKUs = stockLouds[_slu];\n    }\n\n    function fetchEnvHistory(uint _pku)\n        external\n        view\n        isDrugEnvTracked(_pku)\n        returns(\n            uint numberOfupdate,\n            uint[] memory timeStamps,\n            uint[] memory temprtures,\n            uint[] memory humiditys,\n            address[] memory updaterAddresses\n        )\n    {\n        DrugItem  storage _drugItem = dItems[_pku];\n        numberOfupdate = _drugItem.envUpdateCounter;\n        uint[] memory _timeStamps = new uint[](numberOfupdate);\n        uint[] memory _temprtures = new uint[](numberOfupdate);\n        uint[] memory _humiditys = new uint[](numberOfupdate);\n        address[] memory _updaterAddresses = new address[](numberOfupdate);\n        for (uint i = 0; i < _drugItem.envUpdateCounter; i++) {\n            EnvUpdateOpj storage _envUpdate = _drugItem.envHistory[i];\n            _timeStamps[i] = _envUpdate.timeStamp;\n            _temprtures[i] = _envUpdate.temprture;\n            _humiditys[i] = _envUpdate.humidity;\n            _updaterAddresses[i] = _envUpdate.updaterAddress;\n        }\n        (timeStamps, temprtures, humiditys, updaterAddresses) = (\n            _timeStamps, \n            _temprtures, \n            _humiditys,\n            _updaterAddresses\n        );\n    }\n\n}\n",
  "sourcePath": "/home/rajat/Desktop/ethereum/drug-supply-chain/contracts/Base/Storage/Drug.sol",
  "compiler": {
    "name": "solc",
    "version": "0.5.0+commit.1d4f565a.Emscripten.clang"
  },
  "schemaVersion": "3.0.23",
  "updatedAt": "2020-02-28T20:51:48.600Z",
  "devdoc": {
    "author": "Khalid F.Sh",
    "methods": {},
    "title": "Drug Chain Contract"
  },
  "userdoc": {
    "methods": {
      "addDrugsLoud(uint256,uint256)": {
        "notice": "Function helps manufacturer to add Drug Loud for sale"
      },
      "buyDrugsLoud(uint256,address)": {
        "notice": "Function helps distributor to buy a Drug Loud it can be quantity only order but i think its not important for now"
      },
      "constructor": "Constructor Function sets up SLU and PKU to 0",
      "fetchDrugLoaudData(uint256)": {
        "notice": "public data featching functions"
      },
      "manufacturDrugsLoud(uint256,uint256)": {
        "notice": "Function helps manufacturer to manufactur a new Drug Loud"
      },
      "packDrugsLoud(uint256)": {
        "notice": "Function helps manufacturer to Pack a isManufactured Drug Loud"
      },
      "purchaseDrug(uint256)": {
        "notice": "Function helps manufacturer to Pack a isManufactured Drug Loud"
      },
      "receiveDrugsLoud(uint256)": {
        "notice": "Function helps manufacturer to Pack a isManufactured Drug Loud"
      },
      "shipDrugsLoud(uint256)": {
        "notice": "Function helps manufacturer to ship a Drug Loud"
      },
      "updateDrugsLoudShippmentEnv(uint256,uint256,uint256)": {
        "notice": "Function helps manufacturer and distributor to update Drug Loud envuirment"
      },
      "updateDrugsLoudStockEnv(uint256,uint256,uint256)": {
        "notice": "Function helps manufacturer to Pack a isManufactured Drug Loud"
      }
    }
  }
}