{
  "contractName": "DrugDesign",
  "abi": [
    {
      "inputs": [],
      "payable": false,
      "stateMutability": "nonpayable",
      "type": "constructor"
    },
    {
      "anonymous": false,
      "inputs": [
        {
          "indexed": false,
          "name": "udpc",
          "type": "uint256"
        }
      ],
      "name": "Owned",
      "type": "event"
    },
    {
      "anonymous": false,
      "inputs": [
        {
          "indexed": false,
          "name": "udpc",
          "type": "uint256"
        }
      ],
      "name": "TestCaseAdded",
      "type": "event"
    },
    {
      "anonymous": false,
      "inputs": [
        {
          "indexed": false,
          "name": "udpc",
          "type": "uint256"
        }
      ],
      "name": "Approved",
      "type": "event"
    },
    {
      "anonymous": false,
      "inputs": [
        {
          "indexed": false,
          "name": "udpc",
          "type": "uint256"
        }
      ],
      "name": "UpForSale",
      "type": "event"
    },
    {
      "anonymous": false,
      "inputs": [
        {
          "indexed": false,
          "name": "udpc",
          "type": "uint256"
        }
      ],
      "name": "DrugDesignPurchased",
      "type": "event"
    },
    {
      "anonymous": false,
      "inputs": [
        {
          "indexed": false,
          "name": "udpc",
          "type": "uint256"
        }
      ],
      "name": "SaleCanceled",
      "type": "event"
    },
    {
      "anonymous": false,
      "inputs": [
        {
          "indexed": false,
          "name": "udpc",
          "type": "uint256"
        }
      ],
      "name": "UpForPartnered",
      "type": "event"
    },
    {
      "anonymous": false,
      "inputs": [
        {
          "indexed": false,
          "name": "udpc",
          "type": "uint256"
        }
      ],
      "name": "UpForRestrictPartnered",
      "type": "event"
    },
    {
      "anonymous": false,
      "inputs": [
        {
          "indexed": false,
          "name": "udpc",
          "type": "uint256"
        }
      ],
      "name": "PartnerGained",
      "type": "event"
    },
    {
      "anonymous": false,
      "inputs": [
        {
          "indexed": false,
          "name": "udpc",
          "type": "uint256"
        },
        {
          "indexed": false,
          "name": "partner",
          "type": "address"
        }
      ],
      "name": "RestrictPartnerTransfered",
      "type": "event"
    },
    {
      "anonymous": false,
      "inputs": [
        {
          "indexed": false,
          "name": "udpc",
          "type": "uint256"
        }
      ],
      "name": "PartnerClosed",
      "type": "event"
    },
    {
      "constant": false,
      "inputs": [
        {
          "name": "_designerName",
          "type": "string"
        },
        {
          "name": "_drugName",
          "type": "string"
        },
        {
          "name": "_description",
          "type": "string"
        },
        {
          "name": "_notes",
          "type": "string"
        }
      ],
      "name": "designDrug",
      "outputs": [],
      "payable": false,
      "stateMutability": "nonpayable",
      "type": "function"
    },
    {
      "constant": false,
      "inputs": [
        {
          "name": "_udpc",
          "type": "uint256"
        },
        {
          "name": "_description",
          "type": "string"
        },
        {
          "name": "_isPassed",
          "type": "bool"
        },
        {
          "name": "_notes",
          "type": "string"
        }
      ],
      "name": "addTestCase",
      "outputs": [],
      "payable": false,
      "stateMutability": "nonpayable",
      "type": "function"
    },
    {
      "constant": false,
      "inputs": [
        {
          "name": "_udpc",
          "type": "uint256"
        },
        {
          "name": "_description",
          "type": "string"
        },
        {
          "name": "_isPassed",
          "type": "bool"
        },
        {
          "name": "_notes",
          "type": "string"
        }
      ],
      "name": "addTestCaseByRegulaor",
      "outputs": [],
      "payable": false,
      "stateMutability": "nonpayable",
      "type": "function"
    },
    {
      "constant": false,
      "inputs": [
        {
          "name": "_udpc",
          "type": "uint256"
        }
      ],
      "name": "approveDrug",
      "outputs": [],
      "payable": false,
      "stateMutability": "nonpayable",
      "type": "function"
    },
    {
      "constant": false,
      "inputs": [
        {
          "name": "_udpc",
          "type": "uint256"
        },
        {
          "name": "_price",
          "type": "uint256"
        }
      ],
      "name": "upForSale",
      "outputs": [],
      "payable": false,
      "stateMutability": "nonpayable",
      "type": "function"
    },
    {
      "constant": false,
      "inputs": [
        {
          "name": "_udpc",
          "type": "uint256"
        }
      ],
      "name": "purchaseDrugDesign",
      "outputs": [],
      "payable": true,
      "stateMutability": "payable",
      "type": "function"
    },
    {
      "constant": false,
      "inputs": [
        {
          "name": "_udpc",
          "type": "uint256"
        },
        {
          "name": "_shares",
          "type": "uint256"
        }
      ],
      "name": "openManufactPartnership",
      "outputs": [],
      "payable": false,
      "stateMutability": "nonpayable",
      "type": "function"
    },
    {
      "constant": false,
      "inputs": [
        {
          "name": "_udpc",
          "type": "uint256"
        },
        {
          "name": "_name",
          "type": "string"
        }
      ],
      "name": "buildPartnerContract",
      "outputs": [],
      "payable": false,
      "stateMutability": "nonpayable",
      "type": "function"
    },
    {
      "constant": false,
      "inputs": [
        {
          "name": "_udpc",
          "type": "uint256"
        }
      ],
      "name": "closeManufactPartnership",
      "outputs": [],
      "payable": false,
      "stateMutability": "nonpayable",
      "type": "function"
    },
    {
      "constant": false,
      "inputs": [
        {
          "name": "_udpc",
          "type": "uint256"
        }
      ],
      "name": "restrictManufactPartnership",
      "outputs": [],
      "payable": false,
      "stateMutability": "nonpayable",
      "type": "function"
    },
    {
      "constant": false,
      "inputs": [
        {
          "name": "_udpc",
          "type": "uint256"
        },
        {
          "name": "_partner",
          "type": "address"
        },
        {
          "name": "_name",
          "type": "string"
        },
        {
          "name": "_shares",
          "type": "uint256"
        }
      ],
      "name": "buildRestrictPartnerContract",
      "outputs": [],
      "payable": false,
      "stateMutability": "nonpayable",
      "type": "function"
    },
    {
      "constant": true,
      "inputs": [
        {
          "name": "_udpc",
          "type": "uint256"
        }
      ],
      "name": "fetchDrugDesignData",
      "outputs": [
        {
          "name": "currentOwner",
          "type": "address"
        },
        {
          "name": "designerId",
          "type": "address"
        },
        {
          "name": "designerName",
          "type": "string"
        },
        {
          "name": "drugName",
          "type": "string"
        },
        {
          "name": "currentState",
          "type": "string"
        },
        {
          "name": "forSale",
          "type": "bool"
        },
        {
          "name": "salePrice",
          "type": "uint256"
        },
        {
          "name": "partnershipState",
          "type": "string"
        },
        {
          "name": "partnershipShares",
          "type": "uint256"
        },
        {
          "name": "numberOfTests",
          "type": "uint256"
        },
        {
          "name": "numberOfManufacturers",
          "type": "uint256"
        }
      ],
      "payable": false,
      "stateMutability": "view",
      "type": "function"
    },
    {
      "constant": true,
      "inputs": [
        {
          "name": "_udpc",
          "type": "uint256"
        }
      ],
      "name": "featchDrugDesignMetaData",
      "outputs": [
        {
          "name": "name",
          "type": "string"
        },
        {
          "name": "description",
          "type": "string"
        },
        {
          "name": "notes",
          "type": "string"
        }
      ],
      "payable": false,
      "stateMutability": "view",
      "type": "function"
    },
    {
      "constant": true,
      "inputs": [
        {
          "name": "_udpc",
          "type": "uint256"
        },
        {
          "name": "_testIndex",
          "type": "uint256"
        }
      ],
      "name": "featchDrugDesignTestCases",
      "outputs": [
        {
          "name": "description",
          "type": "string"
        },
        {
          "name": "isPassed",
          "type": "bool"
        },
        {
          "name": "notes",
          "type": "string"
        }
      ],
      "payable": false,
      "stateMutability": "view",
      "type": "function"
    },
    {
      "constant": true,
      "inputs": [
        {
          "name": "_udpc",
          "type": "uint256"
        },
        {
          "name": "_manufacturerId",
          "type": "address"
        }
      ],
      "name": "isManufacturerOf",
      "outputs": [
        {
          "name": "",
          "type": "bool"
        }
      ],
      "payable": false,
      "stateMutability": "view",
      "type": "function"
    },
    {
      "constant": true,
      "inputs": [
        {
          "name": "_udpc",
          "type": "uint256"
        },
        {
          "name": "_manufacturerId",
          "type": "address"
        }
      ],
      "name": "manufacturerSharesOf",
      "outputs": [
        {
          "name": "",
          "type": "uint256"
        }
      ],
      "payable": false,
      "stateMutability": "view",
      "type": "function"
    }
  ],
  "bytecode": "0x608060405234801561001057600080fd5b5060008081905550613847806100276000396000f3fe6080604052600436106100e6576000357c0100000000000000000000000000000000000000000000000000000000900463ffffffff16806301715f75146100eb5780631395d0f21461015e5780631e8acbeb14610199578063374a24091461030e5780633f968f9e14610349578063424ee0db146103b85780634314d44d146106455780634346fac5146107ba57806365c7c33114610946578063784167af1461098b5780639ce6f51c146109d05780639f179682146109fe578063c7bead1e14610ad0578063e32ba99514610c05578063e63d2ee914610d01578063fc42925214610d3c575b600080fd5b3480156100f757600080fd5b506101446004803603604081101561010e57600080fd5b8101908080359060200190929190803573ffffffffffffffffffffffffffffffffffffffff169060200190929190505050610fc1565b604051808215151515815260200191505060405180910390f35b34801561016a57600080fd5b506101976004803603602081101561018157600080fd5b8101908080359060200190929190505050610ff3565b005b3480156101a557600080fd5b5061030c600480360360808110156101bc57600080fd5b8101908080359060200190929190803590602001906401000000008111156101e357600080fd5b8201836020820111156101f557600080fd5b8035906020019184600183028401116401000000008311171561021757600080fd5b91908080601f016020809104026020016040519081016040528093929190818152602001838380828437600081840152601f19601f8201169050808301925050505050505091929192908035151590602001909291908035906020019064010000000081111561028657600080fd5b82018360208201111561029857600080fd5b803590602001918460018302840111640100000000831117156102ba57600080fd5b91908080601f016020809104026020016040519081016040528093929190818152602001838380828437600081840152601f19601f8201169050808301925050505050505091929192905050506110af565b005b34801561031a57600080fd5b506103476004803603602081101561033157600080fd5b81019080803590602001909291905050506113af565b005b34801561035557600080fd5b506103a26004803603604081101561036c57600080fd5b8101908080359060200190929190803573ffffffffffffffffffffffffffffffffffffffff1690602001909291905050506114e0565b6040518082815260200191505060405180910390f35b3480156103c457600080fd5b50610643600480360360808110156103db57600080fd5b81019080803590602001906401000000008111156103f857600080fd5b82018360208201111561040a57600080fd5b8035906020019184600183028401116401000000008311171561042c57600080fd5b91908080601f016020809104026020016040519081016040528093929190818152602001838380828437600081840152601f19601f8201169050808301925050505050505091929192908035906020019064010000000081111561048f57600080fd5b8201836020820111156104a157600080fd5b803590602001918460018302840111640100000000831117156104c357600080fd5b91908080601f016020809104026020016040519081016040528093929190818152602001838380828437600081840152601f19601f8201169050808301925050505050505091929192908035906020019064010000000081111561052657600080fd5b82018360208201111561053857600080fd5b8035906020019184600183028401116401000000008311171561055a57600080fd5b91908080601f016020809104026020016040519081016040528093929190818152602001838380828437600081840152601f19601f820116905080830192505050505050509192919290803590602001906401000000008111156105bd57600080fd5b8201836020820111156105cf57600080fd5b803590602001918460018302840111640100000000831117156105f157600080fd5b91908080601f016020809104026020016040519081016040528093929190818152602001838380828437600081840152601f19601f820116905080830192505050505050509192919290505050611512565b005b34801561065157600080fd5b506107b86004803603608081101561066857600080fd5b81019080803590602001909291908035906020019064010000000081111561068f57600080fd5b8201836020820111156106a157600080fd5b803590602001918460018302840111640100000000831117156106c357600080fd5b91908080601f016020809104026020016040519081016040528093929190818152602001838380828437600081840152601f19601f8201169050808301925050505050505091929192908035151590602001909291908035906020019064010000000081111561073257600080fd5b82018360208201111561074457600080fd5b8035906020019184600183028401116401000000008311171561076657600080fd5b91908080601f016020809104026020016040519081016040528093929190818152602001838380828437600081840152601f19601f82011690508083019250505050505050919291929050505061184e565b005b3480156107c657600080fd5b506107f3600480360360208110156107dd57600080fd5b8101908080359060200190929190505050611adc565b60405180806020018060200180602001848103845287818151815260200191508051906020019080838360005b8381101561083b578082015181840152602081019050610820565b50505050905090810190601f1680156108685780820380516001836020036101000a031916815260200191505b50848103835286818151815260200191508051906020019080838360005b838110156108a1578082015181840152602081019050610886565b50505050905090810190601f1680156108ce5780820380516001836020036101000a031916815260200191505b50848103825285818151815260200191508051906020019080838360005b838110156109075780820151818401526020810190506108ec565b50505050905090810190601f1680156109345780820380516001836020036101000a031916815260200191505b50965050505050505060405180910390f35b34801561095257600080fd5b506109896004803603604081101561096957600080fd5b810190808035906020019092919080359060200190929190505050611d8d565b005b34801561099757600080fd5b506109ce600480360360408110156109ae57600080fd5b810190808035906020019092919080359060200190929190505050611f55565b005b6109fc600480360360208110156109e657600080fd5b810190808035906020019092919050505061209f565b005b348015610a0a57600080fd5b50610ace60048036036040811015610a2157600080fd5b810190808035906020019092919080359060200190640100000000811115610a4857600080fd5b820183602082011115610a5a57600080fd5b80359060200191846001830284011164010000000083111715610a7c57600080fd5b91908080601f016020809104026020016040519081016040528093929190818152602001838380828437600081840152601f19601f82011690508083019250505050505050919291929050505061230d565b005b348015610adc57600080fd5b50610b1360048036036040811015610af357600080fd5b81019080803590602001909291908035906020019092919050505061240c565b60405180806020018415151515815260200180602001838103835286818151815260200191508051906020019080838360005b83811015610b61578082015181840152602081019050610b46565b50505050905090810190601f168015610b8e5780820380516001836020036101000a031916815260200191505b50838103825284818151815260200191508051906020019080838360005b83811015610bc7578082015181840152602081019050610bac565b50505050905090810190601f168015610bf45780820380516001836020036101000a031916815260200191505b509550505050505060405180910390f35b348015610c1157600080fd5b50610cff60048036036080811015610c2857600080fd5b8101908080359060200190929190803573ffffffffffffffffffffffffffffffffffffffff16906020019092919080359060200190640100000000811115610c6f57600080fd5b820183602082011115610c8157600080fd5b80359060200191846001830284011164010000000083111715610ca357600080fd5b91908080601f016020809104026020016040519081016040528093929190818152602001838380828437600081840152601f19601f820116905080830192505050505050509192919290803590602001909291905050506126f0565b005b348015610d0d57600080fd5b50610d3a60048036036020811015610d2457600080fd5b810190808035906020019092919050505061290f565b005b348015610d4857600080fd5b50610d7560048036036020811015610d5f57600080fd5b8101908080359060200190929190505050612a62565b604051808c73ffffffffffffffffffffffffffffffffffffffff1673ffffffffffffffffffffffffffffffffffffffff1681526020018b73ffffffffffffffffffffffffffffffffffffffff1673ffffffffffffffffffffffffffffffffffffffff1681526020018060200180602001806020018a1515151581526020018981526020018060200188815260200187815260200186815260200185810385528e818151815260200191508051906020019080838360005b83811015610e47578082015181840152602081019050610e2c565b50505050905090810190601f168015610e745780820380516001836020036101000a031916815260200191505b5085810384528d818151815260200191508051906020019080838360005b83811015610ead578082015181840152602081019050610e92565b50505050905090810190601f168015610eda5780820380516001836020036101000a031916815260200191505b5085810383528c818151815260200191508051906020019080838360005b83811015610f13578082015181840152602081019050610ef8565b50505050905090810190601f168015610f405780820380516001836020036101000a031916815260200191505b50858103825289818151815260200191508051906020019080838360005b83811015610f79578082015181840152602081019050610f5e565b50505050905090810190601f168015610fa65780820380516001836020036101000a031916815260200191505b509f5050505050505050505050505050505060405180910390f35b6000610feb8260016000868152602001908152602001600020600b01612ff790919063ffffffff16565b905092915050565b806001600381111561100157fe5b6001600083815260200190815260200160002060040160009054906101000a900460ff16600381111561103057fe5b14151561103c57600080fd5b60026001600084815260200190815260200160002060040160006101000a81548160ff0219169083600381111561106f57fe5b02179055507f3ad93af63cb7967b23e4fb500b7d7d28b07516325dcf341f88bebf959d82c1cb826040518082815260200191505060405180910390a15050565b833373ffffffffffffffffffffffffffffffffffffffff166001600083815260200190815260200160002060010160009054906101000a900473ffffffffffffffffffffffffffffffffffffffff1673ffffffffffffffffffffffffffffffffffffffff1614151561112057600080fd5b600054851115151561119a576040517f08c379a000000000000000000000000000000000000000000000000000000000815260040180806020018281038252601b8152602001807f476976656e2055445043204e6f7420437265617465642059657421000000000081525060200191505060405180910390fd5b6111a26135fa565b60a0604051908101604052803373ffffffffffffffffffffffffffffffffffffffff16815260200142815260200185151581526020018681526020018481525090508060016000888152602001908152602001600020600a016000600160008a815260200190815260200160002060090154815260200190815260200160002060008201518160000160006101000a81548173ffffffffffffffffffffffffffffffffffffffff021916908373ffffffffffffffffffffffffffffffffffffffff1602179055506020820151816001015560408201518160020160006101000a81548160ff02191690831515021790555060608201518160030190805190602001906112af929190613642565b5060808201518160040190805190602001906112cc929190613642565b5090505060016000878152602001908152602001600020600901600081548092919060010191905055506000600381111561130357fe5b6001600088815260200190815260200160002060040160009054906101000a900460ff16600381111561133257fe5b141561137057600180600088815260200190815260200160002060040160006101000a81548160ff0219169083600381111561136a57fe5b02179055505b7f81d5f9bced9b9d1723f40796f43346ab2f3d2147b09cc27e573f3eb3b5875864866040518082815260200191505060405180910390a1505050505050565b80600260038111156113bd57fe5b6001600083815260200190815260200160002060040160009054906101000a900460ff1660038111156113ec57fe5b1415156113f857600080fd5b813373ffffffffffffffffffffffffffffffffffffffff166001600083815260200190815260200160002060010160009054906101000a900473ffffffffffffffffffffffffffffffffffffffff1673ffffffffffffffffffffffffffffffffffffffff1614151561146957600080fd5b600060016000858152602001908152602001600020600b0160020160006101000a81548160ff0219169083600281111561149f57fe5b02179055507fecd07b3c3d2d5a97909bbc0b960a7481613849c91ef6c3a8b139c3b7c4c8083b836040518082815260200191505060405180910390a1505050565b600061150a8260016000868152602001908152602001600020600b0161308b90919063ffffffff16565b905092915050565b600080815480929190600101919050555061152b6136c2565b60005481600001818152505033816020019073ffffffffffffffffffffffffffffffffffffffff16908173ffffffffffffffffffffffffffffffffffffffff168152505033816040019073ffffffffffffffffffffffffffffffffffffffff16908173ffffffffffffffffffffffffffffffffffffffff16815250508481606001819052506000816080019060038111156115c257fe5b908160038111156115cf57fe5b81525050606060405190810160405280858152602001848152602001838152508160a0018190525060008160c0018181525050600181610100015160600181815250508060016000805481526020019081526020016000206000820151816000015560208201518160010160006101000a81548173ffffffffffffffffffffffffffffffffffffffff021916908373ffffffffffffffffffffffffffffffffffffffff16021790555060408201518160020160006101000a81548173ffffffffffffffffffffffffffffffffffffffff021916908373ffffffffffffffffffffffffffffffffffffffff16021790555060608201518160030190805190602001906116db929190613642565b5060808201518160040160006101000a81548160ff0219169083600381111561170057fe5b021790555060a082015181600501600082015181600001908051906020019061172a929190613642565b506020820151816001019080519060200190611747929190613642565b506040820151816002019080519060200190611764929190613642565b50505060c0820151816008015560e0820151816009015561010082015181600b0160008201518160000160006101000a81548173ffffffffffffffffffffffffffffffffffffffff021916908373ffffffffffffffffffffffffffffffffffffffff1602179055506020820151816001015560408201518160020160006101000a81548160ff021916908360028111156117fa57fe5b02179055506060820151816003015550509050507f4bea4fa538d41a7b7fb10bb3405cf3e168122aa3438625bbf0ac6dde64fbdb0c6000546040518082815260200191505060405180910390a15050505050565b60005484111515156118c8576040517f08c379a000000000000000000000000000000000000000000000000000000000815260040180806020018281038252601b8152602001807f476976656e2055445043204e6f7420437265617465642059657421000000000081525060200191505060405180910390fd5b6118d06135fa565b60a0604051908101604052803373ffffffffffffffffffffffffffffffffffffffff16815260200142815260200184151581526020018581526020018381525090508060016000878152602001908152602001600020600a0160006001600089815260200190815260200160002060090154815260200190815260200160002060008201518160000160006101000a81548173ffffffffffffffffffffffffffffffffffffffff021916908373ffffffffffffffffffffffffffffffffffffffff1602179055506020820151816001015560408201518160020160006101000a81548160ff02191690831515021790555060608201518160030190805190602001906119dd929190613642565b5060808201518160040190805190602001906119fa929190613642565b50905050600160008681526020019081526020016000206009016000815480929190600101919050555060006003811115611a3157fe5b6001600087815260200190815260200160002060040160009054906101000a900460ff166003811115611a6057fe5b1415611a9e57600180600087815260200190815260200160002060040160006101000a81548160ff02191690836003811115611a9857fe5b02179055505b7f81d5f9bced9b9d1723f40796f43346ab2f3d2147b09cc27e573f3eb3b5875864856040518082815260200191505060405180910390a15050505050565b60608060606000548411151515611b5b576040517f08c379a000000000000000000000000000000000000000000000000000000000815260040180806020018281038252601b8152602001807f476976656e2055445043204e6f7420437265617465642059657421000000000081525060200191505060405180910390fd5b600160008581526020019081526020016000206005016000016001600086815260200190815260200160002060050160010160016000878152602001908152602001600020600501600201828054600181600116156101000203166002900480601f016020809104026020016040519081016040528092919081815260200182805460018160011615610100020316600290048015611c3b5780601f10611c1057610100808354040283529160200191611c3b565b820191906000526020600020905b815481529060010190602001808311611c1e57829003601f168201915b50505050509250818054600181600116156101000203166002900480601f016020809104026020016040519081016040528092919081815260200182805460018160011615610100020316600290048015611cd75780601f10611cac57610100808354040283529160200191611cd7565b820191906000526020600020905b815481529060010190602001808311611cba57829003601f168201915b50505050509150808054600181600116156101000203166002900480601f016020809104026020016040519081016040528092919081815260200182805460018160011615610100020316600290048015611d735780601f10611d4857610100808354040283529160200191611d73565b820191906000526020600020905b815481529060010190602001808311611d5657829003601f168201915b505050505090508093508194508295505050509193909250565b8160026003811115611d9b57fe5b6001600083815260200190815260200160002060040160009054906101000a900460ff166003811115611dca57fe5b141515611dd657600080fd5b823373ffffffffffffffffffffffffffffffffffffffff166001600083815260200190815260200160002060010160009054906101000a900473ffffffffffffffffffffffffffffffffffffffff1673ffffffffffffffffffffffffffffffffffffffff16141515611e4757600080fd5b60648311151515611ec0576040517f08c379a00000000000000000000000000000000000000000000000000000000081526004018080602001828103825260168152602001807f4d6f7374206265206c657373207468616e20253130300000000000000000000081525060200191505060405180910390fd5b8260016000868152602001908152602001600020600b01600101819055506001806000868152602001908152602001600020600b0160020160006101000a81548160ff02191690836002811115611f1357fe5b02179055507f7757356b46f23cb3ef1647e45863d1afc6f69c56c39b4afc70f3e2cea14c3a9d846040518082815260200191505060405180910390a150505050565b813373ffffffffffffffffffffffffffffffffffffffff166001600083815260200190815260200160002060010160009054906101000a900473ffffffffffffffffffffffffffffffffffffffff1673ffffffffffffffffffffffffffffffffffffffff16141515611fc657600080fd5b8260026003811115611fd457fe5b6001600083815260200190815260200160002060040160009054906101000a900460ff16600381111561200357fe5b14151561200f57600080fd5b82600160008681526020019081526020016000206008018190555060036001600086815260200190815260200160002060040160006101000a81548160ff0219169083600381111561205d57fe5b02179055507f9830dea00c267e7b6913a128e9a399b9272b3c2b650ac4c447ce2b876b100488846040518082815260200191505060405180910390a150505050565b806003808111156120ac57fe5b6001600083815260200190815260200160002060040160009054906101000a900460ff1660038111156120db57fe5b1415156120e757600080fd5b8160016000828152602001908152602001600020600801543410151515612176576040517f08c379a000000000000000000000000000000000000000000000000000000000815260040180806020018281038252600b8152602001807f4e6f7420456e6f7567682100000000000000000000000000000000000000000081525060200191505060405180910390fd5b60026001600085815260200190815260200160002060040160006101000a81548160ff021916908360038111156121a957fe5b0217905550336001600085815260200190815260200160002060010160006101000a81548173ffffffffffffffffffffffffffffffffffffffff021916908373ffffffffffffffffffffffffffffffffffffffff1602179055503360016000858152602001908152602001600020600b0160000160006101000a81548173ffffffffffffffffffffffffffffffffffffffff021916908373ffffffffffffffffffffffffffffffffffffffff1602179055507f761e3276be1dd60429a48581fa8d3df6c90c05fff554645023f8318bc29402b7836040518082815260200191505060405180910390a160006001600083815260200190815260200160002060080154905060008134039050600081141515612306573373ffffffffffffffffffffffffffffffffffffffff166108fc829081150290604051600060405180830381858888f19350505050158015612304573d6000803e3d6000fd5b505b5050505050565b816002600381111561231b57fe5b6001600083815260200190815260200160002060040160009054906101000a900460ff16600381111561234a57fe5b14151561235657600080fd5b826001600281111561236457fe5b60016000838152602001908152602001600020600b0160020160009054906101000a900460ff16600281111561239657fe5b1415156123a257600080fd5b6123cf3384600060016000898152602001908152602001600020600b01613145909392919063ffffffff16565b7f74c5d412ef45f2e49816788001b6e27a174bb63e91ade58fd0631869b74a6ec5846040518082815260200191505060405180910390a150505050565b606060006060600054851115151561248c576040517f08c379a000000000000000000000000000000000000000000000000000000000815260040180806020018281038252601b8152602001807f476976656e2055445043204e6f7420437265617465642059657421000000000081525060200191505060405180910390fd5b600160008681526020019081526020016000206009015484101515612519576040517f08c379a000000000000000000000000000000000000000000000000000000000815260040180806020018281038252601a8152602001807f546573742043617365204e6f742043726561746564205965742100000000000081525060200191505060405180910390fd5b60016000868152602001908152602001600020600a01600085815260200190815260200160002060030160016000878152602001908152602001600020600a01600086815260200190815260200160002060020160009054906101000a900460ff1660016000888152602001908152602001600020600a016000878152602001908152602001600020600401828054600181600116156101000203166002900480601f01602080910402602001604051908101604052809291908181526020018280546001816001161561010002031660029004801561263a5780601f1061260f5761010080835404028352916020019161263a565b820191906000526020600020905b81548152906001019060200180831161261d57829003601f168201915b50505050509250808054600181600116156101000203166002900480601f0160208091040260200160405190810160405280929190818152602001828054600181600116156101000203166002900480156126d65780601f106126ab576101008083540402835291602001916126d6565b820191906000526020600020905b8154815290600101906020018083116126b957829003601f168201915b505050505090508093508194508295505050509250925092565b83600260038111156126fe57fe5b6001600083815260200190815260200160002060040160009054906101000a900460ff16600381111561272d57fe5b14151561273957600080fd5b843373ffffffffffffffffffffffffffffffffffffffff166001600083815260200190815260200160002060010160009054906101000a900473ffffffffffffffffffffffffffffffffffffffff1673ffffffffffffffffffffffffffffffffffffffff161415156127aa57600080fd5b85600060028111156127b857fe5b60016000838152602001908152602001600020600b0160020160009054906101000a900460ff1660028111156127ea57fe5b1415156127f657600080fd5b6064841115151561286f576040517f08c379a00000000000000000000000000000000000000000000000000000000081526004018080602001828103825260168152602001807f4d6f7374206265206c657373207468616e20253130300000000000000000000081525060200191505060405180910390fd5b61289b868686600160008c8152602001908152602001600020600b01613145909392919063ffffffff16565b7fcf9b82493d27751c082844bdd5f86709a115d8bbc98b6ebb688d96ff15837cc48787604051808381526020018273ffffffffffffffffffffffffffffffffffffffff1673ffffffffffffffffffffffffffffffffffffffff1681526020019250505060405180910390a150505050505050565b803373ffffffffffffffffffffffffffffffffffffffff166001600083815260200190815260200160002060010160009054906101000a900473ffffffffffffffffffffffffffffffffffffffff1673ffffffffffffffffffffffffffffffffffffffff1614151561298057600080fd5b816001600281111561298e57fe5b60016000838152602001908152602001600020600b0160020160009054906101000a900460ff1660028111156129c057fe5b1415156129cc57600080fd5b600260016000858152602001908152602001600020600b0160020160006101000a81548160ff02191690836002811115612a0257fe5b0217905550600060016000858152602001908152602001600020600b01600101819055507fa54024b3473fdbaabff7d6742d51ced76d6ec5df786a4b361595bb0623e8d167836040518082815260200191505060405180910390a1505050565b60008060608060606000806060600080600080548c11151515612aed576040517f08c379a000000000000000000000000000000000000000000000000000000000815260040180806020018281038252601b8152602001807f476976656e2055445043204e6f7420437265617465642059657421000000000081525060200191505060405180910390fd5b600160008d815260200190815260200160002060010160009054906101000a900473ffffffffffffffffffffffffffffffffffffffff169a50600160008d815260200190815260200160002060020160009054906101000a900473ffffffffffffffffffffffffffffffffffffffff169950600160008d81526020019081526020016000206003018054600181600116156101000203166002900480601f016020809104026020016040519081016040528092919081815260200182805460018160011615610100020316600290048015612c095780601f10612bde57610100808354040283529160200191612c09565b820191906000526020600020905b815481529060010190602001808311612bec57829003601f168201915b50505050509850600160008d81526020019081526020016000206005016000018054600181600116156101000203166002900480601f016020809104026020016040519081016040528092919081815260200182805460018160011615610100020316600290048015612cbd5780601f10612c9257610100808354040283529160200191612cbd565b820191906000526020600020905b815481529060010190602001808311612ca057829003601f168201915b5050505050975060006003811115612cd157fe5b600160008e815260200190815260200160002060040160009054906101000a900460ff166003811115612d0057fe5b1415612d43576040805190810160405280600781526020017f43726561746564000000000000000000000000000000000000000000000000008152509650612f3d565b60016003811115612d5057fe5b600160008e815260200190815260200160002060040160009054906101000a900460ff166003811115612d7f57fe5b1415612dc2576040805190810160405280600681526020017f54657374656400000000000000000000000000000000000000000000000000008152509650612f3c565b60026003811115612dcf57fe5b600160008e815260200190815260200160002060040160009054906101000a900460ff166003811115612dfe57fe5b1415612e41576040805190810160405280600881526020017f417070726f7665640000000000000000000000000000000000000000000000008152509650612f3b565b600380811115612e4d57fe5b600160008e815260200190815260200160002060040160009054906101000a900460ff166003811115612e7c57fe5b1415612ebf576040805190810160405280600781526020017f466f7253616c65000000000000000000000000000000000000000000000000008152509650612f3a565b600380811115612ecb57fe5b600160008e815260200190815260200160002060040160009054906101000a900460ff166003811115612efa57fe5b1415612f39576040805190810160405280600781526020017f466f7253616c650000000000000000000000000000000000000000000000000081525096505b5b5b5b5b612f5b600160008e8152602001908152602001600020600b01613405565b9350600160008d8152602001908152602001600020600b016001015492506000600160008e81526020019081526020016000206008015414159550600160008d8152602001908152602001600020600801549450600160008d8152602001908152602001600020600901549150612fe6600160008e8152602001908152602001600020600b01613553565b905091939597999b90929496989a50565b60008073ffffffffffffffffffffffffffffffffffffffff168273ffffffffffffffffffffffffffffffffffffffff161415151561303457600080fd5b8260050160008373ffffffffffffffffffffffffffffffffffffffff1673ffffffffffffffffffffffffffffffffffffffff16815260200190815260200160002060009054906101000a900460ff16905092915050565b60008073ffffffffffffffffffffffffffffffffffffffff168273ffffffffffffffffffffffffffffffffffffffff16141515156130c857600080fd5b6130d28383612ff7565b15156130dd57600080fd5b60008360060160008473ffffffffffffffffffffffffffffffffffffffff1673ffffffffffffffffffffffffffffffffffffffff1681526020019081526020016000205490508360040160008281526020019081526020016000206002015491505092915050565b600084600101549050600073ffffffffffffffffffffffffffffffffffffffff168473ffffffffffffffffffffffffffffffffffffffff161415151561318a57600080fd5b6131948585612ff7565b1515156131a057600080fd5b600060028111156131ad57fe5b8560020160009054906101000a900460ff1660028111156131ca57fe5b1415613232578460000160009054906101000a900473ffffffffffffffffffffffffffffffffffffffff1673ffffffffffffffffffffffffffffffffffffffff163373ffffffffffffffffffffffffffffffffffffffff1614151561322e57600080fd5b8190505b60028081111561323e57fe5b8560020160009054906101000a900460ff16600281111561325b57fe5b141561326757506133ff565b60018560050160008673ffffffffffffffffffffffffffffffffffffffff1673ffffffffffffffffffffffffffffffffffffffff16815260200190815260200160002060006101000a81548160ff0219169083151502179055506132c9613752565b84816000019073ffffffffffffffffffffffffffffffffffffffff16908173ffffffffffffffffffffffffffffffffffffffff168152505083816020018190525081816040018181525050808660040160008860030154815260200190815260200160002060008201518160000160006101000a81548173ffffffffffffffffffffffffffffffffffffffff021916908373ffffffffffffffffffffffffffffffffffffffff1602179055506020820151816001019080519060200190613391929190613642565b506040820151816002015590505085600301548660060160008773ffffffffffffffffffffffffffffffffffffffff1673ffffffffffffffffffffffffffffffffffffffff168152602001908152602001600020819055506001866003016000828254019250508190555050505b50505050565b60606001600281111561341457fe5b8260020160009054906101000a900460ff16600281111561343157fe5b1415613474576040805190810160405280600481526020017f4f70656e00000000000000000000000000000000000000000000000000000000815250905061354e565b60028081111561348057fe5b8260020160009054906101000a900460ff16600281111561349d57fe5b14156134e0576040805190810160405280600581526020017f436c6f7365000000000000000000000000000000000000000000000000000000815250905061354e565b600060028111156134ed57fe5b8260020160009054906101000a900460ff16600281111561350a57fe5b141561354d576040805190810160405280600881526020017f5265737472696374000000000000000000000000000000000000000000000000815250905061354e565b5b919050565b6000806000905060008090505b83600301548110156135f057600073ffffffffffffffffffffffffffffffffffffffff1684600401600083815260200190815260200160002060000160009054906101000a900473ffffffffffffffffffffffffffffffffffffffff1673ffffffffffffffffffffffffffffffffffffffff161415156135e35781806001019250505b8080600101915050613560565b5080915050919050565b60a060405190810160405280600073ffffffffffffffffffffffffffffffffffffffff1681526020016000815260200160001515815260200160608152602001606081525090565b828054600181600116156101000203166002900490600052602060002090601f016020900481019282601f1061368357805160ff19168380011785556136b1565b828001600101855582156136b1579182015b828111156136b0578251825591602001919060010190613695565b5b5090506136be919061378a565b5090565b6101c06040519081016040528060008152602001600073ffffffffffffffffffffffffffffffffffffffff168152602001600073ffffffffffffffffffffffffffffffffffffffff168152602001606081526020016000600381111561372457fe5b81526020016137316137af565b8152602001600081526020016000815260200161374c6137d1565b81525090565b606060405190810160405280600073ffffffffffffffffffffffffffffffffffffffff16815260200160608152602001600081525090565b6137ac91905b808211156137a8576000816000905550600101613790565b5090565b90565b6060604051908101604052806060815260200160608152602001606081525090565b608060405190810160405280600073ffffffffffffffffffffffffffffffffffffffff168152602001600081526020016000600281111561380e57fe5b815260200160008152509056fea165627a7a723058200d99b65d8a51532feca9cffd69251c72ea4f4b03434dbf9108d3bf61216e48670029",
  "source": "pragma solidity ^0.5.0;\n\n/// Import Partnerships library\nimport \"../../utils/Partnerships.sol\";\n\n\n/// @author Khalid F.Sh\n/// @title Drug Design Chain Contract\ncontract DrugDesign {\n    using Partnerships for Partnerships.Partnership;\n\n    /// Variable for tracking Universal Drug Product Code (UDPC)\n    uint udpc;\n\n    /// Public mapping from UDPC to a Drug Design Item\n    mapping (uint => DrugDesignItem) dDItems;\n\n    /// Enumaration for defining variety of Drug Design State\n    enum DrugDesignState {\n        Owned,\n        Tested,\n        Approved,\n        ForSale\n    }\n\n    /// Structure keeping meta data for a Drug Design **TODO**\n    struct DrugDesignMeta {\n        string name;\n        string description;\n        string notes;\n    }\n\n    /// Structure for Drug Design Test Case **TODO**\n    struct DrugDesignTestCase {\n        address testerId;\n        uint timeStamp;\n        bool isPassed;\n        string description;\n        string notes;\n    }\n\n    /// Structure for keeping Drug Design fields structured\n    struct DrugDesignItem {\n        uint udpc;\n        address payable currentOwner;\n        address designerId;\n        string designerName;\n        DrugDesignState state;\n        DrugDesignMeta metaData;\n        uint salePrice;\n        uint testIndexed;\n        mapping(uint => DrugDesignTestCase) testCases;\n        Partnerships.Partnership manufacturers;\n    }\n\n    /// Event to emit them for users in functions, accept `udpc` as input\n    event Owned(uint udpc);\n    event TestCaseAdded(uint udpc);\n    event Approved(uint udpc);\n    event UpForSale(uint udpc);\n    event DrugDesignPurchased(uint udpc);\n    event SaleCanceled(uint udpc);\n    event UpForPartnered(uint udpc);\n    event UpForRestrictPartnered(uint udpc);\n    event PartnerGained(uint udpc);\n    event RestrictPartnerTransfered(uint udpc, address partner);\n    event PartnerClosed(uint udpc);\n\n    /// Modifier that checks the paid enough as expected and refunds the remaining balance\n    modifier checkDrugDesignPaymentValue(uint _udpc) {\n        require(msg.value >= dDItems[_udpc].salePrice, \"Not Enough!\");\n        _;\n        uint _price = dDItems[_udpc].salePrice;\n        uint amountToReturn = msg.value - _price;\n        if (amountToReturn != 0)\n            address(msg.sender).transfer(amountToReturn);\n    }\n\n    /// Modifier that checks if an DrugDesignItem.state of a udpc is Owned\n    modifier isOwned(uint _udpc) {\n        require(dDItems[_udpc].state == DrugDesignState.Owned);\n        _;\n    }\n\n    /// Modifier that checks if an DrugDesignItem.state of a udpc is Tested\n    modifier isTested(uint _udpc) {\n        require(dDItems[_udpc].state == DrugDesignState.Tested);\n        _;\n    }\n\n    /// Modifier that checks if an DrugDesignItem.state of a udpc is Approved\n    modifier isApproved(uint _udpc) {\n        require(dDItems[_udpc].state == DrugDesignState.Approved);\n        _;\n    }\n\n    /// Modifier that checks if the caller he is the currentOwner of Drug Design\n    modifier onlyOwnerOf(uint _udpc) {\n        require(dDItems[_udpc].currentOwner == msg.sender);\n        _;\n    }\n\n    /// Modifier that checks if the caller he is the currentOwner of Drug Design\n    modifier drugDesignForSale(uint _udpc) {\n        require(dDItems[_udpc].state == DrugDesignState.ForSale);\n        _;\n    }\n\n    /// Modifier that checks if an DrugDesignItem.manufacturers.state of a udpc is Opened\n    modifier isPartnerOpened(uint _udpc) {\n        require(dDItems[_udpc].manufacturers.state == Partnerships.PartnershipState.Opened);\n        _;\n    }\n\n    /// Modifier that checks if an DrugDesignItem.manufacturers.state of a udpc is Restricted\n    modifier isPartnerRestricted(uint _udpc) {\n        require(dDItems[_udpc].manufacturers.state == Partnerships.PartnershipState.Restricted);\n        _;\n    }\n\n    /// Modifier that checks if an DrugDesignItem.manufacturers.state of a udpc is Closed\n    modifier onlyManufacturPartnerOf(uint _udpc) {\n        require((dDItems[_udpc].manufacturers.has(msg.sender)) || (address(dDItems[_udpc].currentOwner) == msg.sender));\n        _;\n    }\n\n    /// Constructor Function sets up UDPC to 0\n    constructor() public {\n        udpc = 0;\n    }\n\n    /// Function helps Designer to estaplish a new Drug Design\n    function designDrug(\n        string memory _designerName,\n        string memory _drugName,\n        string memory _description,\n        string memory _notes\n    )\n        public\n    {\n        udpc ++;\n        DrugDesignItem memory newDDItem;\n        newDDItem.udpc = udpc;\n        newDDItem.currentOwner = msg.sender;\n        newDDItem.designerId = msg.sender;\n        newDDItem.designerName = _designerName;\n        newDDItem.state = DrugDesignState.Owned;\n        newDDItem.metaData = DrugDesignMeta(_drugName, _description, _notes);\n        newDDItem.salePrice = 0;\n        newDDItem.manufacturers.partnersIndex = 1;\n        dDItems[udpc] = newDDItem;\n        emit Owned(udpc);\n    }\n\n    /// Add Test Case for Drug Design by currentOwner\n    function addTestCase(\n        uint _udpc,\n        string memory _description,\n        bool _isPassed,\n        string memory _notes\n    )\n        public\n        onlyOwnerOf(_udpc)\n    {\n        require(_udpc <= udpc, 'Given UDPC Not Created Yet!');\n        DrugDesignTestCase memory _ddtc = DrugDesignTestCase(\n            msg.sender,\n            block.timestamp,\n            _isPassed,\n            _description,\n            _notes\n        );\n        dDItems[_udpc].testCases[dDItems[_udpc].testIndexed] = _ddtc;\n        dDItems[_udpc].testIndexed ++;\n        if (dDItems[_udpc].state == DrugDesignState.Owned)\n            dDItems[_udpc].state = DrugDesignState.Tested;\n        emit TestCaseAdded(_udpc);\n    }\n\n    // Add Test Case for Drug Design by regulator\n    function addTestCaseByRegulaor(\n        uint _udpc,\n        string memory _description,\n        bool _isPassed,\n        string memory _notes\n    )\n        public\n    {\n        require(_udpc <= udpc, 'Given UDPC Not Created Yet!');\n        DrugDesignTestCase memory _ddtc = DrugDesignTestCase(\n            msg.sender,\n            block.timestamp,\n            _isPassed,\n            _description,\n            _notes\n        );\n        dDItems[_udpc].testCases[dDItems[_udpc].testIndexed] = _ddtc;\n        dDItems[_udpc].testIndexed ++;\n        if (dDItems[_udpc].state == DrugDesignState.Owned)\n            dDItems[_udpc].state = DrugDesignState.Tested;\n\n        emit TestCaseAdded(_udpc);\n    }\n\n    /// Function to approve drug by a regulator only\n    function approveDrug(uint _udpc) public isTested(_udpc) {\n        dDItems[_udpc].state = DrugDesignState.Approved;\n\n        emit Approved(_udpc);\n    }\n\n    /// Function to sale a drug design\n    function upForSale(uint _udpc,uint _price)\n        public\n        onlyOwnerOf(_udpc)\n        isApproved(_udpc)\n    {\n        dDItems[_udpc].salePrice = _price;\n        dDItems[_udpc].state = DrugDesignState.ForSale;\n\n        emit UpForSale(_udpc);\n    }\n\n    /// Function to purchase a drug design\n    function purchaseDrugDesign(uint _udpc)\n        public\n        payable\n        drugDesignForSale(_udpc)\n        checkDrugDesignPaymentValue(_udpc)\n    {\n        dDItems[_udpc].state = DrugDesignState.Approved;\n        dDItems[_udpc].currentOwner = msg.sender;\n        dDItems[_udpc].manufacturers.owner = msg.sender;\n\n        emit DrugDesignPurchased(_udpc);\n    }\n\n    /// Function to open partnership for manufacturer\n    function openManufactPartnership(uint _udpc, uint _shares)\n        public\n        isApproved(_udpc)\n        onlyOwnerOf(_udpc)\n    {\n        require(_shares <= 100, \"Most be less than %100\");\n        dDItems[_udpc].manufacturers.defultSharesPresntage = _shares;\n        dDItems[_udpc].manufacturers.state = Partnerships.PartnershipState.Opened;\n\n        emit UpForPartnered(_udpc);\n    }\n\n    /// Function to build a manufacturer partner contract\n    function buildPartnerContract(uint _udpc, string memory _name)\n        public\n        isApproved(_udpc)\n        isPartnerOpened(_udpc)\n    {\n        dDItems[_udpc].manufacturers.add(msg.sender, _name, 0);\n\n        emit PartnerGained(_udpc);\n    }\n\n    /// Function to close manufacturer partnership\n    function closeManufactPartnership(uint _udpc)\n        public\n        onlyOwnerOf(_udpc)\n        isPartnerOpened(_udpc)\n    {\n        dDItems[_udpc].manufacturers.state = Partnerships.PartnershipState.Closed;\n        dDItems[_udpc].manufacturers.defultSharesPresntage = 0;\n\n        emit PartnerClosed(_udpc);\n    }\n\n    /// Function to open partnership for manufacturer\n    function restrictManufactPartnership(uint _udpc)\n        public\n        isApproved(_udpc)\n        onlyOwnerOf(_udpc)\n    {\n        dDItems[_udpc].manufacturers.state = Partnerships.PartnershipState.Restricted;\n\n        emit UpForRestrictPartnered(_udpc);\n    }\n\n    /// Function to build a manufacturer partner contract by the currentOwner when its restracted\n    function buildRestrictPartnerContract(\n        uint _udpc,\n        address payable _partner,\n        string memory _name,\n        uint _shares\n    )\n        public\n        isApproved(_udpc)\n        onlyOwnerOf(_udpc)\n        isPartnerRestricted(_udpc)\n    {\n        require(_shares <= 100, \"Most be less than %100\");\n        dDItems[_udpc].manufacturers.add(_partner, _name, _shares);\n\n        emit RestrictPartnerTransfered(_udpc, _partner);\n    }\n\n    function fetchDrugDesignData(uint _udpc) \n        external \n        view \n        returns(\n            address currentOwner,\n            address designerId,\n            string memory designerName,\n            string memory drugName,\n            string memory currentState,\n            bool forSale,\n            uint salePrice,\n            string memory partnershipState,\n            uint partnershipShares,\n            uint numberOfTests,\n            uint numberOfManufacturers\n        )\n    {\n        require(_udpc <= udpc, 'Given UDPC Not Created Yet!');\n        currentOwner = dDItems[_udpc].currentOwner;\n        designerId = dDItems[_udpc].designerId;\n        designerName = dDItems[_udpc].designerName;\n        drugName = dDItems[_udpc].metaData.name;\n\n        if (dDItems[_udpc].state == DrugDesignState.Owned)\n            currentState = 'Created';\n        else if (dDItems[_udpc].state == DrugDesignState.Tested)\n            currentState = 'Tested';\n        else if (dDItems[_udpc].state == DrugDesignState.Approved)\n            currentState = 'Approved';\n        else if (dDItems[_udpc].state == DrugDesignState.ForSale)\n            currentState = 'ForSale';\n        else if (dDItems[_udpc].state == DrugDesignState.ForSale)\n            currentState = 'ForSale';\n\n        partnershipState = dDItems[_udpc].manufacturers.partnershipState();\n        partnershipShares = dDItems[_udpc].manufacturers.defultSharesPresntage;\n\n        forSale = (dDItems[_udpc].salePrice != 0);\n        salePrice = dDItems[_udpc].salePrice;\n\n        numberOfTests = dDItems[_udpc].testIndexed;\n        numberOfManufacturers = dDItems[_udpc].manufacturers.numberOfActive();\n    }\n\n    function featchDrugDesignMetaData(uint _udpc) \n        external\n        view\n        returns(\n            string memory name,\n            string memory description,\n            string memory notes\n        )\n    {\n        require(_udpc <= udpc, 'Given UDPC Not Created Yet!');\n        (name, description, notes) = (\n            dDItems[_udpc].metaData.name,\n            dDItems[_udpc].metaData.description,\n            dDItems[_udpc].metaData.notes\n        );\n    }\n\n    function featchDrugDesignTestCases(uint _udpc, uint _testIndex) \n        external\n        view\n        returns(\n            string memory description,\n            bool isPassed, \n            string  memory notes\n        )\n    {\n        require(_udpc <= udpc, 'Given UDPC Not Created Yet!');\n        require(_testIndex < dDItems[_udpc].testIndexed, 'Test Case Not Created Yet!');\n        \n        (description, isPassed, notes) = (\n            dDItems[_udpc].testCases[_testIndex].description,\n            dDItems[_udpc].testCases[_testIndex].isPassed,\n            dDItems[_udpc].testCases[_testIndex].notes\n        );\n        \n    }\n\n    function isManufacturerOf(uint _udpc, address _manufacturerId) external view returns(bool) {\n        return dDItems[_udpc].manufacturers.has(_manufacturerId);\n    }\n\n    function manufacturerSharesOf(uint _udpc, address _manufacturerId) external view returns(uint) {\n        return dDItems[_udpc].manufacturers.sharesOf(_manufacturerId);\n    }\n\n\n\n}\n",
  "sourcePath": "/home/rajat/Desktop/ethereum/drug-supply-chain/contracts/Base/Storage/DrugDesign.sol",
  "compiler": {
    "name": "solc",
    "version": "0.5.0+commit.1d4f565a.Emscripten.clang"
  },
  "schemaVersion": "3.0.23",
  "updatedAt": "2020-02-18T22:31:33.464Z",
  "devdoc": {
    "author": "Khalid F.Sh",
    "methods": {},
    "title": "Drug Design Chain Contract"
  },
  "userdoc": {
    "methods": {
      "addTestCase(uint256,string,bool,string)": {
        "notice": "Add Test Case for Drug Design by currentOwner"
      },
      "approveDrug(uint256)": {
        "notice": "Function to approve drug by a regulator only"
      },
      "buildPartnerContract(uint256,string)": {
        "notice": "Function to build a manufacturer partner contract"
      },
      "buildRestrictPartnerContract(uint256,address,string,uint256)": {
        "notice": "Function to build a manufacturer partner contract by the currentOwner when its restracted"
      },
      "closeManufactPartnership(uint256)": {
        "notice": "Function to close manufacturer partnership"
      },
      "constructor": "Constructor Function sets up UDPC to 0",
      "designDrug(string,string,string,string)": {
        "notice": "Function helps Designer to estaplish a new Drug Design"
      },
      "openManufactPartnership(uint256,uint256)": {
        "notice": "Function to open partnership for manufacturer"
      },
      "purchaseDrugDesign(uint256)": {
        "notice": "Function to purchase a drug design"
      },
      "restrictManufactPartnership(uint256)": {
        "notice": "Function to open partnership for manufacturer"
      },
      "upForSale(uint256,uint256)": {
        "notice": "Function to sale a drug design"
      }
    }
  }
}