{
  "contractName": "MainChain",
  "abi": [
    {
      "constant": true,
      "inputs": [
        {
          "name": "_udpc",
          "type": "uint256"
        },
        {
          "name": "_manufacturerId",
          "type": "address"
        }
      ],
      "name": "isManufacturerOf",
      "outputs": [
        {
          "name": "",
          "type": "bool"
        }
      ],
      "payable": false,
      "stateMutability": "view",
      "type": "function"
    },
    {
      "constant": false,
      "inputs": [],
      "name": "renounceMeFromConsumer",
      "outputs": [],
      "payable": false,
      "stateMutability": "nonpayable",
      "type": "function"
    },
    {
      "constant": false,
      "inputs": [
        {
          "name": "_udpc",
          "type": "uint256"
        }
      ],
      "name": "approveDrug",
      "outputs": [],
      "payable": false,
      "stateMutability": "nonpayable",
      "type": "function"
    },
    {
      "constant": true,
      "inputs": [
        {
          "name": "account",
          "type": "address"
        }
      ],
      "name": "isManufacturer",
      "outputs": [
        {
          "name": "",
          "type": "bool"
        }
      ],
      "payable": false,
      "stateMutability": "view",
      "type": "function"
    },
    {
      "constant": true,
      "inputs": [],
      "name": "amIRetailer",
      "outputs": [
        {
          "name": "",
          "type": "bool"
        }
      ],
      "payable": false,
      "stateMutability": "view",
      "type": "function"
    },
    {
      "constant": false,
      "inputs": [
        {
          "name": "_udpc",
          "type": "uint256"
        },
        {
          "name": "_description",
          "type": "string"
        },
        {
          "name": "_isPassed",
          "type": "bool"
        },
        {
          "name": "_notes",
          "type": "string"
        }
      ],
      "name": "addTestCase",
      "outputs": [],
      "payable": false,
      "stateMutability": "nonpayable",
      "type": "function"
    },
    {
      "constant": false,
      "inputs": [
        {
          "name": "recipient",
          "type": "address"
        }
      ],
      "name": "transferPrimary",
      "outputs": [],
      "payable": false,
      "stateMutability": "nonpayable",
      "type": "function"
    },
    {
      "constant": true,
      "inputs": [],
      "name": "amIRegulator",
      "outputs": [
        {
          "name": "",
          "type": "bool"
        }
      ],
      "payable": false,
      "stateMutability": "view",
      "type": "function"
    },
    {
      "constant": false,
      "inputs": [
        {
          "name": "_udpc",
          "type": "uint256"
        }
      ],
      "name": "restrictManufactPartnership",
      "outputs": [],
      "payable": false,
      "stateMutability": "nonpayable",
      "type": "function"
    },
    {
      "constant": false,
      "inputs": [],
      "name": "unpause",
      "outputs": [],
      "payable": false,
      "stateMutability": "nonpayable",
      "type": "function"
    },
    {
      "constant": true,
      "inputs": [
        {
          "name": "_udpc",
          "type": "uint256"
        },
        {
          "name": "_manufacturerId",
          "type": "address"
        }
      ],
      "name": "manufacturerSharesOf",
      "outputs": [
        {
          "name": "",
          "type": "uint256"
        }
      ],
      "payable": false,
      "stateMutability": "view",
      "type": "function"
    },
    {
      "constant": false,
      "inputs": [
        {
          "name": "_designerName",
          "type": "string"
        },
        {
          "name": "_drugName",
          "type": "string"
        },
        {
          "name": "_description",
          "type": "string"
        },
        {
          "name": "_notes",
          "type": "string"
        }
      ],
      "name": "designDrug",
      "outputs": [],
      "payable": false,
      "stateMutability": "nonpayable",
      "type": "function"
    },
    {
      "constant": false,
      "inputs": [
        {
          "name": "_udpc",
          "type": "uint256"
        },
        {
          "name": "_description",
          "type": "string"
        },
        {
          "name": "_isPassed",
          "type": "bool"
        },
        {
          "name": "_notes",
          "type": "string"
        }
      ],
      "name": "addTestCaseByRegulaor",
      "outputs": [],
      "payable": false,
      "stateMutability": "nonpayable",
      "type": "function"
    },
    {
      "constant": true,
      "inputs": [
        {
          "name": "_udpc",
          "type": "uint256"
        }
      ],
      "name": "featchDrugDesignMetaData",
      "outputs": [
        {
          "name": "name",
          "type": "string"
        },
        {
          "name": "description",
          "type": "string"
        },
        {
          "name": "notes",
          "type": "string"
        }
      ],
      "payable": false,
      "stateMutability": "view",
      "type": "function"
    },
    {
      "constant": true,
      "inputs": [
        {
          "name": "account",
          "type": "address"
        }
      ],
      "name": "isPauser",
      "outputs": [
        {
          "name": "",
          "type": "bool"
        }
      ],
      "payable": false,
      "stateMutability": "view",
      "type": "function"
    },
    {
      "constant": false,
      "inputs": [],
      "name": "assignMeAsManufacturer",
      "outputs": [],
      "payable": false,
      "stateMutability": "nonpayable",
      "type": "function"
    },
    {
      "constant": false,
      "inputs": [
        {
          "name": "_udpc",
          "type": "uint256"
        },
        {
          "name": "quantity",
          "type": "uint256"
        }
      ],
      "name": "manufacturDrugsLoud",
      "outputs": [],
      "payable": false,
      "stateMutability": "nonpayable",
      "type": "function"
    },
    {
      "constant": true,
      "inputs": [
        {
          "name": "account",
          "type": "address"
        }
      ],
      "name": "isRegulator",
      "outputs": [
        {
          "name": "",
          "type": "bool"
        }
      ],
      "payable": false,
      "stateMutability": "view",
      "type": "function"
    },
    {
      "constant": false,
      "inputs": [],
      "name": "renounceMeFromDistributor",
      "outputs": [],
      "payable": false,
      "stateMutability": "nonpayable",
      "type": "function"
    },
    {
      "constant": true,
      "inputs": [],
      "name": "paused",
      "outputs": [
        {
          "name": "",
          "type": "bool"
        }
      ],
      "payable": false,
      "stateMutability": "view",
      "type": "function"
    },
    {
      "constant": true,
      "inputs": [
        {
          "name": "account",
          "type": "address"
        }
      ],
      "name": "isRetailer",
      "outputs": [
        {
          "name": "",
          "type": "bool"
        }
      ],
      "payable": false,
      "stateMutability": "view",
      "type": "function"
    },
    {
      "constant": true,
      "inputs": [],
      "name": "amIDesigner",
      "outputs": [
        {
          "name": "",
          "type": "bool"
        }
      ],
      "payable": false,
      "stateMutability": "view",
      "type": "function"
    },
    {
      "constant": false,
      "inputs": [
        {
          "name": "_udpc",
          "type": "uint256"
        },
        {
          "name": "_shares",
          "type": "uint256"
        }
      ],
      "name": "openManufactPartnership",
      "outputs": [],
      "payable": false,
      "stateMutability": "nonpayable",
      "type": "function"
    },
    {
      "constant": false,
      "inputs": [
        {
          "name": "_slu",
          "type": "uint256"
        },
        {
          "name": "_humidity",
          "type": "uint256"
        },
        {
          "name": "_temprture",
          "type": "uint256"
        }
      ],
      "name": "updateDrugsLoudStockEnv",
      "outputs": [],
      "payable": false,
      "stateMutability": "nonpayable",
      "type": "function"
    },
    {
      "constant": false,
      "inputs": [],
      "name": "renounceMeFromRetailer",
      "outputs": [],
      "payable": false,
      "stateMutability": "nonpayable",
      "type": "function"
    },
    {
      "constant": false,
      "inputs": [],
      "name": "renouncePauser",
      "outputs": [],
      "payable": false,
      "stateMutability": "nonpayable",
      "type": "function"
    },
    {
      "constant": false,
      "inputs": [],
      "name": "renounceOwnership",
      "outputs": [],
      "payable": false,
      "stateMutability": "nonpayable",
      "type": "function"
    },
    {
      "constant": false,
      "inputs": [
        {
          "name": "_slu",
          "type": "uint256"
        },
        {
          "name": "_humidity",
          "type": "uint256"
        },
        {
          "name": "_temprture",
          "type": "uint256"
        }
      ],
      "name": "updateDrugsLoudShippmentEnv",
      "outputs": [],
      "payable": false,
      "stateMutability": "nonpayable",
      "type": "function"
    },
    {
      "constant": false,
      "inputs": [
        {
          "name": "_udpc",
          "type": "uint256"
        },
        {
          "name": "_price",
          "type": "uint256"
        }
      ],
      "name": "upForSale",
      "outputs": [],
      "payable": false,
      "stateMutability": "nonpayable",
      "type": "function"
    },
    {
      "constant": false,
      "inputs": [
        {
          "name": "account",
          "type": "address"
        }
      ],
      "name": "addPauser",
      "outputs": [],
      "payable": false,
      "stateMutability": "nonpayable",
      "type": "function"
    },
    {
      "constant": true,
      "inputs": [
        {
          "name": "account",
          "type": "address"
        }
      ],
      "name": "isConsumer",
      "outputs": [
        {
          "name": "",
          "type": "bool"
        }
      ],
      "payable": false,
      "stateMutability": "view",
      "type": "function"
    },
    {
      "constant": false,
      "inputs": [],
      "name": "pause",
      "outputs": [],
      "payable": false,
      "stateMutability": "nonpayable",
      "type": "function"
    },
    {
      "constant": false,
      "inputs": [],
      "name": "renounceMeFromRegulator",
      "outputs": [],
      "payable": false,
      "stateMutability": "nonpayable",
      "type": "function"
    },
    {
      "constant": true,
      "inputs": [],
      "name": "owner",
      "outputs": [
        {
          "name": "",
          "type": "address"
        }
      ],
      "payable": false,
      "stateMutability": "view",
      "type": "function"
    },
    {
      "constant": true,
      "inputs": [
        {
          "name": "account",
          "type": "address"
        }
      ],
      "name": "isDistributor",
      "outputs": [
        {
          "name": "",
          "type": "bool"
        }
      ],
      "payable": false,
      "stateMutability": "view",
      "type": "function"
    },
    {
      "constant": true,
      "inputs": [],
      "name": "isOwner",
      "outputs": [
        {
          "name": "",
          "type": "bool"
        }
      ],
      "payable": false,
      "stateMutability": "view",
      "type": "function"
    },
    {
      "constant": true,
      "inputs": [],
      "name": "amIConsumer",
      "outputs": [
        {
          "name": "",
          "type": "bool"
        }
      ],
      "payable": false,
      "stateMutability": "view",
      "type": "function"
    },
    {
      "constant": false,
      "inputs": [
        {
          "name": "_udpc",
          "type": "uint256"
        }
      ],
      "name": "purchaseDrugDesign",
      "outputs": [],
      "payable": true,
      "stateMutability": "payable",
      "type": "function"
    },
    {
      "constant": false,
      "inputs": [
        {
          "name": "_udpc",
          "type": "uint256"
        },
        {
          "name": "_name",
          "type": "string"
        }
      ],
      "name": "buildPartnerContract",
      "outputs": [],
      "payable": false,
      "stateMutability": "nonpayable",
      "type": "function"
    },
    {
      "constant": false,
      "inputs": [],
      "name": "renounceMeFromManufacturer",
      "outputs": [],
      "payable": false,
      "stateMutability": "nonpayable",
      "type": "function"
    },
    {
      "constant": false,
      "inputs": [],
      "name": "assignMeAsDesigner",
      "outputs": [],
      "payable": false,
      "stateMutability": "nonpayable",
      "type": "function"
    },
    {
      "constant": true,
      "inputs": [
        {
          "name": "account",
          "type": "address"
        }
      ],
      "name": "isDesigner",
      "outputs": [
        {
          "name": "",
          "type": "bool"
        }
      ],
      "payable": false,
      "stateMutability": "view",
      "type": "function"
    },
    {
      "constant": true,
      "inputs": [
        {
          "name": "_pku",
          "type": "uint256"
        }
      ],
      "name": "fetchEnvHistory",
      "outputs": [
        {
          "name": "numberOfupdate",
          "type": "uint256"
        },
        {
          "name": "timeStamps",
          "type": "uint256[]"
        },
        {
          "name": "temprtures",
          "type": "uint256[]"
        },
        {
          "name": "humiditys",
          "type": "uint256[]"
        },
        {
          "name": "updaterAddresses",
          "type": "address[]"
        }
      ],
      "payable": false,
      "stateMutability": "view",
      "type": "function"
    },
    {
      "constant": false,
      "inputs": [
        {
          "name": "account",
          "type": "address"
        }
      ],
      "name": "addRegulator",
      "outputs": [],
      "payable": false,
      "stateMutability": "nonpayable",
      "type": "function"
    },
    {
      "constant": false,
      "inputs": [
        {
          "name": "_slu",
          "type": "uint256"
        }
      ],
      "name": "shipDrugsLoud",
      "outputs": [],
      "payable": false,
      "stateMutability": "nonpayable",
      "type": "function"
    },
    {
      "constant": false,
      "inputs": [
        {
          "name": "_slu",
          "type": "uint256"
        },
        {
          "name": "_unitPrice",
          "type": "uint256"
        }
      ],
      "name": "addDrugsLoud",
      "outputs": [],
      "payable": false,
      "stateMutability": "nonpayable",
      "type": "function"
    },
    {
      "constant": false,
      "inputs": [
        {
          "name": "_slu",
          "type": "uint256"
        }
      ],
      "name": "packDrugsLoud",
      "outputs": [],
      "payable": false,
      "stateMutability": "nonpayable",
      "type": "function"
    },
    {
      "constant": false,
      "inputs": [],
      "name": "assignMeAsDistributor",
      "outputs": [],
      "payable": false,
      "stateMutability": "nonpayable",
      "type": "function"
    },
    {
      "constant": true,
      "inputs": [],
      "name": "primary",
      "outputs": [
        {
          "name": "",
          "type": "address"
        }
      ],
      "payable": false,
      "stateMutability": "view",
      "type": "function"
    },
    {
      "constant": true,
      "inputs": [
        {
          "name": "_udpc",
          "type": "uint256"
        },
        {
          "name": "_testIndex",
          "type": "uint256"
        }
      ],
      "name": "featchDrugDesignTestCases",
      "outputs": [
        {
          "name": "description",
          "type": "string"
        },
        {
          "name": "isPassed",
          "type": "bool"
        },
        {
          "name": "notes",
          "type": "string"
        }
      ],
      "payable": false,
      "stateMutability": "view",
      "type": "function"
    },
    {
      "constant": false,
      "inputs": [],
      "name": "assignMeAsConsumer",
      "outputs": [],
      "payable": false,
      "stateMutability": "nonpayable",
      "type": "function"
    },
    {
      "constant": true,
      "inputs": [],
      "name": "amIDistributor",
      "outputs": [
        {
          "name": "",
          "type": "bool"
        }
      ],
      "payable": false,
      "stateMutability": "view",
      "type": "function"
    },
    {
      "constant": false,
      "inputs": [
        {
          "name": "_slu",
          "type": "uint256"
        }
      ],
      "name": "receiveDrugsLoud",
      "outputs": [],
      "payable": false,
      "stateMutability": "nonpayable",
      "type": "function"
    },
    {
      "constant": true,
      "inputs": [
        {
          "name": "_slu",
          "type": "uint256"
        }
      ],
      "name": "fetchLoudPKUs",
      "outputs": [
        {
          "name": "loadPKUs",
          "type": "uint256[]"
        }
      ],
      "payable": false,
      "stateMutability": "view",
      "type": "function"
    },
    {
      "constant": true,
      "inputs": [
        {
          "name": "_slu",
          "type": "uint256"
        }
      ],
      "name": "fetchDrugLoaudData",
      "outputs": [
        {
          "name": "quantity",
          "type": "uint256"
        },
        {
          "name": "_udpc",
          "type": "uint256"
        },
        {
          "name": "state",
          "type": "string"
        },
        {
          "name": "currentOwner",
          "type": "address"
        },
        {
          "name": "manufacturerId",
          "type": "address"
        },
        {
          "name": "deistributorId",
          "type": "address"
        },
        {
          "name": "retailerId",
          "type": "address"
        },
        {
          "name": "price",
          "type": "uint256"
        }
      ],
      "payable": false,
      "stateMutability": "view",
      "type": "function"
    },
    {
      "constant": true,
      "inputs": [],
      "name": "whoAmI",
      "outputs": [
        {
          "name": "consumer",
          "type": "bool"
        },
        {
          "name": "retailer",
          "type": "bool"
        },
        {
          "name": "distributor",
          "type": "bool"
        },
        {
          "name": "manufacturer",
          "type": "bool"
        },
        {
          "name": "regulator",
          "type": "bool"
        },
        {
          "name": "designer",
          "type": "bool"
        }
      ],
      "payable": false,
      "stateMutability": "view",
      "type": "function"
    },
    {
      "constant": true,
      "inputs": [],
      "name": "amIManufacturer",
      "outputs": [
        {
          "name": "",
          "type": "bool"
        }
      ],
      "payable": false,
      "stateMutability": "view",
      "type": "function"
    },
    {
      "constant": false,
      "inputs": [
        {
          "name": "_udpc",
          "type": "uint256"
        },
        {
          "name": "_partner",
          "type": "address"
        },
        {
          "name": "_name",
          "type": "string"
        },
        {
          "name": "_shares",
          "type": "uint256"
        }
      ],
      "name": "buildRestrictPartnerContract",
      "outputs": [],
      "payable": false,
      "stateMutability": "nonpayable",
      "type": "function"
    },
    {
      "constant": false,
      "inputs": [
        {
          "name": "_udpc",
          "type": "uint256"
        }
      ],
      "name": "closeManufactPartnership",
      "outputs": [],
      "payable": false,
      "stateMutability": "nonpayable",
      "type": "function"
    },
    {
      "constant": true,
      "inputs": [
        {
          "name": "_pku",
          "type": "uint256"
        }
      ],
      "name": "fetchDrugItemData",
      "outputs": [
        {
          "name": "_udpc",
          "type": "uint256"
        },
        {
          "name": "_slu",
          "type": "uint256"
        },
        {
          "name": "state",
          "type": "string"
        },
        {
          "name": "currentOwner",
          "type": "address"
        },
        {
          "name": "manufacturerId",
          "type": "address"
        },
        {
          "name": "deistributorId",
          "type": "address"
        },
        {
          "name": "retailerId",
          "type": "address"
        },
        {
          "name": "price",
          "type": "uint256"
        },
        {
          "name": "packingTimeStamp",
          "type": "uint256"
        },
        {
          "name": "numberOfEnvUpdate",
          "type": "uint256"
        }
      ],
      "payable": false,
      "stateMutability": "view",
      "type": "function"
    },
    {
      "constant": false,
      "inputs": [],
      "name": "renounceMeFromDesigner",
      "outputs": [],
      "payable": false,
      "stateMutability": "nonpayable",
      "type": "function"
    },
    {
      "constant": false,
      "inputs": [],
      "name": "assignMeAsRetailer",
      "outputs": [],
      "payable": false,
      "stateMutability": "nonpayable",
      "type": "function"
    },
    {
      "constant": false,
      "inputs": [
        {
          "name": "newOwner",
          "type": "address"
        }
      ],
      "name": "transferOwnership",
      "outputs": [],
      "payable": false,
      "stateMutability": "nonpayable",
      "type": "function"
    },
    {
      "constant": false,
      "inputs": [
        {
          "name": "_slu",
          "type": "uint256"
        },
        {
          "name": "_receiver",
          "type": "address"
        }
      ],
      "name": "buyDrugsLoud",
      "outputs": [],
      "payable": true,
      "stateMutability": "payable",
      "type": "function"
    },
    {
      "constant": true,
      "inputs": [
        {
          "name": "_udpc",
          "type": "uint256"
        }
      ],
      "name": "fetchDrugDesignData",
      "outputs": [
        {
          "name": "currentOwner",
          "type": "address"
        },
        {
          "name": "designerId",
          "type": "address"
        },
        {
          "name": "designerName",
          "type": "string"
        },
        {
          "name": "drugName",
          "type": "string"
        },
        {
          "name": "currentState",
          "type": "string"
        },
        {
          "name": "forSale",
          "type": "bool"
        },
        {
          "name": "salePrice",
          "type": "uint256"
        },
        {
          "name": "partnershipState",
          "type": "string"
        },
        {
          "name": "partnershipShares",
          "type": "uint256"
        },
        {
          "name": "numberOfTests",
          "type": "uint256"
        },
        {
          "name": "numberOfManufacturers",
          "type": "uint256"
        }
      ],
      "payable": false,
      "stateMutability": "view",
      "type": "function"
    },
    {
      "inputs": [],
      "payable": false,
      "stateMutability": "nonpayable",
      "type": "constructor"
    },
    {
      "anonymous": false,
      "inputs": [
        {
          "indexed": false,
          "name": "recipient",
          "type": "address"
        }
      ],
      "name": "PrimaryTransferred",
      "type": "event"
    },
    {
      "anonymous": false,
      "inputs": [
        {
          "indexed": true,
          "name": "previousOwner",
          "type": "address"
        },
        {
          "indexed": true,
          "name": "newOwner",
          "type": "address"
        }
      ],
      "name": "OwnershipTransferred",
      "type": "event"
    },
    {
      "anonymous": false,
      "inputs": [
        {
          "indexed": false,
          "name": "slu",
          "type": "uint256"
        }
      ],
      "name": "Manufactured",
      "type": "event"
    },
    {
      "anonymous": false,
      "inputs": [
        {
          "indexed": false,
          "name": "slu",
          "type": "uint256"
        }
      ],
      "name": "Packed",
      "type": "event"
    },
    {
      "anonymous": false,
      "inputs": [
        {
          "indexed": false,
          "name": "slu",
          "type": "uint256"
        }
      ],
      "name": "ForSale",
      "type": "event"
    },
    {
      "anonymous": false,
      "inputs": [
        {
          "indexed": false,
          "name": "slu",
          "type": "uint256"
        }
      ],
      "name": "Sold",
      "type": "event"
    },
    {
      "anonymous": false,
      "inputs": [
        {
          "indexed": false,
          "name": "slu",
          "type": "uint256"
        }
      ],
      "name": "Shipped",
      "type": "event"
    },
    {
      "anonymous": false,
      "inputs": [
        {
          "indexed": false,
          "name": "slu",
          "type": "uint256"
        }
      ],
      "name": "EnvUpdated",
      "type": "event"
    },
    {
      "anonymous": false,
      "inputs": [
        {
          "indexed": false,
          "name": "slu",
          "type": "uint256"
        }
      ],
      "name": "Received",
      "type": "event"
    },
    {
      "anonymous": false,
      "inputs": [
        {
          "indexed": false,
          "name": "pku",
          "type": "uint256"
        }
      ],
      "name": "Purchased",
      "type": "event"
    },
    {
      "anonymous": false,
      "inputs": [
        {
          "indexed": false,
          "name": "udpc",
          "type": "uint256"
        }
      ],
      "name": "Owned",
      "type": "event"
    },
    {
      "anonymous": false,
      "inputs": [
        {
          "indexed": false,
          "name": "udpc",
          "type": "uint256"
        }
      ],
      "name": "TestCaseAdded",
      "type": "event"
    },
    {
      "anonymous": false,
      "inputs": [
        {
          "indexed": false,
          "name": "udpc",
          "type": "uint256"
        }
      ],
      "name": "Approved",
      "type": "event"
    },
    {
      "anonymous": false,
      "inputs": [
        {
          "indexed": false,
          "name": "udpc",
          "type": "uint256"
        }
      ],
      "name": "UpForSale",
      "type": "event"
    },
    {
      "anonymous": false,
      "inputs": [
        {
          "indexed": false,
          "name": "udpc",
          "type": "uint256"
        }
      ],
      "name": "DrugDesignPurchased",
      "type": "event"
    },
    {
      "anonymous": false,
      "inputs": [
        {
          "indexed": false,
          "name": "udpc",
          "type": "uint256"
        }
      ],
      "name": "SaleCanceled",
      "type": "event"
    },
    {
      "anonymous": false,
      "inputs": [
        {
          "indexed": false,
          "name": "udpc",
          "type": "uint256"
        }
      ],
      "name": "UpForPartnered",
      "type": "event"
    },
    {
      "anonymous": false,
      "inputs": [
        {
          "indexed": false,
          "name": "udpc",
          "type": "uint256"
        }
      ],
      "name": "UpForRestrictPartnered",
      "type": "event"
    },
    {
      "anonymous": false,
      "inputs": [
        {
          "indexed": false,
          "name": "udpc",
          "type": "uint256"
        }
      ],
      "name": "PartnerGained",
      "type": "event"
    },
    {
      "anonymous": false,
      "inputs": [
        {
          "indexed": false,
          "name": "udpc",
          "type": "uint256"
        },
        {
          "indexed": false,
          "name": "partner",
          "type": "address"
        }
      ],
      "name": "RestrictPartnerTransfered",
      "type": "event"
    },
    {
      "anonymous": false,
      "inputs": [
        {
          "indexed": false,
          "name": "udpc",
          "type": "uint256"
        }
      ],
      "name": "PartnerClosed",
      "type": "event"
    },
    {
      "anonymous": false,
      "inputs": [
        {
          "indexed": false,
          "name": "account",
          "type": "address"
        }
      ],
      "name": "Paused",
      "type": "event"
    },
    {
      "anonymous": false,
      "inputs": [
        {
          "indexed": false,
          "name": "account",
          "type": "address"
        }
      ],
      "name": "Unpaused",
      "type": "event"
    },
    {
      "anonymous": false,
      "inputs": [
        {
          "indexed": true,
          "name": "account",
          "type": "address"
        }
      ],
      "name": "PauserAdded",
      "type": "event"
    },
    {
      "anonymous": false,
      "inputs": [
        {
          "indexed": true,
          "name": "account",
          "type": "address"
        }
      ],
      "name": "PauserRemoved",
      "type": "event"
    },
    {
      "anonymous": false,
      "inputs": [
        {
          "indexed": true,
          "name": "account",
          "type": "address"
        }
      ],
      "name": "RetailerAdded",
      "type": "event"
    },
    {
      "anonymous": false,
      "inputs": [
        {
          "indexed": true,
          "name": "account",
          "type": "address"
        }
      ],
      "name": "RetailerRemoved",
      "type": "event"
    },
    {
      "anonymous": false,
      "inputs": [
        {
          "indexed": true,
          "name": "account",
          "type": "address"
        }
      ],
      "name": "RegulatorAdded",
      "type": "event"
    },
    {
      "anonymous": false,
      "inputs": [
        {
          "indexed": true,
          "name": "account",
          "type": "address"
        }
      ],
      "name": "RegulatorRemoved",
      "type": "event"
    },
    {
      "anonymous": false,
      "inputs": [
        {
          "indexed": true,
          "name": "account",
          "type": "address"
        }
      ],
      "name": "DistributorAdded",
      "type": "event"
    },
    {
      "anonymous": false,
      "inputs": [
        {
          "indexed": true,
          "name": "account",
          "type": "address"
        }
      ],
      "name": "DistributorRemoved",
      "type": "event"
    },
    {
      "anonymous": false,
      "inputs": [
        {
          "indexed": true,
          "name": "account",
          "type": "address"
        }
      ],
      "name": "DesignerAdded",
      "type": "event"
    },
    {
      "anonymous": false,
      "inputs": [
        {
          "indexed": true,
          "name": "account",
          "type": "address"
        }
      ],
      "name": "DesignerRemoved",
      "type": "event"
    },
    {
      "anonymous": false,
      "inputs": [
        {
          "indexed": true,
          "name": "account",
          "type": "address"
        }
      ],
      "name": "ManufacturerAdded",
      "type": "event"
    },
    {
      "anonymous": false,
      "inputs": [
        {
          "indexed": true,
          "name": "account",
          "type": "address"
        }
      ],
      "name": "ManufacturerRemoved",
      "type": "event"
    },
    {
      "anonymous": false,
      "inputs": [
        {
          "indexed": true,
          "name": "account",
          "type": "address"
        }
      ],
      "name": "ConsumerAdded",
      "type": "event"
    },
    {
      "anonymous": false,
      "inputs": [
        {
          "indexed": true,
          "name": "account",
          "type": "address"
        }
      ],
      "name": "ConsumerRemoved",
      "type": "event"
    },
    {
      "constant": false,
      "inputs": [],
      "name": "kill",
      "outputs": [],
      "payable": false,
      "stateMutability": "nonpayable",
      "type": "function"
    },
    {
      "constant": false,
      "inputs": [
        {
          "name": "_pku",
          "type": "uint256"
        }
      ],
      "name": "purchaseDrug",
      "outputs": [],
      "payable": true,
      "stateMutability": "payable",
      "type": "function"
    }
  ],
  "bytecode": "0x60806040523480156200001157600080fd5b506200002c3362000285640100000000026401000000009004565b6200004633620002ef640100000000026401000000009004565b620000603362000359640100000000026401000000009004565b6200007a33620003c3640100000000026401000000009004565b62000094336200042d640100000000026401000000009004565b620000ae3362000497640100000000026401000000009004565b620000c83362000501640100000000026401000000009004565b6000600760006101000a81548160ff02191690831515021790555060006008819055506000600b819055506000600a8190555033600e60006101000a81548173ffffffffffffffffffffffffffffffffffffffff021916908373ffffffffffffffffffffffffffffffffffffffff160217905550600e60009054906101000a900473ffffffffffffffffffffffffffffffffffffffff1673ffffffffffffffffffffffffffffffffffffffff16600073ffffffffffffffffffffffffffffffffffffffff167f8be0079c531659141344cd1fd0a4f28419497f9722a3daafe3b4186f6b6457e060405160405180910390a333600f60006101000a81548173ffffffffffffffffffffffffffffffffffffffff021916908373ffffffffffffffffffffffffffffffffffffffff1602179055507f4101e71e974f68df5e9730cc223280b41654676bbb052cdcc735c3337e64d2d9600f60009054906101000a900473ffffffffffffffffffffffffffffffffffffffff16604051808273ffffffffffffffffffffffffffffffffffffffff1673ffffffffffffffffffffffffffffffffffffffff16815260200191505060405180910390a1620006c3565b620002a98160006200056b64010000000002620080a7179091906401000000009004565b8073ffffffffffffffffffffffffffffffffffffffff167f28b26e7a3d20aedbc5f8f2ebf7da671c0491723a2b78f47a097b0e46dee0714260405160405180910390a250565b620003138160016200056b64010000000002620080a7179091906401000000009004565b8073ffffffffffffffffffffffffffffffffffffffff167f561138658ca49a8540dc70dcfe64c9026c1c5b9344642242dd6562970f9c127860405160405180910390a250565b6200037d8160026200056b64010000000002620080a7179091906401000000009004565b8073ffffffffffffffffffffffffffffffffffffffff167f97069a05372df648feb174cc125711b2c72a81450a1ab2769c8faf49917d7fd260405160405180910390a250565b620003e78160036200056b64010000000002620080a7179091906401000000009004565b8073ffffffffffffffffffffffffffffffffffffffff167fddbf200aa634dc3fb81cfd68583dd1040d1c751d335e1d86b631bde3e977fea860405160405180910390a250565b620004518160046200056b64010000000002620080a7179091906401000000009004565b8073ffffffffffffffffffffffffffffffffffffffff167f2860b5ba44f983f8f363ee6eeb3c24cbca3096803fbdd5129b9e253f01cac07660405160405180910390a250565b620004bb8160056200056b64010000000002620080a7179091906401000000009004565b8073ffffffffffffffffffffffffffffffffffffffff167f71ae26cad02663e3d92efd6ec56031a80d74a20c0ab4183faa8bf262261c9baa60405160405180910390a250565b620005258160066200056b64010000000002620080a7179091906401000000009004565b8073ffffffffffffffffffffffffffffffffffffffff167f6719d08c1888103bea251a4ed56406bd0c3e69723c8a1686e017e7bbe159b6f860405160405180910390a250565b600073ffffffffffffffffffffffffffffffffffffffff168173ffffffffffffffffffffffffffffffffffffffff1614151515620005a857600080fd5b620005c382826200062e640100000000026401000000009004565b151515620005d057600080fd5b60018260000160008373ffffffffffffffffffffffffffffffffffffffff1673ffffffffffffffffffffffffffffffffffffffff16815260200190815260200160002060006101000a81548160ff0219169083151502179055505050565b60008073ffffffffffffffffffffffffffffffffffffffff168273ffffffffffffffffffffffffffffffffffffffff16141515156200066c57600080fd5b8260000160008373ffffffffffffffffffffffffffffffffffffffff1673ffffffffffffffffffffffffffffffffffffffff16815260200190815260200160002060009054906101000a900460ff16905092915050565b6185da80620006d36000396000f3fe608060405260043610610317576000357c0100000000000000000000000000000000000000000000000000000000900463ffffffff16806301715f751461031c578063118f74f51461038f5780631395d0f2146103a657806317d4a491146103e15780631d375b0c1461044a5780631e8acbeb146104795780632348238c146105ee57806335c96e971461063f578063374a24091461066e5780633f4ba83a146106a95780633f968f9e146106c057806341c0e1b51461072f578063424ee0db146107465780634314d44d146109d35780634346fac514610b4857806346fbf68e14610cd457806348c149bd14610d3d5780635043ceaf14610d5457806354fc916914610d9957806355edd88b14610e025780635c975abb14610e195780635da09b8814610e485780635ec5b72814610eb157806365c7c33114610ee0578063693082c414610f2557806369d095c114610f745780636ef8d66d14610f8b578063715018a614610fa2578063719c2e5214610fb9578063784167af1461100857806382dc1ec41461104d578063834ff7391461109e57806383be91e5146111075780638456cb5914611135578063879581ba1461114c5780638da5cb5b146111635780638f0c86fa146111ba5780638f32d59b146112235780639af687a6146112525780639ce6f51c146112815780639f179682146112af578063a40e210f14611381578063a4a418b114611398578063a4f03e23146113af578063a7d2504014611418578063ac63f3c714611587578063b442510b146115d8578063b635053614611613578063c3c7b82c14611658578063c4f2201114611693578063c6dbdf61146116aa578063c7bead1e14611701578063c82d9afc14611836578063cf1966711461184d578063d33102971461187c578063d8f271a9146118b7578063d8fcc6f814611947578063da91254c14611adc578063e1d6f86f14611b42578063e32ba99514611b71578063e63d2ee914611c6d578063e716a4d714611ca8578063eda0baa814611e4b578063ef20147714611e62578063f2fde38b14611e79578063fb32211114611eca578063fc42925214611f18575b600080fd5b34801561032857600080fd5b506103756004803603604081101561033f57600080fd5b8101908080359060200190929190803573ffffffffffffffffffffffffffffffffffffffff16906020019092919050505061219d565b604051808215151515815260200191505060405180910390f35b34801561039b57600080fd5b506103a46121cf565b005b3480156103b257600080fd5b506103df600480360360208110156103c957600080fd5b81019080803590602001909291905050506121da565b005b3480156103ed57600080fd5b506104306004803603602081101561040457600080fd5b81019080803573ffffffffffffffffffffffffffffffffffffffff16906020019092919050505061227f565b604051808215151515815260200191505060405180910390f35b34801561045657600080fd5b5061045f61229c565b604051808215151515815260200191505060405180910390f35b34801561048557600080fd5b506105ec6004803603608081101561049c57600080fd5b8101908080359060200190929190803590602001906401000000008111156104c357600080fd5b8201836020820111156104d557600080fd5b803590602001918460018302840111640100000000831117156104f757600080fd5b91908080601f016020809104026020016040519081016040528093929190818152602001838380828437600081840152601f19601f8201169050808301925050505050505091929192908035151590602001909291908035906020019064010000000081111561056657600080fd5b82018360208201111561057857600080fd5b8035906020019184600183028401116401000000008311171561059a57600080fd5b91908080601f016020809104026020016040519081016040528093929190818152602001838380828437600081840152601f19601f8201169050808301925050505050505091929192905050506122b7565b005b3480156105fa57600080fd5b5061063d6004803603602081101561061157600080fd5b81019080803573ffffffffffffffffffffffffffffffffffffffff1690602001909291905050506125b8565b005b34801561064b57600080fd5b50610654612719565b604051808215151515815260200191505060405180910390f35b34801561067a57600080fd5b506106a76004803603602081101561069157600080fd5b8101908080359060200190929190505050612734565b005b3480156106b557600080fd5b506106be612865565b005b3480156106cc57600080fd5b50610719600480360360408110156106e357600080fd5b8101908080359060200190929190803573ffffffffffffffffffffffffffffffffffffffff169060200190929190505050612914565b6040518082815260200191505060405180910390f35b34801561073b57600080fd5b50610744612946565b005b34801561075257600080fd5b506109d16004803603608081101561076957600080fd5b810190808035906020019064010000000081111561078657600080fd5b82018360208201111561079857600080fd5b803590602001918460018302840111640100000000831117156107ba57600080fd5b91908080601f016020809104026020016040519081016040528093929190818152602001838380828437600081840152601f19601f8201169050808301925050505050505091929192908035906020019064010000000081111561081d57600080fd5b82018360208201111561082f57600080fd5b8035906020019184600183028401116401000000008311171561085157600080fd5b91908080601f016020809104026020016040519081016040528093929190818152602001838380828437600081840152601f19601f820116905080830192505050505050509192919290803590602001906401000000008111156108b457600080fd5b8201836020820111156108c657600080fd5b803590602001918460018302840111640100000000831117156108e857600080fd5b91908080601f016020809104026020016040519081016040528093929190818152602001838380828437600081840152601f19601f8201169050808301925050505050505091929192908035906020019064010000000081111561094b57600080fd5b82018360208201111561095d57600080fd5b8035906020019184600183028401116401000000008311171561097f57600080fd5b91908080601f016020809104026020016040519081016040528093929190818152602001838380828437600081840152601f19601f820116905080830192505050505050509192919290505050612972565b005b3480156109df57600080fd5b50610b46600480360360808110156109f657600080fd5b810190808035906020019092919080359060200190640100000000811115610a1d57600080fd5b820183602082011115610a2f57600080fd5b80359060200191846001830284011164010000000083111715610a5157600080fd5b91908080601f016020809104026020016040519081016040528093929190818152602001838380828437600081840152601f19601f82011690508083019250505050505050919291929080351515906020019092919080359060200190640100000000811115610ac057600080fd5b820183602082011115610ad257600080fd5b80359060200191846001830284011164010000000083111715610af457600080fd5b91908080601f016020809104026020016040519081016040528093929190818152602001838380828437600081840152601f19601f820116905080830192505050505050509192919290505050612a1d565b005b348015610b5457600080fd5b50610b8160048036036020811015610b6b57600080fd5b8101908080359060200190929190505050612aac565b60405180806020018060200180602001848103845287818151815260200191508051906020019080838360005b83811015610bc9578082015181840152602081019050610bae565b50505050905090810190601f168015610bf65780820380516001836020036101000a031916815260200191505b50848103835286818151815260200191508051906020019080838360005b83811015610c2f578082015181840152602081019050610c14565b50505050905090810190601f168015610c5c5780820380516001836020036101000a031916815260200191505b50848103825285818151815260200191508051906020019080838360005b83811015610c95578082015181840152602081019050610c7a565b50505050905090810190601f168015610cc25780820380516001836020036101000a031916815260200191505b50965050505050505060405180910390f35b348015610ce057600080fd5b50610d2360048036036020811015610cf757600080fd5b81019080803573ffffffffffffffffffffffffffffffffffffffff169060200190929190505050612d5d565b604051808215151515815260200191505060405180910390f35b348015610d4957600080fd5b50610d52612d7a565b005b348015610d6057600080fd5b50610d9760048036036040811015610d7757600080fd5b810190808035906020019092919080359060200190929190505050612d85565b005b348015610da557600080fd5b50610de860048036036020811015610dbc57600080fd5b81019080803573ffffffffffffffffffffffffffffffffffffffff169060200190929190505050612eb1565b604051808215151515815260200191505060405180910390f35b348015610e0e57600080fd5b50610e17612ece565b005b348015610e2557600080fd5b50610e2e612ed9565b604051808215151515815260200191505060405180910390f35b348015610e5457600080fd5b50610e9760048036036020811015610e6b57600080fd5b81019080803573ffffffffffffffffffffffffffffffffffffffff169060200190929190505050612ef0565b604051808215151515815260200191505060405180910390f35b348015610ebd57600080fd5b50610ec6612f0d565b604051808215151515815260200191505060405180910390f35b348015610eec57600080fd5b50610f2360048036036040811015610f0357600080fd5b810190808035906020019092919080359060200190929190505050612f28565b005b348015610f3157600080fd5b50610f7260048036036060811015610f4857600080fd5b810190808035906020019092919080359060200190929190803590602001909291905050506130f1565b005b348015610f8057600080fd5b50610f8961340b565b005b348015610f9757600080fd5b50610fa0613416565b005b348015610fae57600080fd5b50610fb7613421565b005b348015610fc557600080fd5b5061100660048036036060811015610fdc57600080fd5b810190808035906020019092919080359060200190929190803590602001909291905050506134f5565b005b34801561101457600080fd5b5061104b6004803603604081101561102b57600080fd5b81019080803590602001909291908035906020019092919050505061383e565b005b34801561105957600080fd5b5061109c6004803603602081101561107057600080fd5b81019080803573ffffffffffffffffffffffffffffffffffffffff169060200190929190505050613988565b005b3480156110aa57600080fd5b506110ed600480360360208110156110c157600080fd5b81019080803573ffffffffffffffffffffffffffffffffffffffff1690602001909291905050506139a8565b604051808215151515815260200191505060405180910390f35b6111336004803603602081101561111d57600080fd5b81019080803590602001909291905050506139c5565b005b34801561114157600080fd5b5061114a613a56565b005b34801561115857600080fd5b50611161613b06565b005b34801561116f57600080fd5b50611178613b11565b604051808273ffffffffffffffffffffffffffffffffffffffff1673ffffffffffffffffffffffffffffffffffffffff16815260200191505060405180910390f35b3480156111c657600080fd5b50611209600480360360208110156111dd57600080fd5b81019080803573ffffffffffffffffffffffffffffffffffffffff169060200190929190505050613b3b565b604051808215151515815260200191505060405180910390f35b34801561122f57600080fd5b50611238613b58565b604051808215151515815260200191505060405180910390f35b34801561125e57600080fd5b50611267613bb0565b604051808215151515815260200191505060405180910390f35b6112ad6004803603602081101561129757600080fd5b8101908080359060200190929190505050613bcb565b005b3480156112bb57600080fd5b5061137f600480360360408110156112d257600080fd5b8101908080359060200190929190803590602001906401000000008111156112f957600080fd5b82018360208201111561130b57600080fd5b8035906020019184600183028401116401000000008311171561132d57600080fd5b91908080601f016020809104026020016040519081016040528093929190818152602001838380828437600081840152601f19601f820116905080830192505050505050509192919290505050613c54565b005b34801561138d57600080fd5b50611396613cfb565b005b3480156113a457600080fd5b506113ad613d06565b005b3480156113bb57600080fd5b506113fe600480360360208110156113d257600080fd5b81019080803573ffffffffffffffffffffffffffffffffffffffff169060200190929190505050613d2a565b604051808215151515815260200191505060405180910390f35b34801561142457600080fd5b506114516004803603602081101561143b57600080fd5b8101908080359060200190929190505050613d47565b6040518086815260200180602001806020018060200180602001858103855289818151815260200191508051906020019060200280838360005b838110156114a657808201518184015260208101905061148b565b50505050905001858103845288818151815260200191508051906020019060200280838360005b838110156114e85780820151818401526020810190506114cd565b50505050905001858103835287818151815260200191508051906020019060200280838360005b8381101561152a57808201518184015260208101905061150f565b50505050905001858103825286818151815260200191508051906020019060200280838360005b8381101561156c578082015181840152602081019050611551565b50505050905001995050505050505050505060405180910390f35b34801561159357600080fd5b506115d6600480360360208110156115aa57600080fd5b81019080803573ffffffffffffffffffffffffffffffffffffffff169060200190929190505050613f93565b005b3480156115e457600080fd5b50611611600480360360208110156115fb57600080fd5b810190808035906020019092919050505061401c565b005b34801561161f57600080fd5b506116566004803603604081101561163657600080fd5b81019080803590602001909291908035906020019092919050505061421a565b005b34801561166457600080fd5b506116916004803603602081101561167b57600080fd5b8101908080359060200190929190505050614434565b005b34801561169f57600080fd5b506116a861464d565b005b3480156116b657600080fd5b506116bf614658565b604051808273ffffffffffffffffffffffffffffffffffffffff1673ffffffffffffffffffffffffffffffffffffffff16815260200191505060405180910390f35b34801561170d57600080fd5b506117446004803603604081101561172457600080fd5b810190808035906020019092919080359060200190929190505050614682565b60405180806020018415151515815260200180602001838103835286818151815260200191508051906020019080838360005b83811015611792578082015181840152602081019050611777565b50505050905090810190601f1680156117bf5780820380516001836020036101000a031916815260200191505b50838103825284818151815260200191508051906020019080838360005b838110156117f85780820151818401526020810190506117dd565b50505050905090810190601f1680156118255780820380516001836020036101000a031916815260200191505b509550505050505060405180910390f35b34801561184257600080fd5b5061184b614966565b005b34801561185957600080fd5b50611862614971565b604051808215151515815260200191505060405180910390f35b34801561188857600080fd5b506118b56004803603602081101561189f57600080fd5b810190808035906020019092919050505061498c565b005b3480156118c357600080fd5b506118f0600480360360208110156118da57600080fd5b8101908080359060200190929190505050614be3565b6040518080602001828103825283818151815260200191508051906020019060200280838360005b83811015611933578082015181840152602081019050611918565b505050509050019250505060405180910390f35b34801561195357600080fd5b506119806004803603602081101561196a57600080fd5b8101908080359060200190929190505050614c4e565b60405180898152602001888152602001806020018773ffffffffffffffffffffffffffffffffffffffff1673ffffffffffffffffffffffffffffffffffffffff1681526020018673ffffffffffffffffffffffffffffffffffffffff1673ffffffffffffffffffffffffffffffffffffffff1681526020018573ffffffffffffffffffffffffffffffffffffffff1673ffffffffffffffffffffffffffffffffffffffff1681526020018473ffffffffffffffffffffffffffffffffffffffff1673ffffffffffffffffffffffffffffffffffffffff168152602001838152602001828103825288818151815260200191508051906020019080838360005b83811015611a9a578082015181840152602081019050611a7f565b50505050905090810190601f168015611ac75780820380516001836020036101000a031916815260200191505b50995050505050505050505060405180910390f35b348015611ae857600080fd5b50611af1614d80565b60405180871515151581526020018615151515815260200185151515158152602001841515151581526020018315151515815260200182151515158152602001965050505050505060405180910390f35b348015611b4e57600080fd5b50611b57614dcd565b604051808215151515815260200191505060405180910390f35b348015611b7d57600080fd5b50611c6b60048036036080811015611b9457600080fd5b8101908080359060200190929190803573ffffffffffffffffffffffffffffffffffffffff16906020019092919080359060200190640100000000811115611bdb57600080fd5b820183602082011115611bed57600080fd5b80359060200191846001830284011164010000000083111715611c0f57600080fd5b91908080601f016020809104026020016040519081016040528093929190818152602001838380828437600081840152601f19601f82011690508083019250505050505050919291929080359060200190929190505050614de8565b005b348015611c7957600080fd5b50611ca660048036036020811015611c9057600080fd5b8101908080359060200190929190505050615007565b005b348015611cb457600080fd5b50611ce160048036036020811015611ccb57600080fd5b810190808035906020019092919050505061515a565b604051808b81526020018a8152602001806020018973ffffffffffffffffffffffffffffffffffffffff1673ffffffffffffffffffffffffffffffffffffffff1681526020018873ffffffffffffffffffffffffffffffffffffffff1673ffffffffffffffffffffffffffffffffffffffff1681526020018773ffffffffffffffffffffffffffffffffffffffff1673ffffffffffffffffffffffffffffffffffffffff1681526020018673ffffffffffffffffffffffffffffffffffffffff1673ffffffffffffffffffffffffffffffffffffffff16815260200185815260200184815260200183815260200182810382528a818151815260200191508051906020019080838360005b83811015611e07578082015181840152602081019050611dec565b50505050905090810190601f168015611e345780820380516001836020036101000a031916815260200191505b509b50505050505050505050505060405180910390f35b348015611e5757600080fd5b50611e606155d1565b005b348015611e6e57600080fd5b50611e776155dc565b005b348015611e8557600080fd5b50611ec860048036036020811015611e9c57600080fd5b81019080803573ffffffffffffffffffffffffffffffffffffffff1690602001909291905050506155e7565b005b611f1660048036036040811015611ee057600080fd5b8101908080359060200190929190803573ffffffffffffffffffffffffffffffffffffffff169060200190929190505050615606565b005b348015611f2457600080fd5b50611f5160048036036020811015611f3b57600080fd5b8101908080359060200190929190505050615bb4565b604051808c73ffffffffffffffffffffffffffffffffffffffff1673ffffffffffffffffffffffffffffffffffffffff1681526020018b73ffffffffffffffffffffffffffffffffffffffff1673ffffffffffffffffffffffffffffffffffffffff1681526020018060200180602001806020018a1515151581526020018981526020018060200188815260200187815260200186815260200185810385528e818151815260200191508051906020019080838360005b83811015612023578082015181840152602081019050612008565b50505050905090810190601f1680156120505780820380516001836020036101000a031916815260200191505b5085810384528d818151815260200191508051906020019080838360005b8381101561208957808201518184015260208101905061206e565b50505050905090810190601f1680156120b65780820380516001836020036101000a031916815260200191505b5085810383528c818151815260200191508051906020019080838360005b838110156120ef5780820151818401526020810190506120d4565b50505050905090810190601f16801561211c5780820380516001836020036101000a031916815260200191505b50858103825289818151815260200191508051906020019080838360005b8381101561215557808201518184015260208101905061213a565b50505050905090810190601f1680156121825780820380516001836020036101000a031916815260200191505b509f5050505050505050505050505050505060405180910390f35b60006121c78260096000868152602001908152602001600020600b0161614a90919063ffffffff16565b905092915050565b6121d8336161de565b565b6121e333612eb1565b1515612257576040517f08c379a00000000000000000000000000000000000000000000000000000000081526004018080602001828103825260108152602001807f4e6f74204120526567756c61746f72210000000000000000000000000000000081525060200191505060405180910390fd5b600760009054906101000a900460ff1615151561227357600080fd5b61227c81616238565b50565b60006122958260016162f490919063ffffffff16565b9050919050565b60006122b23360056162f490919063ffffffff16565b905090565b833373ffffffffffffffffffffffffffffffffffffffff166009600083815260200190815260200160002060010160009054906101000a900473ffffffffffffffffffffffffffffffffffffffff1673ffffffffffffffffffffffffffffffffffffffff1614151561232857600080fd5b60085485111515156123a2576040517f08c379a000000000000000000000000000000000000000000000000000000000815260040180806020018281038252601b8152602001807f476976656e2055445043204e6f7420437265617465642059657421000000000081525060200191505060405180910390fd5b6123aa618290565b60a0604051908101604052803373ffffffffffffffffffffffffffffffffffffffff16815260200142815260200185151581526020018681526020018481525090508060096000888152602001908152602001600020600a016000600960008a815260200190815260200160002060090154815260200190815260200160002060008201518160000160006101000a81548173ffffffffffffffffffffffffffffffffffffffff021916908373ffffffffffffffffffffffffffffffffffffffff1602179055506020820151816001015560408201518160020160006101000a81548160ff02191690831515021790555060608201518160030190805190602001906124b79291906182d8565b5060808201518160040190805190602001906124d49291906182d8565b5090505060096000878152602001908152602001600020600901600081548092919060010191905055506000600381111561250b57fe5b6009600088815260200190815260200160002060040160009054906101000a900460ff16600381111561253a57fe5b14156125795760016009600088815260200190815260200160002060040160006101000a81548160ff0219169083600381111561257357fe5b02179055505b7f81d5f9bced9b9d1723f40796f43346ab2f3d2147b09cc27e573f3eb3b5875864866040518082815260200191505060405180910390a1505050505050565b600f60009054906101000a900473ffffffffffffffffffffffffffffffffffffffff1673ffffffffffffffffffffffffffffffffffffffff163373ffffffffffffffffffffffffffffffffffffffff1614151561261457600080fd5b600073ffffffffffffffffffffffffffffffffffffffff168173ffffffffffffffffffffffffffffffffffffffff161415151561265057600080fd5b80600f60006101000a81548173ffffffffffffffffffffffffffffffffffffffff021916908373ffffffffffffffffffffffffffffffffffffffff1602179055507f4101e71e974f68df5e9730cc223280b41654676bbb052cdcc735c3337e64d2d9600f60009054906101000a900473ffffffffffffffffffffffffffffffffffffffff16604051808273ffffffffffffffffffffffffffffffffffffffff1673ffffffffffffffffffffffffffffffffffffffff16815260200191505060405180910390a150565b600061272f3360046162f490919063ffffffff16565b905090565b806002600381111561274257fe5b6009600083815260200190815260200160002060040160009054906101000a900460ff16600381111561277157fe5b14151561277d57600080fd5b813373ffffffffffffffffffffffffffffffffffffffff166009600083815260200190815260200160002060010160009054906101000a900473ffffffffffffffffffffffffffffffffffffffff1673ffffffffffffffffffffffffffffffffffffffff161415156127ee57600080fd5b600060096000858152602001908152602001600020600b0160020160006101000a81548160ff0219169083600281111561282457fe5b02179055507fecd07b3c3d2d5a97909bbc0b960a7481613849c91ef6c3a8b139c3b7c4c8083b836040518082815260200191505060405180910390a1505050565b61286e33612d5d565b151561287957600080fd5b600760009054906101000a900460ff16151561289457600080fd5b6000600760006101000a81548160ff0219169083151502179055507f5db9ee0a495bf2e6ff9c91a7834c1ba4fdd244a5e8aa4e537bd38aeae4b073aa33604051808273ffffffffffffffffffffffffffffffffffffffff1673ffffffffffffffffffffffffffffffffffffffff16815260200191505060405180910390a1565b600061293e8260096000868152602001908152602001600020600b0161638890919063ffffffff16565b905092915050565b61294e613b58565b151561295957600080fd5b3373ffffffffffffffffffffffffffffffffffffffff16ff5b61297b33613d2a565b15156129ef576040517f08c379a000000000000000000000000000000000000000000000000000000000815260040180806020018281038252600f8152602001807f4e6f7420412044657369676e657221000000000000000000000000000000000081525060200191505060405180910390fd5b600760009054906101000a900460ff16151515612a0b57600080fd5b612a1784848484616442565b50505050565b612a2633612eb1565b1515612a9a576040517f08c379a00000000000000000000000000000000000000000000000000000000081526004018080602001828103825260108152602001807f4e6f74204120526567756c61746f72210000000000000000000000000000000081525060200191505060405180910390fd5b612aa684848484616780565b50505050565b60608060606008548411151515612b2b576040517f08c379a000000000000000000000000000000000000000000000000000000000815260040180806020018281038252601b8152602001807f476976656e2055445043204e6f7420437265617465642059657421000000000081525060200191505060405180910390fd5b600960008581526020019081526020016000206005016000016009600086815260200190815260200160002060050160010160096000878152602001908152602001600020600501600201828054600181600116156101000203166002900480601f016020809104026020016040519081016040528092919081815260200182805460018160011615610100020316600290048015612c0b5780601f10612be057610100808354040283529160200191612c0b565b820191906000526020600020905b815481529060010190602001808311612bee57829003601f168201915b50505050509250818054600181600116156101000203166002900480601f016020809104026020016040519081016040528092919081815260200182805460018160011615610100020316600290048015612ca75780601f10612c7c57610100808354040283529160200191612ca7565b820191906000526020600020905b815481529060010190602001808311612c8a57829003601f168201915b50505050509150808054600181600116156101000203166002900480601f016020809104026020016040519081016040528092919081815260200182805460018160011615610100020316600290048015612d435780601f10612d1857610100808354040283529160200191612d43565b820191906000526020600020905b815481529060010190602001808311612d2657829003601f168201915b505050505090508093508194508295505050509193909250565b6000612d738260066162f490919063ffffffff16565b9050919050565b612d8333616a0f565b565b612d8e3361227f565b1515612e02576040517f08c379a00000000000000000000000000000000000000000000000000000000081526004018080602001828103825260138152602001807f4e6f742041204d616e756661637475726572210000000000000000000000000081525060200191505060405180910390fd5b81612e2b3360096000848152602001908152602001600020600b0161614a90919063ffffffff16565b80612e9757503373ffffffffffffffffffffffffffffffffffffffff166009600083815260200190815260200160002060010160009054906101000a900473ffffffffffffffffffffffffffffffffffffffff1673ffffffffffffffffffffffffffffffffffffffff16145b1515612ea257600080fd5b612eac8383616a69565b505050565b6000612ec78260046162f490919063ffffffff16565b9050919050565b612ed733616d86565b565b6000600760009054906101000a900460ff16905090565b6000612f068260056162f490919063ffffffff16565b9050919050565b6000612f233360026162f490919063ffffffff16565b905090565b8160026003811115612f3657fe5b6009600083815260200190815260200160002060040160009054906101000a900460ff166003811115612f6557fe5b141515612f7157600080fd5b823373ffffffffffffffffffffffffffffffffffffffff166009600083815260200190815260200160002060010160009054906101000a900473ffffffffffffffffffffffffffffffffffffffff1673ffffffffffffffffffffffffffffffffffffffff16141515612fe257600080fd5b6064831115151561305b576040517f08c379a00000000000000000000000000000000000000000000000000000000081526004018080602001828103825260168152602001807f4d6f7374206265206c657373207468616e20253130300000000000000000000081525060200191505060405180910390fd5b8260096000868152602001908152602001600020600b0160010181905550600160096000868152602001908152602001600020600b0160020160006101000a81548160ff021916908360028111156130af57fe5b02179055507f7757356b46f23cb3ef1647e45863d1afc6f69c56c39b4afc70f3e2cea14c3a9d846040518082815260200191505060405180910390a150505050565b826000600d6000838152602001908152602001600020600081548110151561311557fe5b906000526020600020015490506005600681111561312f57fe5b600c600083815260200190815260200160002060030160009054906101000a900460ff16600681111561315e57fe5b14151561316a57600080fd5b846000600d6000838152602001908152602001600020600081548110151561318e57fe5b9060005260206000200154905060003373ffffffffffffffffffffffffffffffffffffffff16600c600084815260200190815260200160002060060160009054906101000a900473ffffffffffffffffffffffffffffffffffffffff1673ffffffffffffffffffffffffffffffffffffffff1614905080151561321057600080fd5b6000600d60008a8152602001908152602001600020805490509050613233618358565b6080604051908101604052804281526020018a81526020018981526020013373ffffffffffffffffffffffffffffffffffffffff16815250905060008090505b828110156133c7576000600d60008d81526020019081526020016000208281548110151561329d57fe5b906000526020600020015490506006808111156132b657fe5b600c600083815260200190815260200160002060030160009054906101000a900460ff1660068111156132e557fe5b1415156133b95782600c60008381526020019081526020016000206009016000600c6000858152602001908152602001600020600a0154815260200190815260200160002060008201518160000155602082015181600101556040820151816002015560608201518160030160006101000a81548173ffffffffffffffffffffffffffffffffffffffff021916908373ffffffffffffffffffffffffffffffffffffffff160217905550905050600c6000828152602001908152602001600020600a01600081548092919060010191905055505b508080600101915050613273565b507f332d23c9d7e8e885c3f1696ae3b424351c1e9e2a4cc531396d6848b79a0dac988a6040518082815260200191505060405180910390a150505050505050505050565b61341433616de0565b565b61341f33616e3a565b565b613429613b58565b151561343457600080fd5b600073ffffffffffffffffffffffffffffffffffffffff16600e60009054906101000a900473ffffffffffffffffffffffffffffffffffffffff1673ffffffffffffffffffffffffffffffffffffffff167f8be0079c531659141344cd1fd0a4f28419497f9722a3daafe3b4186f6b6457e060405160405180910390a36000600e60006101000a81548173ffffffffffffffffffffffffffffffffffffffff021916908373ffffffffffffffffffffffffffffffffffffffff160217905550565b826000600d6000838152602001908152602001600020600081548110151561351957fe5b906000526020600020015490506004600681111561353357fe5b600c600083815260200190815260200160002060030160009054906101000a900460ff16600681111561356257fe5b14151561356e57600080fd5b846000600d6000838152602001908152602001600020600081548110151561359257fe5b9060005260206000200154905060003373ffffffffffffffffffffffffffffffffffffffff16600c600084815260200190815260200160002060040160009054906101000a900473ffffffffffffffffffffffffffffffffffffffff1673ffffffffffffffffffffffffffffffffffffffff1614905060003373ffffffffffffffffffffffffffffffffffffffff16600c600085815260200190815260200160002060050160009054906101000a900473ffffffffffffffffffffffffffffffffffffffff1673ffffffffffffffffffffffffffffffffffffffff16149050818061367a5750805b151561368557600080fd5b6000600d60008b81526020019081526020016000208054905090506136a8618358565b6080604051908101604052804281526020018b81526020018a81526020013373ffffffffffffffffffffffffffffffffffffffff16815250905060008090505b828110156137f9576000600d60008e81526020019081526020016000208281548110151561371257fe5b9060005260206000200154905082600c60008381526020019081526020016000206009016000600c6000858152602001908152602001600020600a0154815260200190815260200160002060008201518160000155602082015181600101556040820151816002015560608201518160030160006101000a81548173ffffffffffffffffffffffffffffffffffffffff021916908373ffffffffffffffffffffffffffffffffffffffff160217905550905050600c6000828152602001908152602001600020600a01600081548092919060010191905055505080806001019150506136e8565b507f332d23c9d7e8e885c3f1696ae3b424351c1e9e2a4cc531396d6848b79a0dac988b6040518082815260200191505060405180910390a15050505050505050505050565b813373ffffffffffffffffffffffffffffffffffffffff166009600083815260200190815260200160002060010160009054906101000a900473ffffffffffffffffffffffffffffffffffffffff1673ffffffffffffffffffffffffffffffffffffffff161415156138af57600080fd5b82600260038111156138bd57fe5b6009600083815260200190815260200160002060040160009054906101000a900460ff1660038111156138ec57fe5b1415156138f857600080fd5b82600960008681526020019081526020016000206008018190555060036009600086815260200190815260200160002060040160006101000a81548160ff0219169083600381111561394657fe5b02179055507f9830dea00c267e7b6913a128e9a399b9272b3c2b650ac4c447ce2b876b100488846040518082815260200191505060405180910390a150505050565b61399133612d5d565b151561399c57600080fd5b6139a581616e94565b50565b60006139be8260006162f490919063ffffffff16565b9050919050565b6139ce81616eee565b6000600c600083815260200190815260200160002060070154905060006139f3613b11565b90506000606460018402811515613a0657fe5b0490508173ffffffffffffffffffffffffffffffffffffffff166108fc829081150290604051600060405180830381858888f19350505050158015613a4f573d6000803e3d6000fd5b5050505050565b613a5f33612d5d565b1515613a6a57600080fd5b600760009054906101000a900460ff16151515613a8657600080fd5b6001600760006101000a81548160ff0219169083151502179055507f62e78cea01bee320cd4e420270b5ea74000d11b0c9f74754ebdbfc544b05a25833604051808273ffffffffffffffffffffffffffffffffffffffff1673ffffffffffffffffffffffffffffffffffffffff16815260200191505060405180910390a1565b613b0f336171b5565b565b6000600e60009054906101000a900473ffffffffffffffffffffffffffffffffffffffff16905090565b6000613b518260036162f490919063ffffffff16565b9050919050565b6000600e60009054906101000a900473ffffffffffffffffffffffffffffffffffffffff1673ffffffffffffffffffffffffffffffffffffffff163373ffffffffffffffffffffffffffffffffffffffff1614905090565b6000613bc63360006162f490919063ffffffff16565b905090565b613bd43361227f565b1515613c48576040517f08c379a00000000000000000000000000000000000000000000000000000000081526004018080602001828103825260138152602001807f4e6f742041204d616e756661637475726572210000000000000000000000000081525060200191505060405180910390fd5b613c518161720f565b50565b613c5d3361227f565b1515613cd1576040517f08c379a00000000000000000000000000000000000000000000000000000000081526004018080602001828103825260138152602001807f4e6f742041204d616e756661637475726572210000000000000000000000000081525060200191505060405180910390fd5b600760009054906101000a900460ff16151515613ced57600080fd5b613cf7828261747d565b5050565b613d043361757c565b565b613d0f336175d6565b613d183361227f565b1515613d2857613d2733616a0f565b5b565b6000613d408260026162f490919063ffffffff16565b9050919050565b6000606080606080856000600c6000838152602001908152602001600020600a015414151515613d7657600080fd5b6000600c6000898152602001908152602001600020905080600a01549650606087604051908082528060200260200182016040528015613dc55781602001602082028038833980820191505090505b509050606088604051908082528060200260200182016040528015613df95781602001602082028038833980820191505090505b509050606089604051908082528060200260200182016040528015613e2d5781602001602082028038833980820191505090505b50905060608a604051908082528060200260200182016040528015613e615781602001602082028038833980820191505090505b50905060008090505b85600a0154811015613f6f576000866009016000838152602001908152602001600020905080600001548683815181101515613ea257fe5b906020019060200201818152505080600201548583815181101515613ec357fe5b906020019060200201818152505080600101548483815181101515613ee457fe5b90602001906020020181815250508060030160009054906101000a900473ffffffffffffffffffffffffffffffffffffffff168383815181101515613f2557fe5b9060200190602002019073ffffffffffffffffffffffffffffffffffffffff16908173ffffffffffffffffffffffffffffffffffffffff1681525050508080600101915050613e6a565b5083838383809a50819b50829c50839d505050505050505050505091939590929450565b613f9c33612eb1565b1515614010576040517f08c379a00000000000000000000000000000000000000000000000000000000081526004018080602001828103825260108152602001807f4e6f74204120526567756c61746f72210000000000000000000000000000000081525060200191505060405180910390fd5b61401981617630565b50565b806000600d6000838152602001908152602001600020600081548110151561404057fe5b906000526020600020015490506003600681111561405a57fe5b600c600083815260200190815260200160002060030160009054906101000a900460ff16600681111561408957fe5b14151561409557600080fd5b826000600d600083815260200190815260200160002060008154811015156140b957fe5b9060005260206000200154905060003373ffffffffffffffffffffffffffffffffffffffff16600c600084815260200190815260200160002060040160009054906101000a900473ffffffffffffffffffffffffffffffffffffffff1673ffffffffffffffffffffffffffffffffffffffff1614905080151561413b57600080fd5b6000600d600088815260200190815260200160002080549050905060008090505b818110156141d9576000600d60008a81526020019081526020016000208281548110151561418657fe5b906000526020600020015490506004600c600083815260200190815260200160002060030160006101000a81548160ff021916908360068111156141c657fe5b021790555050808060010191505061415c565b507ff00b9a5725b80c54016f42114f6ed7792d22eecb116011c4afac29c57bef6c95876040518082815260200191505060405180910390a150505050505050565b816000600d6000838152602001908152602001600020600081548110151561423e57fe5b906000526020600020015490506001600681111561425857fe5b600c600083815260200190815260200160002060030160009054906101000a900460ff16600681111561428757fe5b14151561429357600080fd5b836000600d600083815260200190815260200160002060008154811015156142b757fe5b9060005260206000200154905060003373ffffffffffffffffffffffffffffffffffffffff16600c600084815260200190815260200160002060040160009054906101000a900473ffffffffffffffffffffffffffffffffffffffff1673ffffffffffffffffffffffffffffffffffffffff1614905080151561433957600080fd5b6000600d600089815260200190815260200160002080549050905060008090505b818110156143f2576000600d60008b81526020019081526020016000208281548110151561438457fe5b906000526020600020015490506002600c600083815260200190815260200160002060030160006101000a81548160ff021916908360068111156143c457fe5b021790555088600c60008381526020019081526020016000206007018190555050808060010191505061435a565b507fa96ae0fc3224ebd79eebfe54bd130cc9cb94416cddd1f2386115e00b72532468886040518082815260200191505060405180910390a15050505050505050565b806000600d6000838152602001908152602001600020600081548110151561445857fe5b906000526020600020015490506000600681111561447257fe5b600c600083815260200190815260200160002060030160009054906101000a900460ff1660068111156144a157fe5b1415156144ad57600080fd5b826000600d600083815260200190815260200160002060008154811015156144d157fe5b9060005260206000200154905060003373ffffffffffffffffffffffffffffffffffffffff16600c600084815260200190815260200160002060040160009054906101000a900473ffffffffffffffffffffffffffffffffffffffff1673ffffffffffffffffffffffffffffffffffffffff1614905080151561455357600080fd5b6000600d600088815260200190815260200160002080549050905060008090505b8181101561460c576000600d60008a81526020019081526020016000208281548110151561459e57fe5b906000526020600020015490506001600c600083815260200190815260200160002060030160006101000a81548160ff021916908360068111156145de57fe5b021790555042600c600083815260200190815260200160002060080181905550508080600101915050614574565b507f9b3b66e2380b690bae22c73ef1428fb0c91e72fe14a4b6defa13035214187aff876040518082815260200191505060405180910390a150505050505050565b6146563361768a565b565b6000600f60009054906101000a900473ffffffffffffffffffffffffffffffffffffffff16905090565b6060600060606008548511151515614702576040517f08c379a000000000000000000000000000000000000000000000000000000000815260040180806020018281038252601b8152602001807f476976656e2055445043204e6f7420437265617465642059657421000000000081525060200191505060405180910390fd5b60096000868152602001908152602001600020600901548410151561478f576040517f08c379a000000000000000000000000000000000000000000000000000000000815260040180806020018281038252601a8152602001807f546573742043617365204e6f742043726561746564205965742100000000000081525060200191505060405180910390fd5b60096000868152602001908152602001600020600a01600085815260200190815260200160002060030160096000878152602001908152602001600020600a01600086815260200190815260200160002060020160009054906101000a900460ff1660096000888152602001908152602001600020600a016000878152602001908152602001600020600401828054600181600116156101000203166002900480601f0160208091040260200160405190810160405280929190818152602001828054600181600116156101000203166002900480156148b05780601f10614885576101008083540402835291602001916148b0565b820191906000526020600020905b81548152906001019060200180831161489357829003601f168201915b50505050509250808054600181600116156101000203166002900480601f01602080910402602001604051908101604052809291908181526020018280546001816001161561010002031660029004801561494c5780601f106149215761010080835404028352916020019161494c565b820191906000526020600020905b81548152906001019060200180831161492f57829003601f168201915b505050505090508093508194508295505050509250925092565b61496f336176e4565b565b60006149873360036162f490919063ffffffff16565b905090565b806000600d600083815260200190815260200160002060008154811015156149b057fe5b90600052602060002001549050600460068111156149ca57fe5b600c600083815260200190815260200160002060030160009054906101000a900460ff1660068111156149f957fe5b141515614a0557600080fd5b826000600d60008381526020019081526020016000206000815481101515614a2957fe5b906000526020600020015490506000600c6000838152602001908152602001600020600a015414151515614a5c57600080fd5b846000600d60008381526020019081526020016000206000815481101515614a8057fe5b9060005260206000200154905060003373ffffffffffffffffffffffffffffffffffffffff16600c600084815260200190815260200160002060060160009054906101000a900473ffffffffffffffffffffffffffffffffffffffff1673ffffffffffffffffffffffffffffffffffffffff16149050801515614b0257600080fd5b6000600d60008a815260200190815260200160002080549050905060008090505b81811015614ba0576000600d60008c815260200190815260200160002082815481101515614b4d57fe5b906000526020600020015490506005600c600083815260200190815260200160002060030160006101000a81548160ff02191690836006811115614b8d57fe5b0217905550508080600101915050614b23565b507fa8142743f8f70a4c26f3691cf4ed59718381fb2f18070ec52be1f1022d855557896040518082815260200191505060405180910390a1505050505050505050565b6060600d6000838152602001908152602001600020805480602002602001604051908101604052809291908181526020018280548015614c4257602002820191906000526020600020905b815481526020019060010190808311614c2e575b50505050509050919050565b60008060606000806000806000600b548911158015614c6e575060008914155b1515614ce2576040517f08c379a000000000000000000000000000000000000000000000000000000000815260040180806020018281038252601a8152602001807f476976656e20534c55204e6f742043726561746564205965742100000000000081525060200191505060405180910390fd5b6000600d60008b81526020019081526020016000206001600d60008d81526020019081526020016000208054905003815481101515614d1d57fe5b90600052602060002001549050614d338161515a565b909192939495969750905050809850819950829a50839b50849c50859d50869e5050505050505050600d60008b815260200190815260200160002080549050985050919395975091939597565b600080600080600080614d91613bb0565b9550614d9b61229c565b9450614da5614971565b9350614daf614dcd565b9250614db9612719565b9150614dc3612f0d565b9050909192939495565b6000614de33360016162f490919063ffffffff16565b905090565b8360026003811115614df657fe5b6009600083815260200190815260200160002060040160009054906101000a900460ff166003811115614e2557fe5b141515614e3157600080fd5b843373ffffffffffffffffffffffffffffffffffffffff166009600083815260200190815260200160002060010160009054906101000a900473ffffffffffffffffffffffffffffffffffffffff1673ffffffffffffffffffffffffffffffffffffffff16141515614ea257600080fd5b8560006002811115614eb057fe5b60096000838152602001908152602001600020600b0160020160009054906101000a900460ff166002811115614ee257fe5b141515614eee57600080fd5b60648411151515614f67576040517f08c379a00000000000000000000000000000000000000000000000000000000081526004018080602001828103825260168152602001807f4d6f7374206265206c657373207468616e20253130300000000000000000000081525060200191505060405180910390fd5b614f93868686600960008c8152602001908152602001600020600b0161773e909392919063ffffffff16565b7fcf9b82493d27751c082844bdd5f86709a115d8bbc98b6ebb688d96ff15837cc48787604051808381526020018273ffffffffffffffffffffffffffffffffffffffff1673ffffffffffffffffffffffffffffffffffffffff1681526020019250505060405180910390a150505050505050565b803373ffffffffffffffffffffffffffffffffffffffff166009600083815260200190815260200160002060010160009054906101000a900473ffffffffffffffffffffffffffffffffffffffff1673ffffffffffffffffffffffffffffffffffffffff1614151561507857600080fd5b816001600281111561508657fe5b60096000838152602001908152602001600020600b0160020160009054906101000a900460ff1660028111156150b857fe5b1415156150c457600080fd5b600260096000858152602001908152602001600020600b0160020160006101000a81548160ff021916908360028111156150fa57fe5b0217905550600060096000858152602001908152602001600020600b01600101819055507fa54024b3473fdbaabff7d6742d51ced76d6ec5df786a4b361595bb0623e8d167836040518082815260200191505060405180910390a1505050565b60008060606000806000806000806000600a548b1115801561517d575060008b14155b15156151f1576040517f08c379a000000000000000000000000000000000000000000000000000000000815260040180806020018281038252601a8152602001807f476976656e20504b55204e6f742043726561746564205965742100000000000081525060200191505060405180910390fd5b6000600c60008d8152602001908152602001600020905080600001549a50806002015499506000600681111561522357fe5b8160030160009054906101000a900460ff16600681111561524057fe5b1415615283576040805190810160405280600c81526020017f4d616e75666163747572656400000000000000000000000000000000000000008152509850615512565b6001600681111561529057fe5b8160030160009054906101000a900460ff1660068111156152ad57fe5b14156152f0576040805190810160405280600681526020017f5061636b656400000000000000000000000000000000000000000000000000008152509850615511565b600260068111156152fd57fe5b8160030160009054906101000a900460ff16600681111561531a57fe5b141561535d576040805190810160405280600781526020017f466f7253616c65000000000000000000000000000000000000000000000000008152509850615510565b6003600681111561536a57fe5b8160030160009054906101000a900460ff16600681111561538757fe5b14156153ca576040805190810160405280600481526020017f536f6c6400000000000000000000000000000000000000000000000000000000815250985061550f565b600460068111156153d757fe5b8160030160009054906101000a900460ff1660068111156153f457fe5b1415615437576040805190810160405280600781526020017f5368697070656400000000000000000000000000000000000000000000000000815250985061550e565b6005600681111561544457fe5b8160030160009054906101000a900460ff16600681111561546157fe5b14156154a4576040805190810160405280600881526020017f5265636569766564000000000000000000000000000000000000000000000000815250985061550d565b6006808111156154b057fe5b8160030160009054906101000a900460ff1660068111156154cd57fe5b141561550c576040805190810160405280600981526020017f507572636861736564000000000000000000000000000000000000000000000081525098505b5b5b5b5b5b5b8060030160019054906101000a900473ffffffffffffffffffffffffffffffffffffffff1697508060040160009054906101000a900473ffffffffffffffffffffffffffffffffffffffff1696508060050160009054906101000a900473ffffffffffffffffffffffffffffffffffffffff1695508060060160009054906101000a900473ffffffffffffffffffffffffffffffffffffffff169450806007015493508060080154925080600a01549150509193959799509193959799565b6155da336179fe565b565b6155e533617a58565b565b6155ef613b58565b15156155fa57600080fd5b61560381617ab2565b50565b61560f33613b3b565b1515615683576040517f08c379a00000000000000000000000000000000000000000000000000000000081526004018080602001828103825260128152602001807f4e6f742041204469737472696275746f7221000000000000000000000000000081525060200191505060405180910390fd5b600760009054906101000a900460ff1615151561569f57600080fd5b6156a881612ef0565b15156156b357600080fd5b6156bb618397565b600c6000600d600086815260200190815260200160002060008154811015156156e057fe5b9060005260206000200154815260200190815260200160002061016060405190810160405290816000820154815260200160018201548152602001600282015481526020016003820160009054906101000a900460ff16600681111561574257fe5b600681111561574d57fe5b81526020016003820160019054906101000a900473ffffffffffffffffffffffffffffffffffffffff1673ffffffffffffffffffffffffffffffffffffffff1673ffffffffffffffffffffffffffffffffffffffff1681526020016004820160009054906101000a900473ffffffffffffffffffffffffffffffffffffffff1673ffffffffffffffffffffffffffffffffffffffff1673ffffffffffffffffffffffffffffffffffffffff1681526020016005820160009054906101000a900473ffffffffffffffffffffffffffffffffffffffff1673ffffffffffffffffffffffffffffffffffffffff1673ffffffffffffffffffffffffffffffffffffffff1681526020016006820160009054906101000a900473ffffffffffffffffffffffffffffffffffffffff1673ffffffffffffffffffffffffffffffffffffffff1673ffffffffffffffffffffffffffffffffffffffff1681526020016007820154815260200160088201548152602001600a820154815250509050600081600001519050600082610100015190506000600d60008781526020019081526020016000208054905090506000818302905060008560800151905081341015151561597f576040517f08c379a000000000000000000000000000000000000000000000000000000000815260040180806020018281038252600b8152602001807f4e6f7420456e6f7567682100000000000000000000000000000000000000000081525060200191505060405180910390fd5b600082340390506000811415156159d8573373ffffffffffffffffffffffffffffffffffffffff166108fc829081150290604051600060405180830381858888f193505050501580156159d6573d6000803e3d6000fd5b505b6159e28989617bae565b6009600087815260200190815260200160002060010160009054906101000a900473ffffffffffffffffffffffffffffffffffffffff1673ffffffffffffffffffffffffffffffffffffffff168273ffffffffffffffffffffffffffffffffffffffff161415615a98578173ffffffffffffffffffffffffffffffffffffffff166108fc849081150290604051600060405180830381858888f19350505050158015615a92573d6000803e3d6000fd5b50615ba9565b6000615ac283600960008a8152602001908152602001600020600b0161638890919063ffffffff16565b905060006064858302811515615ad457fe5b0490506000600960008a8152602001908152602001600020600b0160000160009054906101000a900473ffffffffffffffffffffffffffffffffffffffff1690508473ffffffffffffffffffffffffffffffffffffffff166108fc839081150290604051600060405180830381858888f19350505050158015615b5b573d6000803e3d6000fd5b508073ffffffffffffffffffffffffffffffffffffffff166108fc8388039081150290604051600060405180830381858888f19350505050158015615ba4573d6000803e3d6000fd5b505050505b505050505050505050565b6000806060806060600080606060008060006008548c11151515615c40576040517f08c379a000000000000000000000000000000000000000000000000000000000815260040180806020018281038252601b8152602001807f476976656e2055445043204e6f7420437265617465642059657421000000000081525060200191505060405180910390fd5b600960008d815260200190815260200160002060010160009054906101000a900473ffffffffffffffffffffffffffffffffffffffff169a50600960008d815260200190815260200160002060020160009054906101000a900473ffffffffffffffffffffffffffffffffffffffff169950600960008d81526020019081526020016000206003018054600181600116156101000203166002900480601f016020809104026020016040519081016040528092919081815260200182805460018160011615610100020316600290048015615d5c5780601f10615d3157610100808354040283529160200191615d5c565b820191906000526020600020905b815481529060010190602001808311615d3f57829003601f168201915b50505050509850600960008d81526020019081526020016000206005016000018054600181600116156101000203166002900480601f016020809104026020016040519081016040528092919081815260200182805460018160011615610100020316600290048015615e105780601f10615de557610100808354040283529160200191615e10565b820191906000526020600020905b815481529060010190602001808311615df357829003601f168201915b5050505050975060006003811115615e2457fe5b600960008e815260200190815260200160002060040160009054906101000a900460ff166003811115615e5357fe5b1415615e96576040805190810160405280600781526020017f43726561746564000000000000000000000000000000000000000000000000008152509650616090565b60016003811115615ea357fe5b600960008e815260200190815260200160002060040160009054906101000a900460ff166003811115615ed257fe5b1415615f15576040805190810160405280600681526020017f5465737465640000000000000000000000000000000000000000000000000000815250965061608f565b60026003811115615f2257fe5b600960008e815260200190815260200160002060040160009054906101000a900460ff166003811115615f5157fe5b1415615f94576040805190810160405280600881526020017f417070726f766564000000000000000000000000000000000000000000000000815250965061608e565b600380811115615fa057fe5b600960008e815260200190815260200160002060040160009054906101000a900460ff166003811115615fcf57fe5b1415616012576040805190810160405280600781526020017f466f7253616c6500000000000000000000000000000000000000000000000000815250965061608d565b60038081111561601e57fe5b600960008e815260200190815260200160002060040160009054906101000a900460ff16600381111561604d57fe5b141561608c576040805190810160405280600781526020017f466f7253616c650000000000000000000000000000000000000000000000000081525096505b5b5b5b5b6160ae600960008e8152602001908152602001600020600b01617e03565b9350600960008d8152602001908152602001600020600b016001015492506000600960008e81526020019081526020016000206008015414159550600960008d8152602001908152602001600020600801549450600960008d8152602001908152602001600020600901549150616139600960008e8152602001908152602001600020600b01617f51565b905091939597999b90929496989a50565b60008073ffffffffffffffffffffffffffffffffffffffff168273ffffffffffffffffffffffffffffffffffffffff161415151561618757600080fd5b8260050160008373ffffffffffffffffffffffffffffffffffffffff1673ffffffffffffffffffffffffffffffffffffffff16815260200190815260200160002060009054906101000a900460ff16905092915050565b6161f2816000617ff890919063ffffffff16565b8073ffffffffffffffffffffffffffffffffffffffff167fe3f5ed5f263f1f01764a96edfc7d025f511ec5f7d180e8816908b78bcf74f09860405160405180910390a250565b806001600381111561624657fe5b6009600083815260200190815260200160002060040160009054906101000a900460ff16600381111561627557fe5b14151561628157600080fd5b60026009600084815260200190815260200160002060040160006101000a81548160ff021916908360038111156162b457fe5b02179055507f3ad93af63cb7967b23e4fb500b7d7d28b07516325dcf341f88bebf959d82c1cb826040518082815260200191505060405180910390a15050565b60008073ffffffffffffffffffffffffffffffffffffffff168273ffffffffffffffffffffffffffffffffffffffff161415151561633157600080fd5b8260000160008373ffffffffffffffffffffffffffffffffffffffff1673ffffffffffffffffffffffffffffffffffffffff16815260200190815260200160002060009054906101000a900460ff16905092915050565b60008073ffffffffffffffffffffffffffffffffffffffff168273ffffffffffffffffffffffffffffffffffffffff16141515156163c557600080fd5b6163cf838361614a565b15156163da57600080fd5b60008360060160008473ffffffffffffffffffffffffffffffffffffffff1673ffffffffffffffffffffffffffffffffffffffff1681526020019081526020016000205490508360040160008281526020019081526020016000206002015491505092915050565b60086000815480929190600101919050555061645c618455565b60085481600001818152505033816020019073ffffffffffffffffffffffffffffffffffffffff16908173ffffffffffffffffffffffffffffffffffffffff168152505033816040019073ffffffffffffffffffffffffffffffffffffffff16908173ffffffffffffffffffffffffffffffffffffffff16815250508481606001819052506000816080019060038111156164f357fe5b9081600381111561650057fe5b81525050606060405190810160405280858152602001848152602001838152508160a0018190525060008160c001818152505060018161010001516060018181525050806009600060085481526020019081526020016000206000820151816000015560208201518160010160006101000a81548173ffffffffffffffffffffffffffffffffffffffff021916908373ffffffffffffffffffffffffffffffffffffffff16021790555060408201518160020160006101000a81548173ffffffffffffffffffffffffffffffffffffffff021916908373ffffffffffffffffffffffffffffffffffffffff160217905550606082015181600301908051906020019061660d9291906182d8565b5060808201518160040160006101000a81548160ff0219169083600381111561663257fe5b021790555060a082015181600501600082015181600001908051906020019061665c9291906182d8565b5060208201518160010190805190602001906166799291906182d8565b5060408201518160020190805190602001906166969291906182d8565b50505060c0820151816008015560e0820151816009015561010082015181600b0160008201518160000160006101000a81548173ffffffffffffffffffffffffffffffffffffffff021916908373ffffffffffffffffffffffffffffffffffffffff1602179055506020820151816001015560408201518160020160006101000a81548160ff0219169083600281111561672c57fe5b02179055506060820151816003015550509050507f4bea4fa538d41a7b7fb10bb3405cf3e168122aa3438625bbf0ac6dde64fbdb0c6008546040518082815260200191505060405180910390a15050505050565b60085484111515156167fa576040517f08c379a000000000000000000000000000000000000000000000000000000000815260040180806020018281038252601b8152602001807f476976656e2055445043204e6f7420437265617465642059657421000000000081525060200191505060405180910390fd5b616802618290565b60a0604051908101604052803373ffffffffffffffffffffffffffffffffffffffff16815260200142815260200184151581526020018581526020018381525090508060096000878152602001908152602001600020600a0160006009600089815260200190815260200160002060090154815260200190815260200160002060008201518160000160006101000a81548173ffffffffffffffffffffffffffffffffffffffff021916908373ffffffffffffffffffffffffffffffffffffffff1602179055506020820151816001015560408201518160020160006101000a81548160ff021916908315150217905550606082015181600301908051906020019061690f9291906182d8565b50608082015181600401908051906020019061692c9291906182d8565b5090505060096000868152602001908152602001600020600901600081548092919060010191905055506000600381111561696357fe5b6009600087815260200190815260200160002060040160009054906101000a900460ff16600381111561699257fe5b14156169d15760016009600087815260200190815260200160002060040160006101000a81548160ff021916908360038111156169cb57fe5b02179055505b7f81d5f9bced9b9d1723f40796f43346ab2f3d2147b09cc27e573f3eb3b5875864856040518082815260200191505060405180910390a15050505050565b616a238160016180a790919063ffffffff16565b8073ffffffffffffffffffffffffffffffffffffffff167f561138658ca49a8540dc70dcfe64c9026c1c5b9344642242dd6562970f9c127860405160405180910390a250565b6000600b600081546001019190508190559050616a84618397565b8381600001818152505081816040018181525050600081606001906006811115616aaa57fe5b90816006811115616ab757fe5b8152505033816080019073ffffffffffffffffffffffffffffffffffffffff16908173ffffffffffffffffffffffffffffffffffffffff1681525050338160a0019073ffffffffffffffffffffffffffffffffffffffff16908173ffffffffffffffffffffffffffffffffffffffff168152505060008161014001818152505060008090505b83811015616d48576000600a6000815460010191905081905590508083602001818152505082600c600083815260200190815260200160002060008201518160000155602082015181600101556040820151816002015560608201518160030160006101000a81548160ff02191690836006811115616bb857fe5b021790555060808201518160030160016101000a81548173ffffffffffffffffffffffffffffffffffffffff021916908373ffffffffffffffffffffffffffffffffffffffff16021790555060a08201518160040160006101000a81548173ffffffffffffffffffffffffffffffffffffffff021916908373ffffffffffffffffffffffffffffffffffffffff16021790555060c08201518160050160006101000a81548173ffffffffffffffffffffffffffffffffffffffff021916908373ffffffffffffffffffffffffffffffffffffffff16021790555060e08201518160060160006101000a81548173ffffffffffffffffffffffffffffffffffffffff021916908373ffffffffffffffffffffffffffffffffffffffff1602179055506101008201518160070155610120820151816008015561014082015181600a0155905050600d6000858152602001908152602001600020819080600181540180825580915050906001820390600052602060002001600090919290919091505550508080600101915050616b3d565b507fd29d8a68ca7c8c74be5579719d445aabfe230ed6e6a83aff475a663500eb7609826040518082815260200191505060405180910390a150505050565b616d9a816003617ff890919063ffffffff16565b8073ffffffffffffffffffffffffffffffffffffffff167f126174f6cf49c81cdb4a9214c6b8f037bef55b4ec31e4fc776cea2a1c8a88d5960405160405180910390a250565b616df4816005617ff890919063ffffffff16565b8073ffffffffffffffffffffffffffffffffffffffff167fdb7176e79cffef81cb01767dd0447a0b24bb72ca9778d4b245581086b2a7e6db60405160405180910390a250565b616e4e816006617ff890919063ffffffff16565b8073ffffffffffffffffffffffffffffffffffffffff167fcd265ebaf09df2871cc7bd4133404a235ba12eff2041bb89d9c714a2621c7c7e60405160405180910390a250565b616ea88160066180a790919063ffffffff16565b8073ffffffffffffffffffffffffffffffffffffffff167f6719d08c1888103bea251a4ed56406bd0c3e69723c8a1686e017e7bbe159b6f860405160405180910390a250565b616ef7336139a8565b1515616f6b576040517f08c379a000000000000000000000000000000000000000000000000000000000815260040180806020018281038252600f8152602001807f4e6f74204120436f6e73756d657221000000000000000000000000000000000081525060200191505060405180910390fd5b600760009054906101000a900460ff16151515616f8757600080fd5b6000600c60008381526020019081526020016000206007015490506000600c600084815260200190815260200160002060030160019054906101000a900473ffffffffffffffffffffffffffffffffffffffff1690506000600c600085815260200190815260200160002060060160009054906101000a900473ffffffffffffffffffffffffffffffffffffffff169050600060646005850281151561702957fe5b049050600060646001860281151561703d57fe5b0490508434101515156170b8576040517f08c379a000000000000000000000000000000000000000000000000000000000815260040180806020018281038252600b8152602001807f4e6f7420456e6f7567682100000000000000000000000000000000000000000081525060200191505060405180910390fd5b60008534039050600081141515617111573373ffffffffffffffffffffffffffffffffffffffff166108fc829081150290604051600060405180830381858888f1935050505015801561710f573d6000803e3d6000fd5b505b61711a87618157565b8473ffffffffffffffffffffffffffffffffffffffff166108fc83850188039081150290604051600060405180830381858888f19350505050158015617164573d6000803e3d6000fd5b508373ffffffffffffffffffffffffffffffffffffffff166108fc849081150290604051600060405180830381858888f193505050501580156171ab573d6000803e3d6000fd5b5050505050505050565b6171c9816004617ff890919063ffffffff16565b8073ffffffffffffffffffffffffffffffffffffffff167fc8ecc453f78c13ccc7596603b61935f29b99dc15bb91b91647e1ccf2469ad00a60405160405180910390a250565b8060038081111561721c57fe5b6009600083815260200190815260200160002060040160009054906101000a900460ff16600381111561724b57fe5b14151561725757600080fd5b81600960008281526020019081526020016000206008015434101515156172e6576040517f08c379a000000000000000000000000000000000000000000000000000000000815260040180806020018281038252600b8152602001807f4e6f7420456e6f7567682100000000000000000000000000000000000000000081525060200191505060405180910390fd5b60026009600085815260200190815260200160002060040160006101000a81548160ff0219169083600381111561731957fe5b0217905550336009600085815260200190815260200160002060010160006101000a81548173ffffffffffffffffffffffffffffffffffffffff021916908373ffffffffffffffffffffffffffffffffffffffff1602179055503360096000858152602001908152602001600020600b0160000160006101000a81548173ffffffffffffffffffffffffffffffffffffffff021916908373ffffffffffffffffffffffffffffffffffffffff1602179055507f761e3276be1dd60429a48581fa8d3df6c90c05fff554645023f8318bc29402b7836040518082815260200191505060405180910390a160006009600083815260200190815260200160002060080154905060008134039050600081141515617476573373ffffffffffffffffffffffffffffffffffffffff166108fc829081150290604051600060405180830381858888f19350505050158015617474573d6000803e3d6000fd5b505b5050505050565b816002600381111561748b57fe5b6009600083815260200190815260200160002060040160009054906101000a900460ff1660038111156174ba57fe5b1415156174c657600080fd5b82600160028111156174d457fe5b60096000838152602001908152602001600020600b0160020160009054906101000a900460ff16600281111561750657fe5b14151561751257600080fd5b61753f3384600060096000898152602001908152602001600020600b0161773e909392919063ffffffff16565b7f74c5d412ef45f2e49816788001b6e27a174bb63e91ade58fd0631869b74a6ec5846040518082815260200191505060405180910390a150505050565b617590816001617ff890919063ffffffff16565b8073ffffffffffffffffffffffffffffffffffffffff167f2fed5abf6a80d6dfe30b4895481b2fc5d7dce5f8f7b931832f4a2947d5040c7f60405160405180910390a250565b6175ea8160026180a790919063ffffffff16565b8073ffffffffffffffffffffffffffffffffffffffff167f97069a05372df648feb174cc125711b2c72a81450a1ab2769c8faf49917d7fd260405160405180910390a250565b6176448160046180a790919063ffffffff16565b8073ffffffffffffffffffffffffffffffffffffffff167f2860b5ba44f983f8f363ee6eeb3c24cbca3096803fbdd5129b9e253f01cac07660405160405180910390a250565b61769e8160036180a790919063ffffffff16565b8073ffffffffffffffffffffffffffffffffffffffff167fddbf200aa634dc3fb81cfd68583dd1040d1c751d335e1d86b631bde3e977fea860405160405180910390a250565b6176f88160006180a790919063ffffffff16565b8073ffffffffffffffffffffffffffffffffffffffff167f28b26e7a3d20aedbc5f8f2ebf7da671c0491723a2b78f47a097b0e46dee0714260405160405180910390a250565b600084600101549050600073ffffffffffffffffffffffffffffffffffffffff168473ffffffffffffffffffffffffffffffffffffffff161415151561778357600080fd5b61778d858561614a565b15151561779957600080fd5b600060028111156177a657fe5b8560020160009054906101000a900460ff1660028111156177c357fe5b141561782b578460000160009054906101000a900473ffffffffffffffffffffffffffffffffffffffff1673ffffffffffffffffffffffffffffffffffffffff163373ffffffffffffffffffffffffffffffffffffffff1614151561782757600080fd5b8190505b60028081111561783757fe5b8560020160009054906101000a900460ff16600281111561785457fe5b141561786057506179f8565b60018560050160008673ffffffffffffffffffffffffffffffffffffffff1673ffffffffffffffffffffffffffffffffffffffff16815260200190815260200160002060006101000a81548160ff0219169083151502179055506178c26184e5565b84816000019073ffffffffffffffffffffffffffffffffffffffff16908173ffffffffffffffffffffffffffffffffffffffff168152505083816020018190525081816040018181525050808660040160008860030154815260200190815260200160002060008201518160000160006101000a81548173ffffffffffffffffffffffffffffffffffffffff021916908373ffffffffffffffffffffffffffffffffffffffff160217905550602082015181600101908051906020019061798a9291906182d8565b506040820151816002015590505085600301548660060160008773ffffffffffffffffffffffffffffffffffffffff1673ffffffffffffffffffffffffffffffffffffffff168152602001908152602001600020819055506001866003016000828254019250508190555050505b50505050565b617a12816002617ff890919063ffffffff16565b8073ffffffffffffffffffffffffffffffffffffffff167fe16181bbb8b138f88a23696ae25f2c63713913e3fc6922b234a08639bf53cbea60405160405180910390a250565b617a6c8160056180a790919063ffffffff16565b8073ffffffffffffffffffffffffffffffffffffffff167f71ae26cad02663e3d92efd6ec56031a80d74a20c0ab4183faa8bf262261c9baa60405160405180910390a250565b600073ffffffffffffffffffffffffffffffffffffffff168173ffffffffffffffffffffffffffffffffffffffff1614151515617aee57600080fd5b8073ffffffffffffffffffffffffffffffffffffffff16600e60009054906101000a900473ffffffffffffffffffffffffffffffffffffffff1673ffffffffffffffffffffffffffffffffffffffff167f8be0079c531659141344cd1fd0a4f28419497f9722a3daafe3b4186f6b6457e060405160405180910390a380600e60006101000a81548173ffffffffffffffffffffffffffffffffffffffff021916908373ffffffffffffffffffffffffffffffffffffffff16021790555050565b816000600d60008381526020019081526020016000206000815481101515617bd257fe5b9060005260206000200154905060026006811115617bec57fe5b600c600083815260200190815260200160002060030160009054906101000a900460ff166006811115617c1b57fe5b141515617c2757600080fd5b6000600d600086815260200190815260200160002080549050905060008090505b81811015617dc4576000600d600088815260200190815260200160002082815481101515617c7257fe5b906000526020600020015490506003600c600083815260200190815260200160002060030160006101000a81548160ff02191690836006811115617cb257fe5b021790555033600c600083815260200190815260200160002060030160016101000a81548173ffffffffffffffffffffffffffffffffffffffff021916908373ffffffffffffffffffffffffffffffffffffffff16021790555033600c600083815260200190815260200160002060050160006101000a81548173ffffffffffffffffffffffffffffffffffffffff021916908373ffffffffffffffffffffffffffffffffffffffff16021790555085600c600083815260200190815260200160002060060160006101000a81548173ffffffffffffffffffffffffffffffffffffffff021916908373ffffffffffffffffffffffffffffffffffffffff160217905550508080600101915050617c48565b507f92f64ca637d023f354075a4be751b169c1a8a9ccb6d33cdd0cb3520543995727856040518082815260200191505060405180910390a15050505050565b606060016002811115617e1257fe5b8260020160009054906101000a900460ff166002811115617e2f57fe5b1415617e72576040805190810160405280600481526020017f4f70656e000000000000000000000000000000000000000000000000000000008152509050617f4c565b600280811115617e7e57fe5b8260020160009054906101000a900460ff166002811115617e9b57fe5b1415617ede576040805190810160405280600581526020017f436c6f73650000000000000000000000000000000000000000000000000000008152509050617f4c565b60006002811115617eeb57fe5b8260020160009054906101000a900460ff166002811115617f0857fe5b1415617f4b576040805190810160405280600881526020017f52657374726963740000000000000000000000000000000000000000000000008152509050617f4c565b5b919050565b6000806000905060008090505b8360030154811015617fee57600073ffffffffffffffffffffffffffffffffffffffff1684600401600083815260200190815260200160002060000160009054906101000a900473ffffffffffffffffffffffffffffffffffffffff1673ffffffffffffffffffffffffffffffffffffffff16141515617fe15781806001019250505b8080600101915050617f5e565b5080915050919050565b600073ffffffffffffffffffffffffffffffffffffffff168173ffffffffffffffffffffffffffffffffffffffff161415151561803457600080fd5b61803e82826162f4565b151561804957600080fd5b60008260000160008373ffffffffffffffffffffffffffffffffffffffff1673ffffffffffffffffffffffffffffffffffffffff16815260200190815260200160002060006101000a81548160ff0219169083151502179055505050565b600073ffffffffffffffffffffffffffffffffffffffff168173ffffffffffffffffffffffffffffffffffffffff16141515156180e357600080fd5b6180ed82826162f4565b1515156180f957600080fd5b60018260000160008373ffffffffffffffffffffffffffffffffffffffff1673ffffffffffffffffffffffffffffffffffffffff16815260200190815260200160002060006101000a81548160ff0219169083151502179055505050565b806005600681111561816557fe5b600c600083815260200190815260200160002060030160009054906101000a900460ff16600681111561819457fe5b1415156181a057600080fd5b816000600c6000838152602001908152602001600020600a0154141515156181c757600080fd5b6006600c600085815260200190815260200160002060030160006101000a81548160ff021916908360068111156181fa57fe5b021790555033600c600085815260200190815260200160002060030160016101000a81548173ffffffffffffffffffffffffffffffffffffffff021916908373ffffffffffffffffffffffffffffffffffffffff1602179055507f653d56639fee6b566a5c804764e9689de38645f0b733df89a36a1b7b42173dd8836040518082815260200191505060405180910390a1505050565b60a060405190810160405280600073ffffffffffffffffffffffffffffffffffffffff1681526020016000815260200160001515815260200160608152602001606081525090565b828054600181600116156101000203166002900490600052602060002090601f016020900481019282601f1061831957805160ff1916838001178555618347565b82800160010185558215618347579182015b8281111561834657825182559160200191906001019061832b565b5b509050618354919061851d565b5090565b608060405190810160405280600081526020016000815260200160008152602001600073ffffffffffffffffffffffffffffffffffffffff1681525090565b61016060405190810160405280600081526020016000815260200160008152602001600060068111156183c657fe5b8152602001600073ffffffffffffffffffffffffffffffffffffffff168152602001600073ffffffffffffffffffffffffffffffffffffffff168152602001600073ffffffffffffffffffffffffffffffffffffffff168152602001600073ffffffffffffffffffffffffffffffffffffffff1681526020016000815260200160008152602001600081525090565b6101c06040519081016040528060008152602001600073ffffffffffffffffffffffffffffffffffffffff168152602001600073ffffffffffffffffffffffffffffffffffffffff16815260200160608152602001600060038111156184b757fe5b81526020016184c4618542565b815260200160008152602001600081526020016184df618564565b81525090565b606060405190810160405280600073ffffffffffffffffffffffffffffffffffffffff16815260200160608152602001600081525090565b61853f91905b8082111561853b576000816000905550600101618523565b5090565b90565b6060604051908101604052806060815260200160608152602001606081525090565b608060405190810160405280600073ffffffffffffffffffffffffffffffffffffffff16815260200160008152602001600060028111156185a157fe5b815260200160008152509056fea165627a7a72305820c9b4d6872a5a093b03cd10375062f1a0e53e043d569d436bcbfdd8fd9716c90a0029",
  "source": "pragma solidity ^0.5.0;\n\n/// Import supply chain `Base` contract\nimport \"../Base/SupplyChain.sol\";\n\n/// Import `Ownable` contract from OpenZeppelin package\nimport \"openzeppelin-solidity/contracts/ownership/Ownable.sol\";\n\n/// Import `Secondary` contract from OpenZeppelin package\nimport \"openzeppelin-solidity/contracts/ownership/Secondary.sol\";\n\n\n/// @author Khalid F.Sh\n/// @title Main Chain Contract \n/// @dev  **TODO** this contract will use Proxy to make the suply chain upgradable\ncontract MainChain is SupplyChain, Ownable, Secondary {\n    constructor() public {\n\n    }\n\n    // Kill function if required\n    function kill() public onlyOwner() {\n        selfdestruct(msg.sender);\n    }\n\n    function purchaseDrug (uint _pku)\n        public\n        payable\n    {\n        super.purchaseDrug(_pku);\n\n        uint price = dItems[_pku].price;\n        address payable developerId = address(uint160(owner()));\n        uint developerBounty = price*1 /100;\n        developerId.transfer(developerBounty);\n\n    }\n\n}\n",
  "sourcePath": "/home/rajat/Desktop/ethereum/drug-supply-chain/contracts/Core/MainChain.sol",
  "compiler": {
    "name": "solc",
    "version": "0.5.0+commit.1d4f565a.Emscripten.clang"
  },
  "schemaVersion": "3.0.23",
  "updatedAt": "2020-02-28T20:53:17.193Z",
  "networkType": "ethereum",
  "devdoc": {
    "author": "Khalid F.Sh",
    "details": "**TODO** this contract will use Proxy to make the suply chain upgradable",
    "methods": {
      "addRegulator(address)": {
        "params": {
          "account": "address to be Added"
        }
      },
      "amIConsumer()": {
        "return": "boolean for caller address state in `_consumers` Role"
      },
      "amIDesigner()": {
        "return": "boolean for caller address state in `_designers` Role"
      },
      "amIDistributor()": {
        "return": "boolean for caller address state in `_distributors` Role"
      },
      "amIManufacturer()": {
        "return": "boolean for caller address state in `_manufacturers` Role"
      },
      "amIRegulator()": {
        "return": "boolean for caller address state in `_regulators` Role"
      },
      "amIRetailer()": {
        "return": "boolean for caller address state in `_retailers` Role"
      },
      "isConsumer(address)": {
        "params": {
          "account": "address to be checked"
        },
        "return": "boolean for this address state in `_consumers` Role"
      },
      "isDesigner(address)": {
        "params": {
          "account": "address to be checked"
        },
        "return": "boolean for this address state in `_designers` Role"
      },
      "isDistributor(address)": {
        "params": {
          "account": "address to be checked"
        },
        "return": "boolean for this address state in `_distributors` Role"
      },
      "isManufacturer(address)": {
        "params": {
          "account": "address to be checked"
        },
        "return": "boolean for this address state in `_manufacturers` Role"
      },
      "isOwner()": {
        "return": "true if `msg.sender` is the owner of the contract."
      },
      "isRegulator(address)": {
        "params": {
          "account": "address to be checked"
        },
        "return": "boolean for this address state in `_regulators` Role"
      },
      "isRetailer(address)": {
        "params": {
          "account": "address to be checked"
        },
        "return": "boolean for this address state in `_retailers` Role"
      },
      "owner()": {
        "return": "the address of the owner."
      },
      "pause()": {
        "details": "called by the owner to pause, triggers stopped state"
      },
      "paused()": {
        "return": "true if the contract is paused, false otherwise."
      },
      "primary()": {
        "return": "the address of the primary."
      },
      "renounceOwnership()": {
        "details": "Allows the current owner to relinquish control of the contract."
      },
      "transferOwnership(address)": {
        "details": "Allows the current owner to transfer control of the contract to a newOwner.",
        "params": {
          "newOwner": "The address to transfer ownership to."
        }
      },
      "transferPrimary(address)": {
        "details": "Transfers contract to a new primary.",
        "params": {
          "recipient": "The address of new primary."
        }
      },
      "unpause()": {
        "details": "called by the owner to unpause, returns to normal state"
      },
      "whoAmI()": {
        "return": "array contining every role with its state as boolean"
      }
    },
    "title": "Main Chain Contract "
  },
  "userdoc": {
    "methods": {
      "addDrugsLoud(uint256,uint256)": {
        "notice": "Function helps manufacturer to add Drug Loud for sale"
      },
      "addRegulator(address)": {
        "notice": "Function to add account to regulator role`onlyRegulator` modifier  assignd to sure that the whole role groub regulated"
      },
      "addTestCase(uint256,string,bool,string)": {
        "notice": "Add Test Case for Drug Design by currentOwner"
      },
      "amIConsumer()": {
        "notice": "Function to check caller `msg.sender` if he has consumer role"
      },
      "amIDesigner()": {
        "notice": "Function to check caller `msg.sender` if he has designer role"
      },
      "amIDistributor()": {
        "notice": "Function to check caller `msg.sender` if he has distributor role"
      },
      "amIManufacturer()": {
        "notice": "Function to check caller `msg.sender` if he has manufacturer role"
      },
      "amIRegulator()": {
        "notice": "Function to check caller `msg.sender` if he has regulator role"
      },
      "amIRetailer()": {
        "notice": "Function to check caller `msg.sender` if he has retailer role"
      },
      "assignMeAsConsumer()": {
        "notice": "Function to assign caller `msg.sender` to consumer role"
      },
      "assignMeAsDesigner()": {
        "notice": "Function to assign caller `msg.sender` to designer roledesigner allways should be a menufacturer, after checking isManufacturer add it if not"
      },
      "assignMeAsDistributor()": {
        "notice": "Function to assign caller `msg.sender` to distributor role"
      },
      "assignMeAsManufacturer()": {
        "notice": "Function to assign caller `msg.sender` to manufacturer role"
      },
      "assignMeAsRetailer()": {
        "notice": "Function to assign caller `msg.sender` to retailer role"
      },
      "buildPartnerContract(uint256,string)": {
        "notice": "Function to build a manufacturer partner contract"
      },
      "buildRestrictPartnerContract(uint256,address,string,uint256)": {
        "notice": "Function to build a manufacturer partner contract by the currentOwner when its restracted"
      },
      "buyDrugsLoud(uint256,address)": {
        "notice": "Function helps distributor to buy a Drug Loud it can be quantity only order but i think its not important for now"
      },
      "closeManufactPartnership(uint256)": {
        "notice": "Function to close manufacturer partnership"
      },
      "designDrug(string,string,string,string)": {
        "notice": "Function helps Designer to estaplish a new Drug Design"
      },
      "fetchDrugLoaudData(uint256)": {
        "notice": "public data featching functions"
      },
      "isConsumer(address)": {
        "notice": "Function to check even he has consumer role or notuses'Roles' library's internal function `has()` to check, refer to library for more detail"
      },
      "isDesigner(address)": {
        "notice": "Function to check even he has designer role or notuses'Roles' library's internal function `has()` to check, refer to library for more detail"
      },
      "isDistributor(address)": {
        "notice": "Function to check even he has distributor role or notuses'Roles' library's internal function `has()` to check, refer to library for more detail"
      },
      "isManufacturer(address)": {
        "notice": "Function to check even he has manufacturer role or notuses'Roles' library's internal function `has()` to check, refer to library for more detail"
      },
      "isRegulator(address)": {
        "notice": "Function to check even he has regulator role or notuses'Roles' library's internal function `has()` to check, refer to library for more detail"
      },
      "isRetailer(address)": {
        "notice": "Function to check even he has retailer role or notuses'Roles' library's internal function `has()` to check, refer to library for more detail"
      },
      "manufacturDrugsLoud(uint256,uint256)": {
        "notice": "Function helps manufacturer to manufactur a new Drug Loud"
      },
      "openManufactPartnership(uint256,uint256)": {
        "notice": "Function to open partnership for manufacturer"
      },
      "packDrugsLoud(uint256)": {
        "notice": "Function helps manufacturer to Pack a isManufactured Drug Loud"
      },
      "purchaseDrugDesign(uint256)": {
        "notice": "Function to purchase a drug design"
      },
      "receiveDrugsLoud(uint256)": {
        "notice": "Function helps manufacturer to Pack a isManufactured Drug Loud"
      },
      "renounceMeFromConsumer()": {
        "notice": "Function to renounce caller `msg.sender` from consumer role"
      },
      "renounceMeFromDesigner()": {
        "notice": "Function to renounce caller `msg.sender` from designer role"
      },
      "renounceMeFromDistributor()": {
        "notice": "Function to renounce caller `msg.sender` from distributor role"
      },
      "renounceMeFromManufacturer()": {
        "notice": "Function to renounce caller `msg.sender` from manufacturer role"
      },
      "renounceMeFromRegulator()": {
        "notice": "Function to renounce caller `msg.sender` from regulator role"
      },
      "renounceMeFromRetailer()": {
        "notice": "Function to renounce caller `msg.sender` from retailer role"
      },
      "renounceOwnership()": {
        "notice": "Renouncing to ownership will leave the contract without an owner. It will not be possible to call the functions with the `onlyOwner` modifier anymore."
      },
      "restrictManufactPartnership(uint256)": {
        "notice": "Function to open partnership for manufacturer"
      },
      "shipDrugsLoud(uint256)": {
        "notice": "Function helps manufacturer to ship a Drug Loud"
      },
      "upForSale(uint256,uint256)": {
        "notice": "Function to sale a drug design"
      },
      "updateDrugsLoudShippmentEnv(uint256,uint256,uint256)": {
        "notice": "Function helps manufacturer and distributor to update Drug Loud envuirment"
      },
      "updateDrugsLoudStockEnv(uint256,uint256,uint256)": {
        "notice": "Function helps manufacturer to Pack a isManufactured Drug Loud"
      },
      "whoAmI()": {
        "notice": "Function to check all roles for the caller"
      }
    }
  }
}