{
  "contractName": "Rolable",
  "abi": [
    {
      "constant": false,
      "inputs": [],
      "name": "renounceMeFromConsumer",
      "outputs": [],
      "payable": false,
      "stateMutability": "nonpayable",
      "type": "function"
    },
    {
      "constant": true,
      "inputs": [
        {
          "name": "account",
          "type": "address"
        }
      ],
      "name": "isManufacturer",
      "outputs": [
        {
          "name": "",
          "type": "bool"
        }
      ],
      "payable": false,
      "stateMutability": "view",
      "type": "function"
    },
    {
      "constant": true,
      "inputs": [],
      "name": "amIRetailer",
      "outputs": [
        {
          "name": "",
          "type": "bool"
        }
      ],
      "payable": false,
      "stateMutability": "view",
      "type": "function"
    },
    {
      "constant": true,
      "inputs": [],
      "name": "amIRegulator",
      "outputs": [
        {
          "name": "",
          "type": "bool"
        }
      ],
      "payable": false,
      "stateMutability": "view",
      "type": "function"
    },
    {
      "constant": false,
      "inputs": [],
      "name": "assignMeAsManufacturer",
      "outputs": [],
      "payable": false,
      "stateMutability": "nonpayable",
      "type": "function"
    },
    {
      "constant": true,
      "inputs": [
        {
          "name": "account",
          "type": "address"
        }
      ],
      "name": "isRegulator",
      "outputs": [
        {
          "name": "",
          "type": "bool"
        }
      ],
      "payable": false,
      "stateMutability": "view",
      "type": "function"
    },
    {
      "constant": false,
      "inputs": [],
      "name": "renounceMeFromDistributor",
      "outputs": [],
      "payable": false,
      "stateMutability": "nonpayable",
      "type": "function"
    },
    {
      "constant": true,
      "inputs": [
        {
          "name": "account",
          "type": "address"
        }
      ],
      "name": "isRetailer",
      "outputs": [
        {
          "name": "",
          "type": "bool"
        }
      ],
      "payable": false,
      "stateMutability": "view",
      "type": "function"
    },
    {
      "constant": true,
      "inputs": [],
      "name": "amIDesigner",
      "outputs": [
        {
          "name": "",
          "type": "bool"
        }
      ],
      "payable": false,
      "stateMutability": "view",
      "type": "function"
    },
    {
      "constant": false,
      "inputs": [],
      "name": "renounceMeFromRetailer",
      "outputs": [],
      "payable": false,
      "stateMutability": "nonpayable",
      "type": "function"
    },
    {
      "constant": true,
      "inputs": [
        {
          "name": "account",
          "type": "address"
        }
      ],
      "name": "isConsumer",
      "outputs": [
        {
          "name": "",
          "type": "bool"
        }
      ],
      "payable": false,
      "stateMutability": "view",
      "type": "function"
    },
    {
      "constant": false,
      "inputs": [],
      "name": "renounceMeFromRegulator",
      "outputs": [],
      "payable": false,
      "stateMutability": "nonpayable",
      "type": "function"
    },
    {
      "constant": true,
      "inputs": [
        {
          "name": "account",
          "type": "address"
        }
      ],
      "name": "isDistributor",
      "outputs": [
        {
          "name": "",
          "type": "bool"
        }
      ],
      "payable": false,
      "stateMutability": "view",
      "type": "function"
    },
    {
      "constant": true,
      "inputs": [],
      "name": "amIConsumer",
      "outputs": [
        {
          "name": "",
          "type": "bool"
        }
      ],
      "payable": false,
      "stateMutability": "view",
      "type": "function"
    },
    {
      "constant": false,
      "inputs": [],
      "name": "renounceMeFromManufacturer",
      "outputs": [],
      "payable": false,
      "stateMutability": "nonpayable",
      "type": "function"
    },
    {
      "constant": false,
      "inputs": [],
      "name": "assignMeAsDesigner",
      "outputs": [],
      "payable": false,
      "stateMutability": "nonpayable",
      "type": "function"
    },
    {
      "constant": true,
      "inputs": [
        {
          "name": "account",
          "type": "address"
        }
      ],
      "name": "isDesigner",
      "outputs": [
        {
          "name": "",
          "type": "bool"
        }
      ],
      "payable": false,
      "stateMutability": "view",
      "type": "function"
    },
    {
      "constant": false,
      "inputs": [
        {
          "name": "account",
          "type": "address"
        }
      ],
      "name": "addRegulator",
      "outputs": [],
      "payable": false,
      "stateMutability": "nonpayable",
      "type": "function"
    },
    {
      "constant": false,
      "inputs": [],
      "name": "assignMeAsDistributor",
      "outputs": [],
      "payable": false,
      "stateMutability": "nonpayable",
      "type": "function"
    },
    {
      "constant": false,
      "inputs": [],
      "name": "assignMeAsConsumer",
      "outputs": [],
      "payable": false,
      "stateMutability": "nonpayable",
      "type": "function"
    },
    {
      "constant": true,
      "inputs": [],
      "name": "amIDistributor",
      "outputs": [
        {
          "name": "",
          "type": "bool"
        }
      ],
      "payable": false,
      "stateMutability": "view",
      "type": "function"
    },
    {
      "constant": true,
      "inputs": [],
      "name": "amIManufacturer",
      "outputs": [
        {
          "name": "",
          "type": "bool"
        }
      ],
      "payable": false,
      "stateMutability": "view",
      "type": "function"
    },
    {
      "constant": false,
      "inputs": [],
      "name": "renounceMeFromDesigner",
      "outputs": [],
      "payable": false,
      "stateMutability": "nonpayable",
      "type": "function"
    },
    {
      "constant": false,
      "inputs": [],
      "name": "assignMeAsRetailer",
      "outputs": [],
      "payable": false,
      "stateMutability": "nonpayable",
      "type": "function"
    },
    {
      "anonymous": false,
      "inputs": [
        {
          "indexed": true,
          "name": "account",
          "type": "address"
        }
      ],
      "name": "RetailerAdded",
      "type": "event"
    },
    {
      "anonymous": false,
      "inputs": [
        {
          "indexed": true,
          "name": "account",
          "type": "address"
        }
      ],
      "name": "RetailerRemoved",
      "type": "event"
    },
    {
      "anonymous": false,
      "inputs": [
        {
          "indexed": true,
          "name": "account",
          "type": "address"
        }
      ],
      "name": "RegulatorAdded",
      "type": "event"
    },
    {
      "anonymous": false,
      "inputs": [
        {
          "indexed": true,
          "name": "account",
          "type": "address"
        }
      ],
      "name": "RegulatorRemoved",
      "type": "event"
    },
    {
      "anonymous": false,
      "inputs": [
        {
          "indexed": true,
          "name": "account",
          "type": "address"
        }
      ],
      "name": "DistributorAdded",
      "type": "event"
    },
    {
      "anonymous": false,
      "inputs": [
        {
          "indexed": true,
          "name": "account",
          "type": "address"
        }
      ],
      "name": "DistributorRemoved",
      "type": "event"
    },
    {
      "anonymous": false,
      "inputs": [
        {
          "indexed": true,
          "name": "account",
          "type": "address"
        }
      ],
      "name": "DesignerAdded",
      "type": "event"
    },
    {
      "anonymous": false,
      "inputs": [
        {
          "indexed": true,
          "name": "account",
          "type": "address"
        }
      ],
      "name": "DesignerRemoved",
      "type": "event"
    },
    {
      "anonymous": false,
      "inputs": [
        {
          "indexed": true,
          "name": "account",
          "type": "address"
        }
      ],
      "name": "ManufacturerAdded",
      "type": "event"
    },
    {
      "anonymous": false,
      "inputs": [
        {
          "indexed": true,
          "name": "account",
          "type": "address"
        }
      ],
      "name": "ManufacturerRemoved",
      "type": "event"
    },
    {
      "anonymous": false,
      "inputs": [
        {
          "indexed": true,
          "name": "account",
          "type": "address"
        }
      ],
      "name": "ConsumerAdded",
      "type": "event"
    },
    {
      "anonymous": false,
      "inputs": [
        {
          "indexed": true,
          "name": "account",
          "type": "address"
        }
      ],
      "name": "ConsumerRemoved",
      "type": "event"
    },
    {
      "constant": true,
      "inputs": [],
      "name": "whoAmI",
      "outputs": [
        {
          "name": "consumer",
          "type": "bool"
        },
        {
          "name": "retailer",
          "type": "bool"
        },
        {
          "name": "distributor",
          "type": "bool"
        },
        {
          "name": "manufacturer",
          "type": "bool"
        },
        {
          "name": "regulator",
          "type": "bool"
        },
        {
          "name": "designer",
          "type": "bool"
        }
      ],
      "payable": false,
      "stateMutability": "view",
      "type": "function"
    }
  ],
  "bytecode": "0x60806040526200001e33620000a6640100000000026401000000009004565b620000383362000110640100000000026401000000009004565b62000052336200017a640100000000026401000000009004565b6200006c33620001e4640100000000026401000000009004565b62000086336200024e640100000000026401000000009004565b620000a033620002b8640100000000026401000000009004565b6200047a565b620000ca816000620003226401000000000262000ec5179091906401000000009004565b8073ffffffffffffffffffffffffffffffffffffffff167f28b26e7a3d20aedbc5f8f2ebf7da671c0491723a2b78f47a097b0e46dee0714260405160405180910390a250565b62000134816001620003226401000000000262000ec5179091906401000000009004565b8073ffffffffffffffffffffffffffffffffffffffff167f561138658ca49a8540dc70dcfe64c9026c1c5b9344642242dd6562970f9c127860405160405180910390a250565b6200019e816002620003226401000000000262000ec5179091906401000000009004565b8073ffffffffffffffffffffffffffffffffffffffff167f97069a05372df648feb174cc125711b2c72a81450a1ab2769c8faf49917d7fd260405160405180910390a250565b62000208816003620003226401000000000262000ec5179091906401000000009004565b8073ffffffffffffffffffffffffffffffffffffffff167fddbf200aa634dc3fb81cfd68583dd1040d1c751d335e1d86b631bde3e977fea860405160405180910390a250565b62000272816004620003226401000000000262000ec5179091906401000000009004565b8073ffffffffffffffffffffffffffffffffffffffff167f2860b5ba44f983f8f363ee6eeb3c24cbca3096803fbdd5129b9e253f01cac07660405160405180910390a250565b620002dc816005620003226401000000000262000ec5179091906401000000009004565b8073ffffffffffffffffffffffffffffffffffffffff167f71ae26cad02663e3d92efd6ec56031a80d74a20c0ab4183faa8bf262261c9baa60405160405180910390a250565b600073ffffffffffffffffffffffffffffffffffffffff168173ffffffffffffffffffffffffffffffffffffffff16141515156200035f57600080fd5b6200037a8282620003e5640100000000026401000000009004565b1515156200038757600080fd5b60018260000160008373ffffffffffffffffffffffffffffffffffffffff1673ffffffffffffffffffffffffffffffffffffffff16815260200190815260200160002060006101000a81548160ff0219169083151502179055505050565b60008073ffffffffffffffffffffffffffffffffffffffff168273ffffffffffffffffffffffffffffffffffffffff16141515156200042357600080fd5b8260000160008373ffffffffffffffffffffffffffffffffffffffff1673ffffffffffffffffffffffffffffffffffffffff16815260200190815260200160002060009054906101000a900460ff16905092915050565b610fa1806200048a6000396000f3fe608060405260043610610149576000357c0100000000000000000000000000000000000000000000000000000000900463ffffffff168063118f74f51461014e57806317d4a491146101655780631d375b0c146101ce57806335c96e97146101fd57806348c149bd1461022c57806354fc91691461024357806355edd88b146102ac5780635da09b88146102c35780635ec5b7281461032c57806369d095c11461035b578063834ff73914610372578063879581ba146103db5780638f0c86fa146103f25780639af687a61461045b578063a40e210f1461048a578063a4a418b1146104a1578063a4f03e23146104b8578063ac63f3c714610521578063c4f2201114610572578063c82d9afc14610589578063cf196671146105a0578063da91254c146105cf578063e1d6f86f14610635578063eda0baa814610664578063ef2014771461067b575b600080fd5b34801561015a57600080fd5b50610163610692565b005b34801561017157600080fd5b506101b46004803603602081101561018857600080fd5b81019080803573ffffffffffffffffffffffffffffffffffffffff16906020019092919050505061069d565b604051808215151515815260200191505060405180910390f35b3480156101da57600080fd5b506101e36106ba565b604051808215151515815260200191505060405180910390f35b34801561020957600080fd5b506102126106d5565b604051808215151515815260200191505060405180910390f35b34801561023857600080fd5b506102416106f0565b005b34801561024f57600080fd5b506102926004803603602081101561026657600080fd5b81019080803573ffffffffffffffffffffffffffffffffffffffff1690602001909291905050506106fb565b604051808215151515815260200191505060405180910390f35b3480156102b857600080fd5b506102c1610718565b005b3480156102cf57600080fd5b50610312600480360360208110156102e657600080fd5b81019080803573ffffffffffffffffffffffffffffffffffffffff169060200190929190505050610723565b604051808215151515815260200191505060405180910390f35b34801561033857600080fd5b50610341610740565b604051808215151515815260200191505060405180910390f35b34801561036757600080fd5b5061037061075b565b005b34801561037e57600080fd5b506103c16004803603602081101561039557600080fd5b81019080803573ffffffffffffffffffffffffffffffffffffffff169060200190929190505050610766565b604051808215151515815260200191505060405180910390f35b3480156103e757600080fd5b506103f0610783565b005b3480156103fe57600080fd5b506104416004803603602081101561041557600080fd5b81019080803573ffffffffffffffffffffffffffffffffffffffff16906020019092919050505061078e565b604051808215151515815260200191505060405180910390f35b34801561046757600080fd5b506104706107ab565b604051808215151515815260200191505060405180910390f35b34801561049657600080fd5b5061049f6107c6565b005b3480156104ad57600080fd5b506104b66107d1565b005b3480156104c457600080fd5b50610507600480360360208110156104db57600080fd5b81019080803573ffffffffffffffffffffffffffffffffffffffff1690602001909291905050506107f5565b604051808215151515815260200191505060405180910390f35b34801561052d57600080fd5b506105706004803603602081101561054457600080fd5b81019080803573ffffffffffffffffffffffffffffffffffffffff169060200190929190505050610812565b005b34801561057e57600080fd5b5061058761089b565b005b34801561059557600080fd5b5061059e6108a6565b005b3480156105ac57600080fd5b506105b56108b1565b604051808215151515815260200191505060405180910390f35b3480156105db57600080fd5b506105e46108cc565b60405180871515151581526020018615151515815260200185151515158152602001841515151581526020018315151515815260200182151515158152602001965050505050505060405180910390f35b34801561064157600080fd5b5061064a610919565b604051808215151515815260200191505060405180910390f35b34801561067057600080fd5b50610679610934565b005b34801561068757600080fd5b5061069061093f565b005b61069b3361094a565b565b60006106b38260016109a490919063ffffffff16565b9050919050565b60006106d03360056109a490919063ffffffff16565b905090565b60006106eb3360046109a490919063ffffffff16565b905090565b6106f933610a38565b565b60006107118260046109a490919063ffffffff16565b9050919050565b61072133610a92565b565b60006107398260056109a490919063ffffffff16565b9050919050565b60006107563360026109a490919063ffffffff16565b905090565b61076433610aec565b565b600061077c8260006109a490919063ffffffff16565b9050919050565b61078c33610b46565b565b60006107a48260036109a490919063ffffffff16565b9050919050565b60006107c13360006109a490919063ffffffff16565b905090565b6107cf33610ba0565b565b6107da33610bfa565b6107e33361069d565b15156107f3576107f233610a38565b5b565b600061080b8260026109a490919063ffffffff16565b9050919050565b61081b336106fb565b151561088f576040517f08c379a00000000000000000000000000000000000000000000000000000000081526004018080602001828103825260108152602001807f4e6f74204120526567756c61746f72210000000000000000000000000000000081525060200191505060405180910390fd5b61089881610c54565b50565b6108a433610cae565b565b6108af33610d08565b565b60006108c73360036109a490919063ffffffff16565b905090565b6000806000806000806108dd6107ab565b95506108e76106ba565b94506108f16108b1565b93506108fb610919565b92506109056106d5565b915061090f610740565b9050909192939495565b600061092f3360016109a490919063ffffffff16565b905090565b61093d33610d62565b565b61094833610dbc565b565b61095e816000610e1690919063ffffffff16565b8073ffffffffffffffffffffffffffffffffffffffff167fe3f5ed5f263f1f01764a96edfc7d025f511ec5f7d180e8816908b78bcf74f09860405160405180910390a250565b60008073ffffffffffffffffffffffffffffffffffffffff168273ffffffffffffffffffffffffffffffffffffffff16141515156109e157600080fd5b8260000160008373ffffffffffffffffffffffffffffffffffffffff1673ffffffffffffffffffffffffffffffffffffffff16815260200190815260200160002060009054906101000a900460ff16905092915050565b610a4c816001610ec590919063ffffffff16565b8073ffffffffffffffffffffffffffffffffffffffff167f561138658ca49a8540dc70dcfe64c9026c1c5b9344642242dd6562970f9c127860405160405180910390a250565b610aa6816003610e1690919063ffffffff16565b8073ffffffffffffffffffffffffffffffffffffffff167f126174f6cf49c81cdb4a9214c6b8f037bef55b4ec31e4fc776cea2a1c8a88d5960405160405180910390a250565b610b00816005610e1690919063ffffffff16565b8073ffffffffffffffffffffffffffffffffffffffff167fdb7176e79cffef81cb01767dd0447a0b24bb72ca9778d4b245581086b2a7e6db60405160405180910390a250565b610b5a816004610e1690919063ffffffff16565b8073ffffffffffffffffffffffffffffffffffffffff167fc8ecc453f78c13ccc7596603b61935f29b99dc15bb91b91647e1ccf2469ad00a60405160405180910390a250565b610bb4816001610e1690919063ffffffff16565b8073ffffffffffffffffffffffffffffffffffffffff167f2fed5abf6a80d6dfe30b4895481b2fc5d7dce5f8f7b931832f4a2947d5040c7f60405160405180910390a250565b610c0e816002610ec590919063ffffffff16565b8073ffffffffffffffffffffffffffffffffffffffff167f97069a05372df648feb174cc125711b2c72a81450a1ab2769c8faf49917d7fd260405160405180910390a250565b610c68816004610ec590919063ffffffff16565b8073ffffffffffffffffffffffffffffffffffffffff167f2860b5ba44f983f8f363ee6eeb3c24cbca3096803fbdd5129b9e253f01cac07660405160405180910390a250565b610cc2816003610ec590919063ffffffff16565b8073ffffffffffffffffffffffffffffffffffffffff167fddbf200aa634dc3fb81cfd68583dd1040d1c751d335e1d86b631bde3e977fea860405160405180910390a250565b610d1c816000610ec590919063ffffffff16565b8073ffffffffffffffffffffffffffffffffffffffff167f28b26e7a3d20aedbc5f8f2ebf7da671c0491723a2b78f47a097b0e46dee0714260405160405180910390a250565b610d76816002610e1690919063ffffffff16565b8073ffffffffffffffffffffffffffffffffffffffff167fe16181bbb8b138f88a23696ae25f2c63713913e3fc6922b234a08639bf53cbea60405160405180910390a250565b610dd0816005610ec590919063ffffffff16565b8073ffffffffffffffffffffffffffffffffffffffff167f71ae26cad02663e3d92efd6ec56031a80d74a20c0ab4183faa8bf262261c9baa60405160405180910390a250565b600073ffffffffffffffffffffffffffffffffffffffff168173ffffffffffffffffffffffffffffffffffffffff1614151515610e5257600080fd5b610e5c82826109a4565b1515610e6757600080fd5b60008260000160008373ffffffffffffffffffffffffffffffffffffffff1673ffffffffffffffffffffffffffffffffffffffff16815260200190815260200160002060006101000a81548160ff0219169083151502179055505050565b600073ffffffffffffffffffffffffffffffffffffffff168173ffffffffffffffffffffffffffffffffffffffff1614151515610f0157600080fd5b610f0b82826109a4565b151515610f1757600080fd5b60018260000160008373ffffffffffffffffffffffffffffffffffffffff1673ffffffffffffffffffffffffffffffffffffffff16815260200190815260200160002060006101000a81548160ff021916908315150217905550505056fea165627a7a7230582062f05450daddb931e892c015a0e36bc54383e684813a12821773e3b63a0bf02a0029",
  "source": "pragma solidity ^0.5.0;\n\n/// Import all Roles\nimport \"./Roles/Consumer.sol\";\nimport \"./Roles/Designer.sol\";\nimport \"./Roles/Distributor.sol\";\nimport \"./Roles/Manufacturer.sol\";\nimport \"./Roles/Regulator.sol\";\nimport \"./Roles/Retailer.sol\";\n\n\n/// @author Khalid F.Sh\n/// @title Role Ability Contract\n/// @dev contract for adopting all roles in access control\ncontract Rolable is Consumer, Designer, Distributor, Regulator, Retailer {\n\n    /// Function to check all roles for the caller\n    /// @return array contining every role with its state as boolean\n    function whoAmI() public view returns(\n        bool consumer,\n        bool retailer,\n        bool distributor,\n        bool manufacturer,\n        bool regulator,\n        bool designer\n    )\n    {\n        consumer = amIConsumer();\n        retailer = amIRetailer();\n        distributor = amIDistributor();\n        manufacturer = amIManufacturer();\n        regulator = amIRegulator();\n        designer = amIDesigner();\n    }\n}\n",
  "sourcePath": "/home/rajat/Desktop/ethereum/drug-supply-chain/contracts/AccessControl/Rolable.sol",
  "compiler": {
    "name": "solc",
    "version": "0.5.0+commit.1d4f565a.Emscripten.clang"
  },
  "schemaVersion": "3.0.23",
  "updatedAt": "2020-02-18T22:31:33.414Z",
  "devdoc": {
    "author": "Khalid F.Sh",
    "details": "contract for adopting all roles in access control",
    "methods": {
      "addRegulator(address)": {
        "params": {
          "account": "address to be Added"
        }
      },
      "amIConsumer()": {
        "return": "boolean for caller address state in `_consumers` Role"
      },
      "amIDesigner()": {
        "return": "boolean for caller address state in `_designers` Role"
      },
      "amIDistributor()": {
        "return": "boolean for caller address state in `_distributors` Role"
      },
      "amIManufacturer()": {
        "return": "boolean for caller address state in `_manufacturers` Role"
      },
      "amIRegulator()": {
        "return": "boolean for caller address state in `_regulators` Role"
      },
      "amIRetailer()": {
        "return": "boolean for caller address state in `_retailers` Role"
      },
      "isConsumer(address)": {
        "params": {
          "account": "address to be checked"
        },
        "return": "boolean for this address state in `_consumers` Role"
      },
      "isDesigner(address)": {
        "params": {
          "account": "address to be checked"
        },
        "return": "boolean for this address state in `_designers` Role"
      },
      "isDistributor(address)": {
        "params": {
          "account": "address to be checked"
        },
        "return": "boolean for this address state in `_distributors` Role"
      },
      "isManufacturer(address)": {
        "params": {
          "account": "address to be checked"
        },
        "return": "boolean for this address state in `_manufacturers` Role"
      },
      "isRegulator(address)": {
        "params": {
          "account": "address to be checked"
        },
        "return": "boolean for this address state in `_regulators` Role"
      },
      "isRetailer(address)": {
        "params": {
          "account": "address to be checked"
        },
        "return": "boolean for this address state in `_retailers` Role"
      },
      "whoAmI()": {
        "return": "array contining every role with its state as boolean"
      }
    },
    "title": "Role Ability Contract"
  },
  "userdoc": {
    "methods": {
      "addRegulator(address)": {
        "notice": "Function to add account to regulator role`onlyRegulator` modifier  assignd to sure that the whole role groub regulated"
      },
      "amIConsumer()": {
        "notice": "Function to check caller `msg.sender` if he has consumer role"
      },
      "amIDesigner()": {
        "notice": "Function to check caller `msg.sender` if he has designer role"
      },
      "amIDistributor()": {
        "notice": "Function to check caller `msg.sender` if he has distributor role"
      },
      "amIManufacturer()": {
        "notice": "Function to check caller `msg.sender` if he has manufacturer role"
      },
      "amIRegulator()": {
        "notice": "Function to check caller `msg.sender` if he has regulator role"
      },
      "amIRetailer()": {
        "notice": "Function to check caller `msg.sender` if he has retailer role"
      },
      "assignMeAsConsumer()": {
        "notice": "Function to assign caller `msg.sender` to consumer role"
      },
      "assignMeAsDesigner()": {
        "notice": "Function to assign caller `msg.sender` to designer roledesigner allways should be a menufacturer, after checking isManufacturer add it if not"
      },
      "assignMeAsDistributor()": {
        "notice": "Function to assign caller `msg.sender` to distributor role"
      },
      "assignMeAsManufacturer()": {
        "notice": "Function to assign caller `msg.sender` to manufacturer role"
      },
      "assignMeAsRetailer()": {
        "notice": "Function to assign caller `msg.sender` to retailer role"
      },
      "isConsumer(address)": {
        "notice": "Function to check even he has consumer role or notuses'Roles' library's internal function `has()` to check, refer to library for more detail"
      },
      "isDesigner(address)": {
        "notice": "Function to check even he has designer role or notuses'Roles' library's internal function `has()` to check, refer to library for more detail"
      },
      "isDistributor(address)": {
        "notice": "Function to check even he has distributor role or notuses'Roles' library's internal function `has()` to check, refer to library for more detail"
      },
      "isManufacturer(address)": {
        "notice": "Function to check even he has manufacturer role or notuses'Roles' library's internal function `has()` to check, refer to library for more detail"
      },
      "isRegulator(address)": {
        "notice": "Function to check even he has regulator role or notuses'Roles' library's internal function `has()` to check, refer to library for more detail"
      },
      "isRetailer(address)": {
        "notice": "Function to check even he has retailer role or notuses'Roles' library's internal function `has()` to check, refer to library for more detail"
      },
      "renounceMeFromConsumer()": {
        "notice": "Function to renounce caller `msg.sender` from consumer role"
      },
      "renounceMeFromDesigner()": {
        "notice": "Function to renounce caller `msg.sender` from designer role"
      },
      "renounceMeFromDistributor()": {
        "notice": "Function to renounce caller `msg.sender` from distributor role"
      },
      "renounceMeFromManufacturer()": {
        "notice": "Function to renounce caller `msg.sender` from manufacturer role"
      },
      "renounceMeFromRegulator()": {
        "notice": "Function to renounce caller `msg.sender` from regulator role"
      },
      "renounceMeFromRetailer()": {
        "notice": "Function to renounce caller `msg.sender` from retailer role"
      },
      "whoAmI()": {
        "notice": "Function to check all roles for the caller"
      }
    }
  }
}