{
  "contractName": "SupplyChain",
  "abi": [
    {
      "constant": true,
      "inputs": [
        {
          "name": "_udpc",
          "type": "uint256"
        },
        {
          "name": "_manufacturerId",
          "type": "address"
        }
      ],
      "name": "isManufacturerOf",
      "outputs": [
        {
          "name": "",
          "type": "bool"
        }
      ],
      "payable": false,
      "stateMutability": "view",
      "type": "function"
    },
    {
      "constant": false,
      "inputs": [],
      "name": "renounceMeFromConsumer",
      "outputs": [],
      "payable": false,
      "stateMutability": "nonpayable",
      "type": "function"
    },
    {
      "constant": true,
      "inputs": [
        {
          "name": "account",
          "type": "address"
        }
      ],
      "name": "isManufacturer",
      "outputs": [
        {
          "name": "",
          "type": "bool"
        }
      ],
      "payable": false,
      "stateMutability": "view",
      "type": "function"
    },
    {
      "constant": true,
      "inputs": [],
      "name": "amIRetailer",
      "outputs": [
        {
          "name": "",
          "type": "bool"
        }
      ],
      "payable": false,
      "stateMutability": "view",
      "type": "function"
    },
    {
      "constant": false,
      "inputs": [
        {
          "name": "_udpc",
          "type": "uint256"
        },
        {
          "name": "_description",
          "type": "string"
        },
        {
          "name": "_isPassed",
          "type": "bool"
        },
        {
          "name": "_notes",
          "type": "string"
        }
      ],
      "name": "addTestCase",
      "outputs": [],
      "payable": false,
      "stateMutability": "nonpayable",
      "type": "function"
    },
    {
      "constant": true,
      "inputs": [],
      "name": "amIRegulator",
      "outputs": [
        {
          "name": "",
          "type": "bool"
        }
      ],
      "payable": false,
      "stateMutability": "view",
      "type": "function"
    },
    {
      "constant": false,
      "inputs": [
        {
          "name": "_udpc",
          "type": "uint256"
        }
      ],
      "name": "restrictManufactPartnership",
      "outputs": [],
      "payable": false,
      "stateMutability": "nonpayable",
      "type": "function"
    },
    {
      "constant": false,
      "inputs": [],
      "name": "unpause",
      "outputs": [],
      "payable": false,
      "stateMutability": "nonpayable",
      "type": "function"
    },
    {
      "constant": true,
      "inputs": [
        {
          "name": "_udpc",
          "type": "uint256"
        },
        {
          "name": "_manufacturerId",
          "type": "address"
        }
      ],
      "name": "manufacturerSharesOf",
      "outputs": [
        {
          "name": "",
          "type": "uint256"
        }
      ],
      "payable": false,
      "stateMutability": "view",
      "type": "function"
    },
    {
      "constant": true,
      "inputs": [
        {
          "name": "_udpc",
          "type": "uint256"
        }
      ],
      "name": "featchDrugDesignMetaData",
      "outputs": [
        {
          "name": "name",
          "type": "string"
        },
        {
          "name": "description",
          "type": "string"
        },
        {
          "name": "notes",
          "type": "string"
        }
      ],
      "payable": false,
      "stateMutability": "view",
      "type": "function"
    },
    {
      "constant": true,
      "inputs": [
        {
          "name": "account",
          "type": "address"
        }
      ],
      "name": "isPauser",
      "outputs": [
        {
          "name": "",
          "type": "bool"
        }
      ],
      "payable": false,
      "stateMutability": "view",
      "type": "function"
    },
    {
      "constant": false,
      "inputs": [],
      "name": "assignMeAsManufacturer",
      "outputs": [],
      "payable": false,
      "stateMutability": "nonpayable",
      "type": "function"
    },
    {
      "constant": true,
      "inputs": [
        {
          "name": "account",
          "type": "address"
        }
      ],
      "name": "isRegulator",
      "outputs": [
        {
          "name": "",
          "type": "bool"
        }
      ],
      "payable": false,
      "stateMutability": "view",
      "type": "function"
    },
    {
      "constant": false,
      "inputs": [],
      "name": "renounceMeFromDistributor",
      "outputs": [],
      "payable": false,
      "stateMutability": "nonpayable",
      "type": "function"
    },
    {
      "constant": true,
      "inputs": [],
      "name": "paused",
      "outputs": [
        {
          "name": "",
          "type": "bool"
        }
      ],
      "payable": false,
      "stateMutability": "view",
      "type": "function"
    },
    {
      "constant": true,
      "inputs": [
        {
          "name": "account",
          "type": "address"
        }
      ],
      "name": "isRetailer",
      "outputs": [
        {
          "name": "",
          "type": "bool"
        }
      ],
      "payable": false,
      "stateMutability": "view",
      "type": "function"
    },
    {
      "constant": true,
      "inputs": [],
      "name": "amIDesigner",
      "outputs": [
        {
          "name": "",
          "type": "bool"
        }
      ],
      "payable": false,
      "stateMutability": "view",
      "type": "function"
    },
    {
      "constant": false,
      "inputs": [
        {
          "name": "_udpc",
          "type": "uint256"
        },
        {
          "name": "_shares",
          "type": "uint256"
        }
      ],
      "name": "openManufactPartnership",
      "outputs": [],
      "payable": false,
      "stateMutability": "nonpayable",
      "type": "function"
    },
    {
      "constant": false,
      "inputs": [
        {
          "name": "_slu",
          "type": "uint256"
        },
        {
          "name": "_humidity",
          "type": "uint256"
        },
        {
          "name": "_temprture",
          "type": "uint256"
        }
      ],
      "name": "updateDrugsLoudStockEnv",
      "outputs": [],
      "payable": false,
      "stateMutability": "nonpayable",
      "type": "function"
    },
    {
      "constant": false,
      "inputs": [],
      "name": "renounceMeFromRetailer",
      "outputs": [],
      "payable": false,
      "stateMutability": "nonpayable",
      "type": "function"
    },
    {
      "constant": false,
      "inputs": [],
      "name": "renouncePauser",
      "outputs": [],
      "payable": false,
      "stateMutability": "nonpayable",
      "type": "function"
    },
    {
      "constant": false,
      "inputs": [
        {
          "name": "_slu",
          "type": "uint256"
        },
        {
          "name": "_humidity",
          "type": "uint256"
        },
        {
          "name": "_temprture",
          "type": "uint256"
        }
      ],
      "name": "updateDrugsLoudShippmentEnv",
      "outputs": [],
      "payable": false,
      "stateMutability": "nonpayable",
      "type": "function"
    },
    {
      "constant": false,
      "inputs": [
        {
          "name": "_udpc",
          "type": "uint256"
        },
        {
          "name": "_price",
          "type": "uint256"
        }
      ],
      "name": "upForSale",
      "outputs": [],
      "payable": false,
      "stateMutability": "nonpayable",
      "type": "function"
    },
    {
      "constant": false,
      "inputs": [
        {
          "name": "account",
          "type": "address"
        }
      ],
      "name": "addPauser",
      "outputs": [],
      "payable": false,
      "stateMutability": "nonpayable",
      "type": "function"
    },
    {
      "constant": true,
      "inputs": [
        {
          "name": "account",
          "type": "address"
        }
      ],
      "name": "isConsumer",
      "outputs": [
        {
          "name": "",
          "type": "bool"
        }
      ],
      "payable": false,
      "stateMutability": "view",
      "type": "function"
    },
    {
      "constant": false,
      "inputs": [],
      "name": "pause",
      "outputs": [],
      "payable": false,
      "stateMutability": "nonpayable",
      "type": "function"
    },
    {
      "constant": false,
      "inputs": [],
      "name": "renounceMeFromRegulator",
      "outputs": [],
      "payable": false,
      "stateMutability": "nonpayable",
      "type": "function"
    },
    {
      "constant": true,
      "inputs": [
        {
          "name": "account",
          "type": "address"
        }
      ],
      "name": "isDistributor",
      "outputs": [
        {
          "name": "",
          "type": "bool"
        }
      ],
      "payable": false,
      "stateMutability": "view",
      "type": "function"
    },
    {
      "constant": true,
      "inputs": [],
      "name": "amIConsumer",
      "outputs": [
        {
          "name": "",
          "type": "bool"
        }
      ],
      "payable": false,
      "stateMutability": "view",
      "type": "function"
    },
    {
      "constant": false,
      "inputs": [],
      "name": "renounceMeFromManufacturer",
      "outputs": [],
      "payable": false,
      "stateMutability": "nonpayable",
      "type": "function"
    },
    {
      "constant": false,
      "inputs": [],
      "name": "assignMeAsDesigner",
      "outputs": [],
      "payable": false,
      "stateMutability": "nonpayable",
      "type": "function"
    },
    {
      "constant": true,
      "inputs": [
        {
          "name": "account",
          "type": "address"
        }
      ],
      "name": "isDesigner",
      "outputs": [
        {
          "name": "",
          "type": "bool"
        }
      ],
      "payable": false,
      "stateMutability": "view",
      "type": "function"
    },
    {
      "constant": true,
      "inputs": [
        {
          "name": "_pku",
          "type": "uint256"
        }
      ],
      "name": "fetchEnvHistory",
      "outputs": [
        {
          "name": "numberOfupdate",
          "type": "uint256"
        },
        {
          "name": "timeStamps",
          "type": "uint256[]"
        },
        {
          "name": "temprtures",
          "type": "uint256[]"
        },
        {
          "name": "humiditys",
          "type": "uint256[]"
        },
        {
          "name": "updaterAddresses",
          "type": "address[]"
        }
      ],
      "payable": false,
      "stateMutability": "view",
      "type": "function"
    },
    {
      "constant": false,
      "inputs": [
        {
          "name": "account",
          "type": "address"
        }
      ],
      "name": "addRegulator",
      "outputs": [],
      "payable": false,
      "stateMutability": "nonpayable",
      "type": "function"
    },
    {
      "constant": false,
      "inputs": [
        {
          "name": "_slu",
          "type": "uint256"
        }
      ],
      "name": "shipDrugsLoud",
      "outputs": [],
      "payable": false,
      "stateMutability": "nonpayable",
      "type": "function"
    },
    {
      "constant": false,
      "inputs": [
        {
          "name": "_slu",
          "type": "uint256"
        },
        {
          "name": "_unitPrice",
          "type": "uint256"
        }
      ],
      "name": "addDrugsLoud",
      "outputs": [],
      "payable": false,
      "stateMutability": "nonpayable",
      "type": "function"
    },
    {
      "constant": false,
      "inputs": [
        {
          "name": "_slu",
          "type": "uint256"
        }
      ],
      "name": "packDrugsLoud",
      "outputs": [],
      "payable": false,
      "stateMutability": "nonpayable",
      "type": "function"
    },
    {
      "constant": false,
      "inputs": [],
      "name": "assignMeAsDistributor",
      "outputs": [],
      "payable": false,
      "stateMutability": "nonpayable",
      "type": "function"
    },
    {
      "constant": true,
      "inputs": [
        {
          "name": "_udpc",
          "type": "uint256"
        },
        {
          "name": "_testIndex",
          "type": "uint256"
        }
      ],
      "name": "featchDrugDesignTestCases",
      "outputs": [
        {
          "name": "description",
          "type": "string"
        },
        {
          "name": "isPassed",
          "type": "bool"
        },
        {
          "name": "notes",
          "type": "string"
        }
      ],
      "payable": false,
      "stateMutability": "view",
      "type": "function"
    },
    {
      "constant": false,
      "inputs": [],
      "name": "assignMeAsConsumer",
      "outputs": [],
      "payable": false,
      "stateMutability": "nonpayable",
      "type": "function"
    },
    {
      "constant": true,
      "inputs": [],
      "name": "amIDistributor",
      "outputs": [
        {
          "name": "",
          "type": "bool"
        }
      ],
      "payable": false,
      "stateMutability": "view",
      "type": "function"
    },
    {
      "constant": false,
      "inputs": [
        {
          "name": "_slu",
          "type": "uint256"
        }
      ],
      "name": "receiveDrugsLoud",
      "outputs": [],
      "payable": false,
      "stateMutability": "nonpayable",
      "type": "function"
    },
    {
      "constant": true,
      "inputs": [
        {
          "name": "_slu",
          "type": "uint256"
        }
      ],
      "name": "fetchLoudPKUs",
      "outputs": [
        {
          "name": "loadPKUs",
          "type": "uint256[]"
        }
      ],
      "payable": false,
      "stateMutability": "view",
      "type": "function"
    },
    {
      "constant": true,
      "inputs": [
        {
          "name": "_slu",
          "type": "uint256"
        }
      ],
      "name": "fetchDrugLoaudData",
      "outputs": [
        {
          "name": "quantity",
          "type": "uint256"
        },
        {
          "name": "_udpc",
          "type": "uint256"
        },
        {
          "name": "state",
          "type": "string"
        },
        {
          "name": "currentOwner",
          "type": "address"
        },
        {
          "name": "manufacturerId",
          "type": "address"
        },
        {
          "name": "deistributorId",
          "type": "address"
        },
        {
          "name": "retailerId",
          "type": "address"
        },
        {
          "name": "price",
          "type": "uint256"
        }
      ],
      "payable": false,
      "stateMutability": "view",
      "type": "function"
    },
    {
      "constant": true,
      "inputs": [],
      "name": "whoAmI",
      "outputs": [
        {
          "name": "consumer",
          "type": "bool"
        },
        {
          "name": "retailer",
          "type": "bool"
        },
        {
          "name": "distributor",
          "type": "bool"
        },
        {
          "name": "manufacturer",
          "type": "bool"
        },
        {
          "name": "regulator",
          "type": "bool"
        },
        {
          "name": "designer",
          "type": "bool"
        }
      ],
      "payable": false,
      "stateMutability": "view",
      "type": "function"
    },
    {
      "constant": true,
      "inputs": [],
      "name": "amIManufacturer",
      "outputs": [
        {
          "name": "",
          "type": "bool"
        }
      ],
      "payable": false,
      "stateMutability": "view",
      "type": "function"
    },
    {
      "constant": false,
      "inputs": [
        {
          "name": "_udpc",
          "type": "uint256"
        },
        {
          "name": "_partner",
          "type": "address"
        },
        {
          "name": "_name",
          "type": "string"
        },
        {
          "name": "_shares",
          "type": "uint256"
        }
      ],
      "name": "buildRestrictPartnerContract",
      "outputs": [],
      "payable": false,
      "stateMutability": "nonpayable",
      "type": "function"
    },
    {
      "constant": false,
      "inputs": [
        {
          "name": "_udpc",
          "type": "uint256"
        }
      ],
      "name": "closeManufactPartnership",
      "outputs": [],
      "payable": false,
      "stateMutability": "nonpayable",
      "type": "function"
    },
    {
      "constant": true,
      "inputs": [
        {
          "name": "_pku",
          "type": "uint256"
        }
      ],
      "name": "fetchDrugItemData",
      "outputs": [
        {
          "name": "_udpc",
          "type": "uint256"
        },
        {
          "name": "_slu",
          "type": "uint256"
        },
        {
          "name": "state",
          "type": "string"
        },
        {
          "name": "currentOwner",
          "type": "address"
        },
        {
          "name": "manufacturerId",
          "type": "address"
        },
        {
          "name": "deistributorId",
          "type": "address"
        },
        {
          "name": "retailerId",
          "type": "address"
        },
        {
          "name": "price",
          "type": "uint256"
        },
        {
          "name": "packingTimeStamp",
          "type": "uint256"
        },
        {
          "name": "numberOfEnvUpdate",
          "type": "uint256"
        }
      ],
      "payable": false,
      "stateMutability": "view",
      "type": "function"
    },
    {
      "constant": false,
      "inputs": [],
      "name": "renounceMeFromDesigner",
      "outputs": [],
      "payable": false,
      "stateMutability": "nonpayable",
      "type": "function"
    },
    {
      "constant": false,
      "inputs": [],
      "name": "assignMeAsRetailer",
      "outputs": [],
      "payable": false,
      "stateMutability": "nonpayable",
      "type": "function"
    },
    {
      "constant": true,
      "inputs": [
        {
          "name": "_udpc",
          "type": "uint256"
        }
      ],
      "name": "fetchDrugDesignData",
      "outputs": [
        {
          "name": "currentOwner",
          "type": "address"
        },
        {
          "name": "designerId",
          "type": "address"
        },
        {
          "name": "designerName",
          "type": "string"
        },
        {
          "name": "drugName",
          "type": "string"
        },
        {
          "name": "currentState",
          "type": "string"
        },
        {
          "name": "forSale",
          "type": "bool"
        },
        {
          "name": "salePrice",
          "type": "uint256"
        },
        {
          "name": "partnershipState",
          "type": "string"
        },
        {
          "name": "partnershipShares",
          "type": "uint256"
        },
        {
          "name": "numberOfTests",
          "type": "uint256"
        },
        {
          "name": "numberOfManufacturers",
          "type": "uint256"
        }
      ],
      "payable": false,
      "stateMutability": "view",
      "type": "function"
    },
    {
      "inputs": [],
      "payable": false,
      "stateMutability": "nonpayable",
      "type": "constructor"
    },
    {
      "anonymous": false,
      "inputs": [
        {
          "indexed": false,
          "name": "slu",
          "type": "uint256"
        }
      ],
      "name": "Manufactured",
      "type": "event"
    },
    {
      "anonymous": false,
      "inputs": [
        {
          "indexed": false,
          "name": "slu",
          "type": "uint256"
        }
      ],
      "name": "Packed",
      "type": "event"
    },
    {
      "anonymous": false,
      "inputs": [
        {
          "indexed": false,
          "name": "slu",
          "type": "uint256"
        }
      ],
      "name": "ForSale",
      "type": "event"
    },
    {
      "anonymous": false,
      "inputs": [
        {
          "indexed": false,
          "name": "slu",
          "type": "uint256"
        }
      ],
      "name": "Sold",
      "type": "event"
    },
    {
      "anonymous": false,
      "inputs": [
        {
          "indexed": false,
          "name": "slu",
          "type": "uint256"
        }
      ],
      "name": "Shipped",
      "type": "event"
    },
    {
      "anonymous": false,
      "inputs": [
        {
          "indexed": false,
          "name": "slu",
          "type": "uint256"
        }
      ],
      "name": "EnvUpdated",
      "type": "event"
    },
    {
      "anonymous": false,
      "inputs": [
        {
          "indexed": false,
          "name": "slu",
          "type": "uint256"
        }
      ],
      "name": "Received",
      "type": "event"
    },
    {
      "anonymous": false,
      "inputs": [
        {
          "indexed": false,
          "name": "pku",
          "type": "uint256"
        }
      ],
      "name": "Purchased",
      "type": "event"
    },
    {
      "anonymous": false,
      "inputs": [
        {
          "indexed": false,
          "name": "udpc",
          "type": "uint256"
        }
      ],
      "name": "Owned",
      "type": "event"
    },
    {
      "anonymous": false,
      "inputs": [
        {
          "indexed": false,
          "name": "udpc",
          "type": "uint256"
        }
      ],
      "name": "TestCaseAdded",
      "type": "event"
    },
    {
      "anonymous": false,
      "inputs": [
        {
          "indexed": false,
          "name": "udpc",
          "type": "uint256"
        }
      ],
      "name": "Approved",
      "type": "event"
    },
    {
      "anonymous": false,
      "inputs": [
        {
          "indexed": false,
          "name": "udpc",
          "type": "uint256"
        }
      ],
      "name": "UpForSale",
      "type": "event"
    },
    {
      "anonymous": false,
      "inputs": [
        {
          "indexed": false,
          "name": "udpc",
          "type": "uint256"
        }
      ],
      "name": "DrugDesignPurchased",
      "type": "event"
    },
    {
      "anonymous": false,
      "inputs": [
        {
          "indexed": false,
          "name": "udpc",
          "type": "uint256"
        }
      ],
      "name": "SaleCanceled",
      "type": "event"
    },
    {
      "anonymous": false,
      "inputs": [
        {
          "indexed": false,
          "name": "udpc",
          "type": "uint256"
        }
      ],
      "name": "UpForPartnered",
      "type": "event"
    },
    {
      "anonymous": false,
      "inputs": [
        {
          "indexed": false,
          "name": "udpc",
          "type": "uint256"
        }
      ],
      "name": "UpForRestrictPartnered",
      "type": "event"
    },
    {
      "anonymous": false,
      "inputs": [
        {
          "indexed": false,
          "name": "udpc",
          "type": "uint256"
        }
      ],
      "name": "PartnerGained",
      "type": "event"
    },
    {
      "anonymous": false,
      "inputs": [
        {
          "indexed": false,
          "name": "udpc",
          "type": "uint256"
        },
        {
          "indexed": false,
          "name": "partner",
          "type": "address"
        }
      ],
      "name": "RestrictPartnerTransfered",
      "type": "event"
    },
    {
      "anonymous": false,
      "inputs": [
        {
          "indexed": false,
          "name": "udpc",
          "type": "uint256"
        }
      ],
      "name": "PartnerClosed",
      "type": "event"
    },
    {
      "anonymous": false,
      "inputs": [
        {
          "indexed": false,
          "name": "account",
          "type": "address"
        }
      ],
      "name": "Paused",
      "type": "event"
    },
    {
      "anonymous": false,
      "inputs": [
        {
          "indexed": false,
          "name": "account",
          "type": "address"
        }
      ],
      "name": "Unpaused",
      "type": "event"
    },
    {
      "anonymous": false,
      "inputs": [
        {
          "indexed": true,
          "name": "account",
          "type": "address"
        }
      ],
      "name": "PauserAdded",
      "type": "event"
    },
    {
      "anonymous": false,
      "inputs": [
        {
          "indexed": true,
          "name": "account",
          "type": "address"
        }
      ],
      "name": "PauserRemoved",
      "type": "event"
    },
    {
      "anonymous": false,
      "inputs": [
        {
          "indexed": true,
          "name": "account",
          "type": "address"
        }
      ],
      "name": "RetailerAdded",
      "type": "event"
    },
    {
      "anonymous": false,
      "inputs": [
        {
          "indexed": true,
          "name": "account",
          "type": "address"
        }
      ],
      "name": "RetailerRemoved",
      "type": "event"
    },
    {
      "anonymous": false,
      "inputs": [
        {
          "indexed": true,
          "name": "account",
          "type": "address"
        }
      ],
      "name": "RegulatorAdded",
      "type": "event"
    },
    {
      "anonymous": false,
      "inputs": [
        {
          "indexed": true,
          "name": "account",
          "type": "address"
        }
      ],
      "name": "RegulatorRemoved",
      "type": "event"
    },
    {
      "anonymous": false,
      "inputs": [
        {
          "indexed": true,
          "name": "account",
          "type": "address"
        }
      ],
      "name": "DistributorAdded",
      "type": "event"
    },
    {
      "anonymous": false,
      "inputs": [
        {
          "indexed": true,
          "name": "account",
          "type": "address"
        }
      ],
      "name": "DistributorRemoved",
      "type": "event"
    },
    {
      "anonymous": false,
      "inputs": [
        {
          "indexed": true,
          "name": "account",
          "type": "address"
        }
      ],
      "name": "DesignerAdded",
      "type": "event"
    },
    {
      "anonymous": false,
      "inputs": [
        {
          "indexed": true,
          "name": "account",
          "type": "address"
        }
      ],
      "name": "DesignerRemoved",
      "type": "event"
    },
    {
      "anonymous": false,
      "inputs": [
        {
          "indexed": true,
          "name": "account",
          "type": "address"
        }
      ],
      "name": "ManufacturerAdded",
      "type": "event"
    },
    {
      "anonymous": false,
      "inputs": [
        {
          "indexed": true,
          "name": "account",
          "type": "address"
        }
      ],
      "name": "ManufacturerRemoved",
      "type": "event"
    },
    {
      "anonymous": false,
      "inputs": [
        {
          "indexed": true,
          "name": "account",
          "type": "address"
        }
      ],
      "name": "ConsumerAdded",
      "type": "event"
    },
    {
      "anonymous": false,
      "inputs": [
        {
          "indexed": true,
          "name": "account",
          "type": "address"
        }
      ],
      "name": "ConsumerRemoved",
      "type": "event"
    },
    {
      "constant": false,
      "inputs": [
        {
          "name": "_designerName",
          "type": "string"
        },
        {
          "name": "_drugName",
          "type": "string"
        },
        {
          "name": "_description",
          "type": "string"
        },
        {
          "name": "_notes",
          "type": "string"
        }
      ],
      "name": "designDrug",
      "outputs": [],
      "payable": false,
      "stateMutability": "nonpayable",
      "type": "function"
    },
    {
      "constant": false,
      "inputs": [
        {
          "name": "_udpc",
          "type": "uint256"
        },
        {
          "name": "_description",
          "type": "string"
        },
        {
          "name": "_isPassed",
          "type": "bool"
        },
        {
          "name": "_notes",
          "type": "string"
        }
      ],
      "name": "addTestCaseByRegulaor",
      "outputs": [],
      "payable": false,
      "stateMutability": "nonpayable",
      "type": "function"
    },
    {
      "constant": false,
      "inputs": [
        {
          "name": "_udpc",
          "type": "uint256"
        }
      ],
      "name": "approveDrug",
      "outputs": [],
      "payable": false,
      "stateMutability": "nonpayable",
      "type": "function"
    },
    {
      "constant": false,
      "inputs": [
        {
          "name": "_udpc",
          "type": "uint256"
        }
      ],
      "name": "purchaseDrugDesign",
      "outputs": [],
      "payable": true,
      "stateMutability": "payable",
      "type": "function"
    },
    {
      "constant": false,
      "inputs": [
        {
          "name": "_udpc",
          "type": "uint256"
        },
        {
          "name": "_name",
          "type": "string"
        }
      ],
      "name": "buildPartnerContract",
      "outputs": [],
      "payable": false,
      "stateMutability": "nonpayable",
      "type": "function"
    },
    {
      "constant": false,
      "inputs": [
        {
          "name": "_udpc",
          "type": "uint256"
        },
        {
          "name": "quantity",
          "type": "uint256"
        }
      ],
      "name": "manufacturDrugsLoud",
      "outputs": [],
      "payable": false,
      "stateMutability": "nonpayable",
      "type": "function"
    },
    {
      "constant": false,
      "inputs": [
        {
          "name": "_slu",
          "type": "uint256"
        },
        {
          "name": "_receiver",
          "type": "address"
        }
      ],
      "name": "buyDrugsLoud",
      "outputs": [],
      "payable": true,
      "stateMutability": "payable",
      "type": "function"
    },
    {
      "constant": false,
      "inputs": [
        {
          "name": "_pku",
          "type": "uint256"
        }
      ],
      "name": "purchaseDrug",
      "outputs": [],
      "payable": true,
      "stateMutability": "payable",
      "type": "function"
    }
  ],
  "bytecode": "0x60806040523480156200001157600080fd5b506200002c3362000101640100000000026401000000009004565b62000046336200016b640100000000026401000000009004565b6200006033620001d5640100000000026401000000009004565b6200007a336200023f640100000000026401000000009004565b6200009433620002a9640100000000026401000000009004565b620000ae3362000313640100000000026401000000009004565b620000c8336200037d640100000000026401000000009004565b6000600760006101000a81548160ff02191690831515021790555060006008819055506000600b819055506000600a819055506200053f565b62000125816000620003e76401000000000262007b2d179091906401000000009004565b8073ffffffffffffffffffffffffffffffffffffffff167f28b26e7a3d20aedbc5f8f2ebf7da671c0491723a2b78f47a097b0e46dee0714260405160405180910390a250565b6200018f816001620003e76401000000000262007b2d179091906401000000009004565b8073ffffffffffffffffffffffffffffffffffffffff167f561138658ca49a8540dc70dcfe64c9026c1c5b9344642242dd6562970f9c127860405160405180910390a250565b620001f9816002620003e76401000000000262007b2d179091906401000000009004565b8073ffffffffffffffffffffffffffffffffffffffff167f97069a05372df648feb174cc125711b2c72a81450a1ab2769c8faf49917d7fd260405160405180910390a250565b62000263816003620003e76401000000000262007b2d179091906401000000009004565b8073ffffffffffffffffffffffffffffffffffffffff167fddbf200aa634dc3fb81cfd68583dd1040d1c751d335e1d86b631bde3e977fea860405160405180910390a250565b620002cd816004620003e76401000000000262007b2d179091906401000000009004565b8073ffffffffffffffffffffffffffffffffffffffff167f2860b5ba44f983f8f363ee6eeb3c24cbca3096803fbdd5129b9e253f01cac07660405160405180910390a250565b62000337816005620003e76401000000000262007b2d179091906401000000009004565b8073ffffffffffffffffffffffffffffffffffffffff167f71ae26cad02663e3d92efd6ec56031a80d74a20c0ab4183faa8bf262261c9baa60405160405180910390a250565b620003a1816006620003e76401000000000262007b2d179091906401000000009004565b8073ffffffffffffffffffffffffffffffffffffffff167f6719d08c1888103bea251a4ed56406bd0c3e69723c8a1686e017e7bbe159b6f860405160405180910390a250565b600073ffffffffffffffffffffffffffffffffffffffff168173ffffffffffffffffffffffffffffffffffffffff16141515156200042457600080fd5b6200043f8282620004aa640100000000026401000000009004565b1515156200044c57600080fd5b60018260000160008373ffffffffffffffffffffffffffffffffffffffff1673ffffffffffffffffffffffffffffffffffffffff16815260200190815260200160002060006101000a81548160ff0219169083151502179055505050565b60008073ffffffffffffffffffffffffffffffffffffffff168273ffffffffffffffffffffffffffffffffffffffff1614151515620004e857600080fd5b8260000160008373ffffffffffffffffffffffffffffffffffffffff1673ffffffffffffffffffffffffffffffffffffffff16815260200190815260200160002060009054906101000a900460ff16905092915050565b617f27806200054f6000396000f3fe6080604052600436106102ca576000357c0100000000000000000000000000000000000000000000000000000000900463ffffffff16806301715f75146102cf578063118f74f5146103425780631395d0f21461035957806317d4a491146103945780631d375b0c146103fd5780631e8acbeb1461042c57806335c96e97146105a1578063374a2409146105d05780633f4ba83a1461060b5780633f968f9e14610622578063424ee0db146106915780634314d44d1461091e5780634346fac514610a9357806346fbf68e14610c1f57806348c149bd14610c885780635043ceaf14610c9f57806354fc916914610ce457806355edd88b14610d4d5780635c975abb14610d645780635da09b8814610d935780635ec5b72814610dfc57806365c7c33114610e2b578063693082c414610e7057806369d095c114610ebf5780636ef8d66d14610ed6578063719c2e5214610eed578063784167af14610f3c57806382dc1ec414610f81578063834ff73914610fd257806383be91e51461103b5780638456cb5914611069578063879581ba146110805780638f0c86fa146110975780639af687a6146111005780639ce6f51c1461112f5780639f1796821461115d578063a40e210f1461122f578063a4a418b114611246578063a4f03e231461125d578063a7d25040146112c6578063ac63f3c714611435578063b442510b14611486578063b6350536146114c1578063c3c7b82c14611506578063c4f2201114611541578063c7bead1e14611558578063c82d9afc1461168d578063cf196671146116a4578063d3310297146116d3578063d8f271a91461170e578063d8fcc6f81461179e578063da91254c14611933578063e1d6f86f14611999578063e32ba995146119c8578063e63d2ee914611ac4578063e716a4d714611aff578063eda0baa814611ca2578063ef20147714611cb9578063fb32211114611cd0578063fc42925214611d1e575b600080fd5b3480156102db57600080fd5b50610328600480360360408110156102f257600080fd5b8101908080359060200190929190803573ffffffffffffffffffffffffffffffffffffffff169060200190929190505050611fa3565b604051808215151515815260200191505060405180910390f35b34801561034e57600080fd5b50610357611fd5565b005b34801561036557600080fd5b506103926004803603602081101561037c57600080fd5b8101908080359060200190929190505050611fe0565b005b3480156103a057600080fd5b506103e3600480360360208110156103b757600080fd5b81019080803573ffffffffffffffffffffffffffffffffffffffff169060200190929190505050612085565b604051808215151515815260200191505060405180910390f35b34801561040957600080fd5b506104126120a2565b604051808215151515815260200191505060405180910390f35b34801561043857600080fd5b5061059f6004803603608081101561044f57600080fd5b81019080803590602001909291908035906020019064010000000081111561047657600080fd5b82018360208201111561048857600080fd5b803590602001918460018302840111640100000000831117156104aa57600080fd5b91908080601f016020809104026020016040519081016040528093929190818152602001838380828437600081840152601f19601f8201169050808301925050505050505091929192908035151590602001909291908035906020019064010000000081111561051957600080fd5b82018360208201111561052b57600080fd5b8035906020019184600183028401116401000000008311171561054d57600080fd5b91908080601f016020809104026020016040519081016040528093929190818152602001838380828437600081840152601f19601f8201169050808301925050505050505091929192905050506120bd565b005b3480156105ad57600080fd5b506105b66123be565b604051808215151515815260200191505060405180910390f35b3480156105dc57600080fd5b50610609600480360360208110156105f357600080fd5b81019080803590602001909291905050506123d9565b005b34801561061757600080fd5b5061062061250a565b005b34801561062e57600080fd5b5061067b6004803603604081101561064557600080fd5b8101908080359060200190929190803573ffffffffffffffffffffffffffffffffffffffff1690602001909291905050506125b9565b6040518082815260200191505060405180910390f35b34801561069d57600080fd5b5061091c600480360360808110156106b457600080fd5b81019080803590602001906401000000008111156106d157600080fd5b8201836020820111156106e357600080fd5b8035906020019184600183028401116401000000008311171561070557600080fd5b91908080601f016020809104026020016040519081016040528093929190818152602001838380828437600081840152601f19601f8201169050808301925050505050505091929192908035906020019064010000000081111561076857600080fd5b82018360208201111561077a57600080fd5b8035906020019184600183028401116401000000008311171561079c57600080fd5b91908080601f016020809104026020016040519081016040528093929190818152602001838380828437600081840152601f19601f820116905080830192505050505050509192919290803590602001906401000000008111156107ff57600080fd5b82018360208201111561081157600080fd5b8035906020019184600183028401116401000000008311171561083357600080fd5b91908080601f016020809104026020016040519081016040528093929190818152602001838380828437600081840152601f19601f8201169050808301925050505050505091929192908035906020019064010000000081111561089657600080fd5b8201836020820111156108a857600080fd5b803590602001918460018302840111640100000000831117156108ca57600080fd5b91908080601f016020809104026020016040519081016040528093929190818152602001838380828437600081840152601f19601f8201169050808301925050505050505091929192905050506125eb565b005b34801561092a57600080fd5b50610a916004803603608081101561094157600080fd5b81019080803590602001909291908035906020019064010000000081111561096857600080fd5b82018360208201111561097a57600080fd5b8035906020019184600183028401116401000000008311171561099c57600080fd5b91908080601f016020809104026020016040519081016040528093929190818152602001838380828437600081840152601f19601f82011690508083019250505050505050919291929080351515906020019092919080359060200190640100000000811115610a0b57600080fd5b820183602082011115610a1d57600080fd5b80359060200191846001830284011164010000000083111715610a3f57600080fd5b91908080601f016020809104026020016040519081016040528093929190818152602001838380828437600081840152601f19601f820116905080830192505050505050509192919290505050612696565b005b348015610a9f57600080fd5b50610acc60048036036020811015610ab657600080fd5b8101908080359060200190929190505050612725565b60405180806020018060200180602001848103845287818151815260200191508051906020019080838360005b83811015610b14578082015181840152602081019050610af9565b50505050905090810190601f168015610b415780820380516001836020036101000a031916815260200191505b50848103835286818151815260200191508051906020019080838360005b83811015610b7a578082015181840152602081019050610b5f565b50505050905090810190601f168015610ba75780820380516001836020036101000a031916815260200191505b50848103825285818151815260200191508051906020019080838360005b83811015610be0578082015181840152602081019050610bc5565b50505050905090810190601f168015610c0d5780820380516001836020036101000a031916815260200191505b50965050505050505060405180910390f35b348015610c2b57600080fd5b50610c6e60048036036020811015610c4257600080fd5b81019080803573ffffffffffffffffffffffffffffffffffffffff1690602001909291905050506129d6565b604051808215151515815260200191505060405180910390f35b348015610c9457600080fd5b50610c9d6129f3565b005b348015610cab57600080fd5b50610ce260048036036040811015610cc257600080fd5b8101908080359060200190929190803590602001909291905050506129fe565b005b348015610cf057600080fd5b50610d3360048036036020811015610d0757600080fd5b81019080803573ffffffffffffffffffffffffffffffffffffffff169060200190929190505050612b2a565b604051808215151515815260200191505060405180910390f35b348015610d5957600080fd5b50610d62612b47565b005b348015610d7057600080fd5b50610d79612b52565b604051808215151515815260200191505060405180910390f35b348015610d9f57600080fd5b50610de260048036036020811015610db657600080fd5b81019080803573ffffffffffffffffffffffffffffffffffffffff169060200190929190505050612b69565b604051808215151515815260200191505060405180910390f35b348015610e0857600080fd5b50610e11612b86565b604051808215151515815260200191505060405180910390f35b348015610e3757600080fd5b50610e6e60048036036040811015610e4e57600080fd5b810190808035906020019092919080359060200190929190505050612ba1565b005b348015610e7c57600080fd5b50610ebd60048036036060811015610e9357600080fd5b81019080803590602001909291908035906020019092919080359060200190929190505050612d6a565b005b348015610ecb57600080fd5b50610ed4613084565b005b348015610ee257600080fd5b50610eeb61308f565b005b348015610ef957600080fd5b50610f3a60048036036060811015610f1057600080fd5b8101908080359060200190929190803590602001909291908035906020019092919050505061309a565b005b348015610f4857600080fd5b50610f7f60048036036040811015610f5f57600080fd5b8101908080359060200190929190803590602001909291905050506133e3565b005b348015610f8d57600080fd5b50610fd060048036036020811015610fa457600080fd5b81019080803573ffffffffffffffffffffffffffffffffffffffff16906020019092919050505061352d565b005b348015610fde57600080fd5b5061102160048036036020811015610ff557600080fd5b81019080803573ffffffffffffffffffffffffffffffffffffffff16906020019092919050505061354d565b604051808215151515815260200191505060405180910390f35b6110676004803603602081101561105157600080fd5b810190808035906020019092919050505061356a565b005b34801561107557600080fd5b5061107e613831565b005b34801561108c57600080fd5b506110956138e1565b005b3480156110a357600080fd5b506110e6600480360360208110156110ba57600080fd5b81019080803573ffffffffffffffffffffffffffffffffffffffff1690602001909291905050506138ec565b604051808215151515815260200191505060405180910390f35b34801561110c57600080fd5b50611115613909565b604051808215151515815260200191505060405180910390f35b61115b6004803603602081101561114557600080fd5b8101908080359060200190929190505050613924565b005b34801561116957600080fd5b5061122d6004803603604081101561118057600080fd5b8101908080359060200190929190803590602001906401000000008111156111a757600080fd5b8201836020820111156111b957600080fd5b803590602001918460018302840111640100000000831117156111db57600080fd5b91908080601f016020809104026020016040519081016040528093929190818152602001838380828437600081840152601f19601f8201169050808301925050505050505091929192905050506139ad565b005b34801561123b57600080fd5b50611244613a54565b005b34801561125257600080fd5b5061125b613a5f565b005b34801561126957600080fd5b506112ac6004803603602081101561128057600080fd5b81019080803573ffffffffffffffffffffffffffffffffffffffff169060200190929190505050613a83565b604051808215151515815260200191505060405180910390f35b3480156112d257600080fd5b506112ff600480360360208110156112e957600080fd5b8101908080359060200190929190505050613aa0565b6040518086815260200180602001806020018060200180602001858103855289818151815260200191508051906020019060200280838360005b83811015611354578082015181840152602081019050611339565b50505050905001858103845288818151815260200191508051906020019060200280838360005b8381101561139657808201518184015260208101905061137b565b50505050905001858103835287818151815260200191508051906020019060200280838360005b838110156113d85780820151818401526020810190506113bd565b50505050905001858103825286818151815260200191508051906020019060200280838360005b8381101561141a5780820151818401526020810190506113ff565b50505050905001995050505050505050505060405180910390f35b34801561144157600080fd5b506114846004803603602081101561145857600080fd5b81019080803573ffffffffffffffffffffffffffffffffffffffff169060200190929190505050613cec565b005b34801561149257600080fd5b506114bf600480360360208110156114a957600080fd5b8101908080359060200190929190505050613d75565b005b3480156114cd57600080fd5b50611504600480360360408110156114e457600080fd5b810190808035906020019092919080359060200190929190505050613f73565b005b34801561151257600080fd5b5061153f6004803603602081101561152957600080fd5b810190808035906020019092919050505061418d565b005b34801561154d57600080fd5b506115566143a6565b005b34801561156457600080fd5b5061159b6004803603604081101561157b57600080fd5b8101908080359060200190929190803590602001909291905050506143b1565b60405180806020018415151515815260200180602001838103835286818151815260200191508051906020019080838360005b838110156115e95780820151818401526020810190506115ce565b50505050905090810190601f1680156116165780820380516001836020036101000a031916815260200191505b50838103825284818151815260200191508051906020019080838360005b8381101561164f578082015181840152602081019050611634565b50505050905090810190601f16801561167c5780820380516001836020036101000a031916815260200191505b509550505050505060405180910390f35b34801561169957600080fd5b506116a2614695565b005b3480156116b057600080fd5b506116b96146a0565b604051808215151515815260200191505060405180910390f35b3480156116df57600080fd5b5061170c600480360360208110156116f657600080fd5b81019080803590602001909291905050506146bb565b005b34801561171a57600080fd5b506117476004803603602081101561173157600080fd5b8101908080359060200190929190505050614912565b6040518080602001828103825283818151815260200191508051906020019060200280838360005b8381101561178a57808201518184015260208101905061176f565b505050509050019250505060405180910390f35b3480156117aa57600080fd5b506117d7600480360360208110156117c157600080fd5b810190808035906020019092919050505061497d565b60405180898152602001888152602001806020018773ffffffffffffffffffffffffffffffffffffffff1673ffffffffffffffffffffffffffffffffffffffff1681526020018673ffffffffffffffffffffffffffffffffffffffff1673ffffffffffffffffffffffffffffffffffffffff1681526020018573ffffffffffffffffffffffffffffffffffffffff1673ffffffffffffffffffffffffffffffffffffffff1681526020018473ffffffffffffffffffffffffffffffffffffffff1673ffffffffffffffffffffffffffffffffffffffff168152602001838152602001828103825288818151815260200191508051906020019080838360005b838110156118f15780820151818401526020810190506118d6565b50505050905090810190601f16801561191e5780820380516001836020036101000a031916815260200191505b50995050505050505050505060405180910390f35b34801561193f57600080fd5b50611948614aaf565b60405180871515151581526020018615151515815260200185151515158152602001841515151581526020018315151515815260200182151515158152602001965050505050505060405180910390f35b3480156119a557600080fd5b506119ae614afc565b604051808215151515815260200191505060405180910390f35b3480156119d457600080fd5b50611ac2600480360360808110156119eb57600080fd5b8101908080359060200190929190803573ffffffffffffffffffffffffffffffffffffffff16906020019092919080359060200190640100000000811115611a3257600080fd5b820183602082011115611a4457600080fd5b80359060200191846001830284011164010000000083111715611a6657600080fd5b91908080601f016020809104026020016040519081016040528093929190818152602001838380828437600081840152601f19601f82011690508083019250505050505050919291929080359060200190929190505050614b17565b005b348015611ad057600080fd5b50611afd60048036036020811015611ae757600080fd5b8101908080359060200190929190505050614d36565b005b348015611b0b57600080fd5b50611b3860048036036020811015611b2257600080fd5b8101908080359060200190929190505050614e89565b604051808b81526020018a8152602001806020018973ffffffffffffffffffffffffffffffffffffffff1673ffffffffffffffffffffffffffffffffffffffff1681526020018873ffffffffffffffffffffffffffffffffffffffff1673ffffffffffffffffffffffffffffffffffffffff1681526020018773ffffffffffffffffffffffffffffffffffffffff1673ffffffffffffffffffffffffffffffffffffffff1681526020018673ffffffffffffffffffffffffffffffffffffffff1673ffffffffffffffffffffffffffffffffffffffff16815260200185815260200184815260200183815260200182810382528a818151815260200191508051906020019080838360005b83811015611c5e578082015181840152602081019050611c43565b50505050905090810190601f168015611c8b5780820380516001836020036101000a031916815260200191505b509b50505050505050505050505060405180910390f35b348015611cae57600080fd5b50611cb7615300565b005b348015611cc557600080fd5b50611cce61530b565b005b611d1c60048036036040811015611ce657600080fd5b8101908080359060200190929190803573ffffffffffffffffffffffffffffffffffffffff169060200190929190505050615316565b005b348015611d2a57600080fd5b50611d5760048036036020811015611d4157600080fd5b81019080803590602001909291905050506158c4565b604051808c73ffffffffffffffffffffffffffffffffffffffff1673ffffffffffffffffffffffffffffffffffffffff1681526020018b73ffffffffffffffffffffffffffffffffffffffff1673ffffffffffffffffffffffffffffffffffffffff1681526020018060200180602001806020018a1515151581526020018981526020018060200188815260200187815260200186815260200185810385528e818151815260200191508051906020019080838360005b83811015611e29578082015181840152602081019050611e0e565b50505050905090810190601f168015611e565780820380516001836020036101000a031916815260200191505b5085810384528d818151815260200191508051906020019080838360005b83811015611e8f578082015181840152602081019050611e74565b50505050905090810190601f168015611ebc5780820380516001836020036101000a031916815260200191505b5085810383528c818151815260200191508051906020019080838360005b83811015611ef5578082015181840152602081019050611eda565b50505050905090810190601f168015611f225780820380516001836020036101000a031916815260200191505b50858103825289818151815260200191508051906020019080838360005b83811015611f5b578082015181840152602081019050611f40565b50505050905090810190601f168015611f885780820380516001836020036101000a031916815260200191505b509f5050505050505050505050505050505060405180910390f35b6000611fcd8260096000868152602001908152602001600020600b01615e5a90919063ffffffff16565b905092915050565b611fde33615eee565b565b611fe933612b2a565b151561205d576040517f08c379a00000000000000000000000000000000000000000000000000000000081526004018080602001828103825260108152602001807f4e6f74204120526567756c61746f72210000000000000000000000000000000081525060200191505060405180910390fd5b600760009054906101000a900460ff1615151561207957600080fd5b61208281615f48565b50565b600061209b82600161600490919063ffffffff16565b9050919050565b60006120b833600561600490919063ffffffff16565b905090565b833373ffffffffffffffffffffffffffffffffffffffff166009600083815260200190815260200160002060010160009054906101000a900473ffffffffffffffffffffffffffffffffffffffff1673ffffffffffffffffffffffffffffffffffffffff1614151561212e57600080fd5b60085485111515156121a8576040517f08c379a000000000000000000000000000000000000000000000000000000000815260040180806020018281038252601b8152602001807f476976656e2055445043204e6f7420437265617465642059657421000000000081525060200191505060405180910390fd5b6121b0617bdd565b60a0604051908101604052803373ffffffffffffffffffffffffffffffffffffffff16815260200142815260200185151581526020018681526020018481525090508060096000888152602001908152602001600020600a016000600960008a815260200190815260200160002060090154815260200190815260200160002060008201518160000160006101000a81548173ffffffffffffffffffffffffffffffffffffffff021916908373ffffffffffffffffffffffffffffffffffffffff1602179055506020820151816001015560408201518160020160006101000a81548160ff02191690831515021790555060608201518160030190805190602001906122bd929190617c25565b5060808201518160040190805190602001906122da929190617c25565b5090505060096000878152602001908152602001600020600901600081548092919060010191905055506000600381111561231157fe5b6009600088815260200190815260200160002060040160009054906101000a900460ff16600381111561234057fe5b141561237f5760016009600088815260200190815260200160002060040160006101000a81548160ff0219169083600381111561237957fe5b02179055505b7f81d5f9bced9b9d1723f40796f43346ab2f3d2147b09cc27e573f3eb3b5875864866040518082815260200191505060405180910390a1505050505050565b60006123d433600461600490919063ffffffff16565b905090565b80600260038111156123e757fe5b6009600083815260200190815260200160002060040160009054906101000a900460ff16600381111561241657fe5b14151561242257600080fd5b813373ffffffffffffffffffffffffffffffffffffffff166009600083815260200190815260200160002060010160009054906101000a900473ffffffffffffffffffffffffffffffffffffffff1673ffffffffffffffffffffffffffffffffffffffff1614151561249357600080fd5b600060096000858152602001908152602001600020600b0160020160006101000a81548160ff021916908360028111156124c957fe5b02179055507fecd07b3c3d2d5a97909bbc0b960a7481613849c91ef6c3a8b139c3b7c4c8083b836040518082815260200191505060405180910390a1505050565b612513336129d6565b151561251e57600080fd5b600760009054906101000a900460ff16151561253957600080fd5b6000600760006101000a81548160ff0219169083151502179055507f5db9ee0a495bf2e6ff9c91a7834c1ba4fdd244a5e8aa4e537bd38aeae4b073aa33604051808273ffffffffffffffffffffffffffffffffffffffff1673ffffffffffffffffffffffffffffffffffffffff16815260200191505060405180910390a1565b60006125e38260096000868152602001908152602001600020600b0161609890919063ffffffff16565b905092915050565b6125f433613a83565b1515612668576040517f08c379a000000000000000000000000000000000000000000000000000000000815260040180806020018281038252600f8152602001807f4e6f7420412044657369676e657221000000000000000000000000000000000081525060200191505060405180910390fd5b600760009054906101000a900460ff1615151561268457600080fd5b61269084848484616152565b50505050565b61269f33612b2a565b1515612713576040517f08c379a00000000000000000000000000000000000000000000000000000000081526004018080602001828103825260108152602001807f4e6f74204120526567756c61746f72210000000000000000000000000000000081525060200191505060405180910390fd5b61271f84848484616490565b50505050565b606080606060085484111515156127a4576040517f08c379a000000000000000000000000000000000000000000000000000000000815260040180806020018281038252601b8152602001807f476976656e2055445043204e6f7420437265617465642059657421000000000081525060200191505060405180910390fd5b600960008581526020019081526020016000206005016000016009600086815260200190815260200160002060050160010160096000878152602001908152602001600020600501600201828054600181600116156101000203166002900480601f0160208091040260200160405190810160405280929190818152602001828054600181600116156101000203166002900480156128845780601f1061285957610100808354040283529160200191612884565b820191906000526020600020905b81548152906001019060200180831161286757829003601f168201915b50505050509250818054600181600116156101000203166002900480601f0160208091040260200160405190810160405280929190818152602001828054600181600116156101000203166002900480156129205780601f106128f557610100808354040283529160200191612920565b820191906000526020600020905b81548152906001019060200180831161290357829003601f168201915b50505050509150808054600181600116156101000203166002900480601f0160208091040260200160405190810160405280929190818152602001828054600181600116156101000203166002900480156129bc5780601f10612991576101008083540402835291602001916129bc565b820191906000526020600020905b81548152906001019060200180831161299f57829003601f168201915b505050505090508093508194508295505050509193909250565b60006129ec82600661600490919063ffffffff16565b9050919050565b6129fc3361671f565b565b612a0733612085565b1515612a7b576040517f08c379a00000000000000000000000000000000000000000000000000000000081526004018080602001828103825260138152602001807f4e6f742041204d616e756661637475726572210000000000000000000000000081525060200191505060405180910390fd5b81612aa43360096000848152602001908152602001600020600b01615e5a90919063ffffffff16565b80612b1057503373ffffffffffffffffffffffffffffffffffffffff166009600083815260200190815260200160002060010160009054906101000a900473ffffffffffffffffffffffffffffffffffffffff1673ffffffffffffffffffffffffffffffffffffffff16145b1515612b1b57600080fd5b612b258383616779565b505050565b6000612b4082600461600490919063ffffffff16565b9050919050565b612b5033616a96565b565b6000600760009054906101000a900460ff16905090565b6000612b7f82600561600490919063ffffffff16565b9050919050565b6000612b9c33600261600490919063ffffffff16565b905090565b8160026003811115612baf57fe5b6009600083815260200190815260200160002060040160009054906101000a900460ff166003811115612bde57fe5b141515612bea57600080fd5b823373ffffffffffffffffffffffffffffffffffffffff166009600083815260200190815260200160002060010160009054906101000a900473ffffffffffffffffffffffffffffffffffffffff1673ffffffffffffffffffffffffffffffffffffffff16141515612c5b57600080fd5b60648311151515612cd4576040517f08c379a00000000000000000000000000000000000000000000000000000000081526004018080602001828103825260168152602001807f4d6f7374206265206c657373207468616e20253130300000000000000000000081525060200191505060405180910390fd5b8260096000868152602001908152602001600020600b0160010181905550600160096000868152602001908152602001600020600b0160020160006101000a81548160ff02191690836002811115612d2857fe5b02179055507f7757356b46f23cb3ef1647e45863d1afc6f69c56c39b4afc70f3e2cea14c3a9d846040518082815260200191505060405180910390a150505050565b826000600d60008381526020019081526020016000206000815481101515612d8e57fe5b9060005260206000200154905060056006811115612da857fe5b600c600083815260200190815260200160002060030160009054906101000a900460ff166006811115612dd757fe5b141515612de357600080fd5b846000600d60008381526020019081526020016000206000815481101515612e0757fe5b9060005260206000200154905060003373ffffffffffffffffffffffffffffffffffffffff16600c600084815260200190815260200160002060060160009054906101000a900473ffffffffffffffffffffffffffffffffffffffff1673ffffffffffffffffffffffffffffffffffffffff16149050801515612e8957600080fd5b6000600d60008a8152602001908152602001600020805490509050612eac617ca5565b6080604051908101604052804281526020018a81526020018981526020013373ffffffffffffffffffffffffffffffffffffffff16815250905060008090505b82811015613040576000600d60008d815260200190815260200160002082815481101515612f1657fe5b90600052602060002001549050600680811115612f2f57fe5b600c600083815260200190815260200160002060030160009054906101000a900460ff166006811115612f5e57fe5b1415156130325782600c60008381526020019081526020016000206009016000600c6000858152602001908152602001600020600a0154815260200190815260200160002060008201518160000155602082015181600101556040820151816002015560608201518160030160006101000a81548173ffffffffffffffffffffffffffffffffffffffff021916908373ffffffffffffffffffffffffffffffffffffffff160217905550905050600c6000828152602001908152602001600020600a01600081548092919060010191905055505b508080600101915050612eec565b507f332d23c9d7e8e885c3f1696ae3b424351c1e9e2a4cc531396d6848b79a0dac988a6040518082815260200191505060405180910390a150505050505050505050565b61308d33616af0565b565b61309833616b4a565b565b826000600d600083815260200190815260200160002060008154811015156130be57fe5b90600052602060002001549050600460068111156130d857fe5b600c600083815260200190815260200160002060030160009054906101000a900460ff16600681111561310757fe5b14151561311357600080fd5b846000600d6000838152602001908152602001600020600081548110151561313757fe5b9060005260206000200154905060003373ffffffffffffffffffffffffffffffffffffffff16600c600084815260200190815260200160002060040160009054906101000a900473ffffffffffffffffffffffffffffffffffffffff1673ffffffffffffffffffffffffffffffffffffffff1614905060003373ffffffffffffffffffffffffffffffffffffffff16600c600085815260200190815260200160002060050160009054906101000a900473ffffffffffffffffffffffffffffffffffffffff1673ffffffffffffffffffffffffffffffffffffffff16149050818061321f5750805b151561322a57600080fd5b6000600d60008b815260200190815260200160002080549050905061324d617ca5565b6080604051908101604052804281526020018b81526020018a81526020013373ffffffffffffffffffffffffffffffffffffffff16815250905060008090505b8281101561339e576000600d60008e8152602001908152602001600020828154811015156132b757fe5b9060005260206000200154905082600c60008381526020019081526020016000206009016000600c6000858152602001908152602001600020600a0154815260200190815260200160002060008201518160000155602082015181600101556040820151816002015560608201518160030160006101000a81548173ffffffffffffffffffffffffffffffffffffffff021916908373ffffffffffffffffffffffffffffffffffffffff160217905550905050600c6000828152602001908152602001600020600a016000815480929190600101919050555050808060010191505061328d565b507f332d23c9d7e8e885c3f1696ae3b424351c1e9e2a4cc531396d6848b79a0dac988b6040518082815260200191505060405180910390a15050505050505050505050565b813373ffffffffffffffffffffffffffffffffffffffff166009600083815260200190815260200160002060010160009054906101000a900473ffffffffffffffffffffffffffffffffffffffff1673ffffffffffffffffffffffffffffffffffffffff1614151561345457600080fd5b826002600381111561346257fe5b6009600083815260200190815260200160002060040160009054906101000a900460ff16600381111561349157fe5b14151561349d57600080fd5b82600960008681526020019081526020016000206008018190555060036009600086815260200190815260200160002060040160006101000a81548160ff021916908360038111156134eb57fe5b02179055507f9830dea00c267e7b6913a128e9a399b9272b3c2b650ac4c447ce2b876b100488846040518082815260200191505060405180910390a150505050565b613536336129d6565b151561354157600080fd5b61354a81616ba4565b50565b600061356382600061600490919063ffffffff16565b9050919050565b6135733361354d565b15156135e7576040517f08c379a000000000000000000000000000000000000000000000000000000000815260040180806020018281038252600f8152602001807f4e6f74204120436f6e73756d657221000000000000000000000000000000000081525060200191505060405180910390fd5b600760009054906101000a900460ff1615151561360357600080fd5b6000600c60008381526020019081526020016000206007015490506000600c600084815260200190815260200160002060030160019054906101000a900473ffffffffffffffffffffffffffffffffffffffff1690506000600c600085815260200190815260200160002060060160009054906101000a900473ffffffffffffffffffffffffffffffffffffffff16905060006064600585028115156136a557fe5b04905060006064600186028115156136b957fe5b049050843410151515613734576040517f08c379a000000000000000000000000000000000000000000000000000000000815260040180806020018281038252600b8152602001807f4e6f7420456e6f7567682100000000000000000000000000000000000000000081525060200191505060405180910390fd5b6000853403905060008114151561378d573373ffffffffffffffffffffffffffffffffffffffff166108fc829081150290604051600060405180830381858888f1935050505015801561378b573d6000803e3d6000fd5b505b61379687616bfe565b8473ffffffffffffffffffffffffffffffffffffffff166108fc83850188039081150290604051600060405180830381858888f193505050501580156137e0573d6000803e3d6000fd5b508373ffffffffffffffffffffffffffffffffffffffff166108fc849081150290604051600060405180830381858888f19350505050158015613827573d6000803e3d6000fd5b5050505050505050565b61383a336129d6565b151561384557600080fd5b600760009054906101000a900460ff1615151561386157600080fd5b6001600760006101000a81548160ff0219169083151502179055507f62e78cea01bee320cd4e420270b5ea74000d11b0c9f74754ebdbfc544b05a25833604051808273ffffffffffffffffffffffffffffffffffffffff1673ffffffffffffffffffffffffffffffffffffffff16815260200191505060405180910390a1565b6138ea33616d37565b565b600061390282600361600490919063ffffffff16565b9050919050565b600061391f33600061600490919063ffffffff16565b905090565b61392d33612085565b15156139a1576040517f08c379a00000000000000000000000000000000000000000000000000000000081526004018080602001828103825260138152602001807f4e6f742041204d616e756661637475726572210000000000000000000000000081525060200191505060405180910390fd5b6139aa81616d91565b50565b6139b633612085565b1515613a2a576040517f08c379a00000000000000000000000000000000000000000000000000000000081526004018080602001828103825260138152602001807f4e6f742041204d616e756661637475726572210000000000000000000000000081525060200191505060405180910390fd5b600760009054906101000a900460ff16151515613a4657600080fd5b613a508282616fff565b5050565b613a5d336170fe565b565b613a6833617158565b613a7133612085565b1515613a8157613a803361671f565b5b565b6000613a9982600261600490919063ffffffff16565b9050919050565b6000606080606080856000600c6000838152602001908152602001600020600a015414151515613acf57600080fd5b6000600c6000898152602001908152602001600020905080600a01549650606087604051908082528060200260200182016040528015613b1e5781602001602082028038833980820191505090505b509050606088604051908082528060200260200182016040528015613b525781602001602082028038833980820191505090505b509050606089604051908082528060200260200182016040528015613b865781602001602082028038833980820191505090505b50905060608a604051908082528060200260200182016040528015613bba5781602001602082028038833980820191505090505b50905060008090505b85600a0154811015613cc8576000866009016000838152602001908152602001600020905080600001548683815181101515613bfb57fe5b906020019060200201818152505080600201548583815181101515613c1c57fe5b906020019060200201818152505080600101548483815181101515613c3d57fe5b90602001906020020181815250508060030160009054906101000a900473ffffffffffffffffffffffffffffffffffffffff168383815181101515613c7e57fe5b9060200190602002019073ffffffffffffffffffffffffffffffffffffffff16908173ffffffffffffffffffffffffffffffffffffffff1681525050508080600101915050613bc3565b5083838383809a50819b50829c50839d505050505050505050505091939590929450565b613cf533612b2a565b1515613d69576040517f08c379a00000000000000000000000000000000000000000000000000000000081526004018080602001828103825260108152602001807f4e6f74204120526567756c61746f72210000000000000000000000000000000081525060200191505060405180910390fd5b613d72816171b2565b50565b806000600d60008381526020019081526020016000206000815481101515613d9957fe5b9060005260206000200154905060036006811115613db357fe5b600c600083815260200190815260200160002060030160009054906101000a900460ff166006811115613de257fe5b141515613dee57600080fd5b826000600d60008381526020019081526020016000206000815481101515613e1257fe5b9060005260206000200154905060003373ffffffffffffffffffffffffffffffffffffffff16600c600084815260200190815260200160002060040160009054906101000a900473ffffffffffffffffffffffffffffffffffffffff1673ffffffffffffffffffffffffffffffffffffffff16149050801515613e9457600080fd5b6000600d600088815260200190815260200160002080549050905060008090505b81811015613f32576000600d60008a815260200190815260200160002082815481101515613edf57fe5b906000526020600020015490506004600c600083815260200190815260200160002060030160006101000a81548160ff02191690836006811115613f1f57fe5b0217905550508080600101915050613eb5565b507ff00b9a5725b80c54016f42114f6ed7792d22eecb116011c4afac29c57bef6c95876040518082815260200191505060405180910390a150505050505050565b816000600d60008381526020019081526020016000206000815481101515613f9757fe5b9060005260206000200154905060016006811115613fb157fe5b600c600083815260200190815260200160002060030160009054906101000a900460ff166006811115613fe057fe5b141515613fec57600080fd5b836000600d6000838152602001908152602001600020600081548110151561401057fe5b9060005260206000200154905060003373ffffffffffffffffffffffffffffffffffffffff16600c600084815260200190815260200160002060040160009054906101000a900473ffffffffffffffffffffffffffffffffffffffff1673ffffffffffffffffffffffffffffffffffffffff1614905080151561409257600080fd5b6000600d600089815260200190815260200160002080549050905060008090505b8181101561414b576000600d60008b8152602001908152602001600020828154811015156140dd57fe5b906000526020600020015490506002600c600083815260200190815260200160002060030160006101000a81548160ff0219169083600681111561411d57fe5b021790555088600c6000838152602001908152602001600020600701819055505080806001019150506140b3565b507fa96ae0fc3224ebd79eebfe54bd130cc9cb94416cddd1f2386115e00b72532468886040518082815260200191505060405180910390a15050505050505050565b806000600d600083815260200190815260200160002060008154811015156141b157fe5b90600052602060002001549050600060068111156141cb57fe5b600c600083815260200190815260200160002060030160009054906101000a900460ff1660068111156141fa57fe5b14151561420657600080fd5b826000600d6000838152602001908152602001600020600081548110151561422a57fe5b9060005260206000200154905060003373ffffffffffffffffffffffffffffffffffffffff16600c600084815260200190815260200160002060040160009054906101000a900473ffffffffffffffffffffffffffffffffffffffff1673ffffffffffffffffffffffffffffffffffffffff161490508015156142ac57600080fd5b6000600d600088815260200190815260200160002080549050905060008090505b81811015614365576000600d60008a8152602001908152602001600020828154811015156142f757fe5b906000526020600020015490506001600c600083815260200190815260200160002060030160006101000a81548160ff0219169083600681111561433757fe5b021790555042600c6000838152602001908152602001600020600801819055505080806001019150506142cd565b507f9b3b66e2380b690bae22c73ef1428fb0c91e72fe14a4b6defa13035214187aff876040518082815260200191505060405180910390a150505050505050565b6143af3361720c565b565b6060600060606008548511151515614431576040517f08c379a000000000000000000000000000000000000000000000000000000000815260040180806020018281038252601b8152602001807f476976656e2055445043204e6f7420437265617465642059657421000000000081525060200191505060405180910390fd5b6009600086815260200190815260200160002060090154841015156144be576040517f08c379a000000000000000000000000000000000000000000000000000000000815260040180806020018281038252601a8152602001807f546573742043617365204e6f742043726561746564205965742100000000000081525060200191505060405180910390fd5b60096000868152602001908152602001600020600a01600085815260200190815260200160002060030160096000878152602001908152602001600020600a01600086815260200190815260200160002060020160009054906101000a900460ff1660096000888152602001908152602001600020600a016000878152602001908152602001600020600401828054600181600116156101000203166002900480601f0160208091040260200160405190810160405280929190818152602001828054600181600116156101000203166002900480156145df5780601f106145b4576101008083540402835291602001916145df565b820191906000526020600020905b8154815290600101906020018083116145c257829003601f168201915b50505050509250808054600181600116156101000203166002900480601f01602080910402602001604051908101604052809291908181526020018280546001816001161561010002031660029004801561467b5780601f106146505761010080835404028352916020019161467b565b820191906000526020600020905b81548152906001019060200180831161465e57829003601f168201915b505050505090508093508194508295505050509250925092565b61469e33617266565b565b60006146b633600361600490919063ffffffff16565b905090565b806000600d600083815260200190815260200160002060008154811015156146df57fe5b90600052602060002001549050600460068111156146f957fe5b600c600083815260200190815260200160002060030160009054906101000a900460ff16600681111561472857fe5b14151561473457600080fd5b826000600d6000838152602001908152602001600020600081548110151561475857fe5b906000526020600020015490506000600c6000838152602001908152602001600020600a01541415151561478b57600080fd5b846000600d600083815260200190815260200160002060008154811015156147af57fe5b9060005260206000200154905060003373ffffffffffffffffffffffffffffffffffffffff16600c600084815260200190815260200160002060060160009054906101000a900473ffffffffffffffffffffffffffffffffffffffff1673ffffffffffffffffffffffffffffffffffffffff1614905080151561483157600080fd5b6000600d60008a815260200190815260200160002080549050905060008090505b818110156148cf576000600d60008c81526020019081526020016000208281548110151561487c57fe5b906000526020600020015490506005600c600083815260200190815260200160002060030160006101000a81548160ff021916908360068111156148bc57fe5b0217905550508080600101915050614852565b507fa8142743f8f70a4c26f3691cf4ed59718381fb2f18070ec52be1f1022d855557896040518082815260200191505060405180910390a1505050505050505050565b6060600d600083815260200190815260200160002080548060200260200160405190810160405280929190818152602001828054801561497157602002820191906000526020600020905b81548152602001906001019080831161495d575b50505050509050919050565b60008060606000806000806000600b54891115801561499d575060008914155b1515614a11576040517f08c379a000000000000000000000000000000000000000000000000000000000815260040180806020018281038252601a8152602001807f476976656e20534c55204e6f742043726561746564205965742100000000000081525060200191505060405180910390fd5b6000600d60008b81526020019081526020016000206001600d60008d81526020019081526020016000208054905003815481101515614a4c57fe5b90600052602060002001549050614a6281614e89565b909192939495969750905050809850819950829a50839b50849c50859d50869e5050505050505050600d60008b815260200190815260200160002080549050985050919395975091939597565b600080600080600080614ac0613909565b9550614aca6120a2565b9450614ad46146a0565b9350614ade614afc565b9250614ae86123be565b9150614af2612b86565b9050909192939495565b6000614b1233600161600490919063ffffffff16565b905090565b8360026003811115614b2557fe5b6009600083815260200190815260200160002060040160009054906101000a900460ff166003811115614b5457fe5b141515614b6057600080fd5b843373ffffffffffffffffffffffffffffffffffffffff166009600083815260200190815260200160002060010160009054906101000a900473ffffffffffffffffffffffffffffffffffffffff1673ffffffffffffffffffffffffffffffffffffffff16141515614bd157600080fd5b8560006002811115614bdf57fe5b60096000838152602001908152602001600020600b0160020160009054906101000a900460ff166002811115614c1157fe5b141515614c1d57600080fd5b60648411151515614c96576040517f08c379a00000000000000000000000000000000000000000000000000000000081526004018080602001828103825260168152602001807f4d6f7374206265206c657373207468616e20253130300000000000000000000081525060200191505060405180910390fd5b614cc2868686600960008c8152602001908152602001600020600b016172c0909392919063ffffffff16565b7fcf9b82493d27751c082844bdd5f86709a115d8bbc98b6ebb688d96ff15837cc48787604051808381526020018273ffffffffffffffffffffffffffffffffffffffff1673ffffffffffffffffffffffffffffffffffffffff1681526020019250505060405180910390a150505050505050565b803373ffffffffffffffffffffffffffffffffffffffff166009600083815260200190815260200160002060010160009054906101000a900473ffffffffffffffffffffffffffffffffffffffff1673ffffffffffffffffffffffffffffffffffffffff16141515614da757600080fd5b8160016002811115614db557fe5b60096000838152602001908152602001600020600b0160020160009054906101000a900460ff166002811115614de757fe5b141515614df357600080fd5b600260096000858152602001908152602001600020600b0160020160006101000a81548160ff02191690836002811115614e2957fe5b0217905550600060096000858152602001908152602001600020600b01600101819055507fa54024b3473fdbaabff7d6742d51ced76d6ec5df786a4b361595bb0623e8d167836040518082815260200191505060405180910390a1505050565b60008060606000806000806000806000600a548b11158015614eac575060008b14155b1515614f20576040517f08c379a000000000000000000000000000000000000000000000000000000000815260040180806020018281038252601a8152602001807f476976656e20504b55204e6f742043726561746564205965742100000000000081525060200191505060405180910390fd5b6000600c60008d8152602001908152602001600020905080600001549a508060020154995060006006811115614f5257fe5b8160030160009054906101000a900460ff166006811115614f6f57fe5b1415614fb2576040805190810160405280600c81526020017f4d616e75666163747572656400000000000000000000000000000000000000008152509850615241565b60016006811115614fbf57fe5b8160030160009054906101000a900460ff166006811115614fdc57fe5b141561501f576040805190810160405280600681526020017f5061636b656400000000000000000000000000000000000000000000000000008152509850615240565b6002600681111561502c57fe5b8160030160009054906101000a900460ff16600681111561504957fe5b141561508c576040805190810160405280600781526020017f466f7253616c6500000000000000000000000000000000000000000000000000815250985061523f565b6003600681111561509957fe5b8160030160009054906101000a900460ff1660068111156150b657fe5b14156150f9576040805190810160405280600481526020017f536f6c6400000000000000000000000000000000000000000000000000000000815250985061523e565b6004600681111561510657fe5b8160030160009054906101000a900460ff16600681111561512357fe5b1415615166576040805190810160405280600781526020017f5368697070656400000000000000000000000000000000000000000000000000815250985061523d565b6005600681111561517357fe5b8160030160009054906101000a900460ff16600681111561519057fe5b14156151d3576040805190810160405280600881526020017f5265636569766564000000000000000000000000000000000000000000000000815250985061523c565b6006808111156151df57fe5b8160030160009054906101000a900460ff1660068111156151fc57fe5b141561523b576040805190810160405280600981526020017f507572636861736564000000000000000000000000000000000000000000000081525098505b5b5b5b5b5b5b8060030160019054906101000a900473ffffffffffffffffffffffffffffffffffffffff1697508060040160009054906101000a900473ffffffffffffffffffffffffffffffffffffffff1696508060050160009054906101000a900473ffffffffffffffffffffffffffffffffffffffff1695508060060160009054906101000a900473ffffffffffffffffffffffffffffffffffffffff169450806007015493508060080154925080600a01549150509193959799509193959799565b61530933617580565b565b615314336175da565b565b61531f336138ec565b1515615393576040517f08c379a00000000000000000000000000000000000000000000000000000000081526004018080602001828103825260128152602001807f4e6f742041204469737472696275746f7221000000000000000000000000000081525060200191505060405180910390fd5b600760009054906101000a900460ff161515156153af57600080fd5b6153b881612b69565b15156153c357600080fd5b6153cb617ce4565b600c6000600d600086815260200190815260200160002060008154811015156153f057fe5b9060005260206000200154815260200190815260200160002061016060405190810160405290816000820154815260200160018201548152602001600282015481526020016003820160009054906101000a900460ff16600681111561545257fe5b600681111561545d57fe5b81526020016003820160019054906101000a900473ffffffffffffffffffffffffffffffffffffffff1673ffffffffffffffffffffffffffffffffffffffff1673ffffffffffffffffffffffffffffffffffffffff1681526020016004820160009054906101000a900473ffffffffffffffffffffffffffffffffffffffff1673ffffffffffffffffffffffffffffffffffffffff1673ffffffffffffffffffffffffffffffffffffffff1681526020016005820160009054906101000a900473ffffffffffffffffffffffffffffffffffffffff1673ffffffffffffffffffffffffffffffffffffffff1673ffffffffffffffffffffffffffffffffffffffff1681526020016006820160009054906101000a900473ffffffffffffffffffffffffffffffffffffffff1673ffffffffffffffffffffffffffffffffffffffff1673ffffffffffffffffffffffffffffffffffffffff1681526020016007820154815260200160088201548152602001600a820154815250509050600081600001519050600082610100015190506000600d60008781526020019081526020016000208054905090506000818302905060008560800151905081341015151561568f576040517f08c379a000000000000000000000000000000000000000000000000000000000815260040180806020018281038252600b8152602001807f4e6f7420456e6f7567682100000000000000000000000000000000000000000081525060200191505060405180910390fd5b600082340390506000811415156156e8573373ffffffffffffffffffffffffffffffffffffffff166108fc829081150290604051600060405180830381858888f193505050501580156156e6573d6000803e3d6000fd5b505b6156f28989617634565b6009600087815260200190815260200160002060010160009054906101000a900473ffffffffffffffffffffffffffffffffffffffff1673ffffffffffffffffffffffffffffffffffffffff168273ffffffffffffffffffffffffffffffffffffffff1614156157a8578173ffffffffffffffffffffffffffffffffffffffff166108fc849081150290604051600060405180830381858888f193505050501580156157a2573d6000803e3d6000fd5b506158b9565b60006157d283600960008a8152602001908152602001600020600b0161609890919063ffffffff16565b9050600060648583028115156157e457fe5b0490506000600960008a8152602001908152602001600020600b0160000160009054906101000a900473ffffffffffffffffffffffffffffffffffffffff1690508473ffffffffffffffffffffffffffffffffffffffff166108fc839081150290604051600060405180830381858888f1935050505015801561586b573d6000803e3d6000fd5b508073ffffffffffffffffffffffffffffffffffffffff166108fc8388039081150290604051600060405180830381858888f193505050501580156158b4573d6000803e3d6000fd5b505050505b505050505050505050565b6000806060806060600080606060008060006008548c11151515615950576040517f08c379a000000000000000000000000000000000000000000000000000000000815260040180806020018281038252601b8152602001807f476976656e2055445043204e6f7420437265617465642059657421000000000081525060200191505060405180910390fd5b600960008d815260200190815260200160002060010160009054906101000a900473ffffffffffffffffffffffffffffffffffffffff169a50600960008d815260200190815260200160002060020160009054906101000a900473ffffffffffffffffffffffffffffffffffffffff169950600960008d81526020019081526020016000206003018054600181600116156101000203166002900480601f016020809104026020016040519081016040528092919081815260200182805460018160011615610100020316600290048015615a6c5780601f10615a4157610100808354040283529160200191615a6c565b820191906000526020600020905b815481529060010190602001808311615a4f57829003601f168201915b50505050509850600960008d81526020019081526020016000206005016000018054600181600116156101000203166002900480601f016020809104026020016040519081016040528092919081815260200182805460018160011615610100020316600290048015615b205780601f10615af557610100808354040283529160200191615b20565b820191906000526020600020905b815481529060010190602001808311615b0357829003601f168201915b5050505050975060006003811115615b3457fe5b600960008e815260200190815260200160002060040160009054906101000a900460ff166003811115615b6357fe5b1415615ba6576040805190810160405280600781526020017f43726561746564000000000000000000000000000000000000000000000000008152509650615da0565b60016003811115615bb357fe5b600960008e815260200190815260200160002060040160009054906101000a900460ff166003811115615be257fe5b1415615c25576040805190810160405280600681526020017f54657374656400000000000000000000000000000000000000000000000000008152509650615d9f565b60026003811115615c3257fe5b600960008e815260200190815260200160002060040160009054906101000a900460ff166003811115615c6157fe5b1415615ca4576040805190810160405280600881526020017f417070726f7665640000000000000000000000000000000000000000000000008152509650615d9e565b600380811115615cb057fe5b600960008e815260200190815260200160002060040160009054906101000a900460ff166003811115615cdf57fe5b1415615d22576040805190810160405280600781526020017f466f7253616c65000000000000000000000000000000000000000000000000008152509650615d9d565b600380811115615d2e57fe5b600960008e815260200190815260200160002060040160009054906101000a900460ff166003811115615d5d57fe5b1415615d9c576040805190810160405280600781526020017f466f7253616c650000000000000000000000000000000000000000000000000081525096505b5b5b5b5b615dbe600960008e8152602001908152602001600020600b01617889565b9350600960008d8152602001908152602001600020600b016001015492506000600960008e81526020019081526020016000206008015414159550600960008d8152602001908152602001600020600801549450600960008d8152602001908152602001600020600901549150615e49600960008e8152602001908152602001600020600b016179d7565b905091939597999b90929496989a50565b60008073ffffffffffffffffffffffffffffffffffffffff168273ffffffffffffffffffffffffffffffffffffffff1614151515615e9757600080fd5b8260050160008373ffffffffffffffffffffffffffffffffffffffff1673ffffffffffffffffffffffffffffffffffffffff16815260200190815260200160002060009054906101000a900460ff16905092915050565b615f02816000617a7e90919063ffffffff16565b8073ffffffffffffffffffffffffffffffffffffffff167fe3f5ed5f263f1f01764a96edfc7d025f511ec5f7d180e8816908b78bcf74f09860405160405180910390a250565b8060016003811115615f5657fe5b6009600083815260200190815260200160002060040160009054906101000a900460ff166003811115615f8557fe5b141515615f9157600080fd5b60026009600084815260200190815260200160002060040160006101000a81548160ff02191690836003811115615fc457fe5b02179055507f3ad93af63cb7967b23e4fb500b7d7d28b07516325dcf341f88bebf959d82c1cb826040518082815260200191505060405180910390a15050565b60008073ffffffffffffffffffffffffffffffffffffffff168273ffffffffffffffffffffffffffffffffffffffff161415151561604157600080fd5b8260000160008373ffffffffffffffffffffffffffffffffffffffff1673ffffffffffffffffffffffffffffffffffffffff16815260200190815260200160002060009054906101000a900460ff16905092915050565b60008073ffffffffffffffffffffffffffffffffffffffff168273ffffffffffffffffffffffffffffffffffffffff16141515156160d557600080fd5b6160df8383615e5a565b15156160ea57600080fd5b60008360060160008473ffffffffffffffffffffffffffffffffffffffff1673ffffffffffffffffffffffffffffffffffffffff1681526020019081526020016000205490508360040160008281526020019081526020016000206002015491505092915050565b60086000815480929190600101919050555061616c617da2565b60085481600001818152505033816020019073ffffffffffffffffffffffffffffffffffffffff16908173ffffffffffffffffffffffffffffffffffffffff168152505033816040019073ffffffffffffffffffffffffffffffffffffffff16908173ffffffffffffffffffffffffffffffffffffffff168152505084816060018190525060008160800190600381111561620357fe5b9081600381111561621057fe5b81525050606060405190810160405280858152602001848152602001838152508160a0018190525060008160c001818152505060018161010001516060018181525050806009600060085481526020019081526020016000206000820151816000015560208201518160010160006101000a81548173ffffffffffffffffffffffffffffffffffffffff021916908373ffffffffffffffffffffffffffffffffffffffff16021790555060408201518160020160006101000a81548173ffffffffffffffffffffffffffffffffffffffff021916908373ffffffffffffffffffffffffffffffffffffffff160217905550606082015181600301908051906020019061631d929190617c25565b5060808201518160040160006101000a81548160ff0219169083600381111561634257fe5b021790555060a082015181600501600082015181600001908051906020019061636c929190617c25565b506020820151816001019080519060200190616389929190617c25565b5060408201518160020190805190602001906163a6929190617c25565b50505060c0820151816008015560e0820151816009015561010082015181600b0160008201518160000160006101000a81548173ffffffffffffffffffffffffffffffffffffffff021916908373ffffffffffffffffffffffffffffffffffffffff1602179055506020820151816001015560408201518160020160006101000a81548160ff0219169083600281111561643c57fe5b02179055506060820151816003015550509050507f4bea4fa538d41a7b7fb10bb3405cf3e168122aa3438625bbf0ac6dde64fbdb0c6008546040518082815260200191505060405180910390a15050505050565b600854841115151561650a576040517f08c379a000000000000000000000000000000000000000000000000000000000815260040180806020018281038252601b8152602001807f476976656e2055445043204e6f7420437265617465642059657421000000000081525060200191505060405180910390fd5b616512617bdd565b60a0604051908101604052803373ffffffffffffffffffffffffffffffffffffffff16815260200142815260200184151581526020018581526020018381525090508060096000878152602001908152602001600020600a0160006009600089815260200190815260200160002060090154815260200190815260200160002060008201518160000160006101000a81548173ffffffffffffffffffffffffffffffffffffffff021916908373ffffffffffffffffffffffffffffffffffffffff1602179055506020820151816001015560408201518160020160006101000a81548160ff021916908315150217905550606082015181600301908051906020019061661f929190617c25565b50608082015181600401908051906020019061663c929190617c25565b5090505060096000868152602001908152602001600020600901600081548092919060010191905055506000600381111561667357fe5b6009600087815260200190815260200160002060040160009054906101000a900460ff1660038111156166a257fe5b14156166e15760016009600087815260200190815260200160002060040160006101000a81548160ff021916908360038111156166db57fe5b02179055505b7f81d5f9bced9b9d1723f40796f43346ab2f3d2147b09cc27e573f3eb3b5875864856040518082815260200191505060405180910390a15050505050565b616733816001617b2d90919063ffffffff16565b8073ffffffffffffffffffffffffffffffffffffffff167f561138658ca49a8540dc70dcfe64c9026c1c5b9344642242dd6562970f9c127860405160405180910390a250565b6000600b600081546001019190508190559050616794617ce4565b83816000018181525050818160400181815250506000816060019060068111156167ba57fe5b908160068111156167c757fe5b8152505033816080019073ffffffffffffffffffffffffffffffffffffffff16908173ffffffffffffffffffffffffffffffffffffffff1681525050338160a0019073ffffffffffffffffffffffffffffffffffffffff16908173ffffffffffffffffffffffffffffffffffffffff168152505060008161014001818152505060008090505b83811015616a58576000600a6000815460010191905081905590508083602001818152505082600c600083815260200190815260200160002060008201518160000155602082015181600101556040820151816002015560608201518160030160006101000a81548160ff021916908360068111156168c857fe5b021790555060808201518160030160016101000a81548173ffffffffffffffffffffffffffffffffffffffff021916908373ffffffffffffffffffffffffffffffffffffffff16021790555060a08201518160040160006101000a81548173ffffffffffffffffffffffffffffffffffffffff021916908373ffffffffffffffffffffffffffffffffffffffff16021790555060c08201518160050160006101000a81548173ffffffffffffffffffffffffffffffffffffffff021916908373ffffffffffffffffffffffffffffffffffffffff16021790555060e08201518160060160006101000a81548173ffffffffffffffffffffffffffffffffffffffff021916908373ffffffffffffffffffffffffffffffffffffffff1602179055506101008201518160070155610120820151816008015561014082015181600a0155905050600d600085815260200190815260200160002081908060018154018082558091505090600182039060005260206000200160009091929091909150555050808060010191505061684d565b507fd29d8a68ca7c8c74be5579719d445aabfe230ed6e6a83aff475a663500eb7609826040518082815260200191505060405180910390a150505050565b616aaa816003617a7e90919063ffffffff16565b8073ffffffffffffffffffffffffffffffffffffffff167f126174f6cf49c81cdb4a9214c6b8f037bef55b4ec31e4fc776cea2a1c8a88d5960405160405180910390a250565b616b04816005617a7e90919063ffffffff16565b8073ffffffffffffffffffffffffffffffffffffffff167fdb7176e79cffef81cb01767dd0447a0b24bb72ca9778d4b245581086b2a7e6db60405160405180910390a250565b616b5e816006617a7e90919063ffffffff16565b8073ffffffffffffffffffffffffffffffffffffffff167fcd265ebaf09df2871cc7bd4133404a235ba12eff2041bb89d9c714a2621c7c7e60405160405180910390a250565b616bb8816006617b2d90919063ffffffff16565b8073ffffffffffffffffffffffffffffffffffffffff167f6719d08c1888103bea251a4ed56406bd0c3e69723c8a1686e017e7bbe159b6f860405160405180910390a250565b8060056006811115616c0c57fe5b600c600083815260200190815260200160002060030160009054906101000a900460ff166006811115616c3b57fe5b141515616c4757600080fd5b816000600c6000838152602001908152602001600020600a015414151515616c6e57600080fd5b6006600c600085815260200190815260200160002060030160006101000a81548160ff02191690836006811115616ca157fe5b021790555033600c600085815260200190815260200160002060030160016101000a81548173ffffffffffffffffffffffffffffffffffffffff021916908373ffffffffffffffffffffffffffffffffffffffff1602179055507f653d56639fee6b566a5c804764e9689de38645f0b733df89a36a1b7b42173dd8836040518082815260200191505060405180910390a1505050565b616d4b816004617a7e90919063ffffffff16565b8073ffffffffffffffffffffffffffffffffffffffff167fc8ecc453f78c13ccc7596603b61935f29b99dc15bb91b91647e1ccf2469ad00a60405160405180910390a250565b80600380811115616d9e57fe5b6009600083815260200190815260200160002060040160009054906101000a900460ff166003811115616dcd57fe5b141515616dd957600080fd5b8160096000828152602001908152602001600020600801543410151515616e68576040517f08c379a000000000000000000000000000000000000000000000000000000000815260040180806020018281038252600b8152602001807f4e6f7420456e6f7567682100000000000000000000000000000000000000000081525060200191505060405180910390fd5b60026009600085815260200190815260200160002060040160006101000a81548160ff02191690836003811115616e9b57fe5b0217905550336009600085815260200190815260200160002060010160006101000a81548173ffffffffffffffffffffffffffffffffffffffff021916908373ffffffffffffffffffffffffffffffffffffffff1602179055503360096000858152602001908152602001600020600b0160000160006101000a81548173ffffffffffffffffffffffffffffffffffffffff021916908373ffffffffffffffffffffffffffffffffffffffff1602179055507f761e3276be1dd60429a48581fa8d3df6c90c05fff554645023f8318bc29402b7836040518082815260200191505060405180910390a160006009600083815260200190815260200160002060080154905060008134039050600081141515616ff8573373ffffffffffffffffffffffffffffffffffffffff166108fc829081150290604051600060405180830381858888f19350505050158015616ff6573d6000803e3d6000fd5b505b5050505050565b816002600381111561700d57fe5b6009600083815260200190815260200160002060040160009054906101000a900460ff16600381111561703c57fe5b14151561704857600080fd5b826001600281111561705657fe5b60096000838152602001908152602001600020600b0160020160009054906101000a900460ff16600281111561708857fe5b14151561709457600080fd5b6170c13384600060096000898152602001908152602001600020600b016172c0909392919063ffffffff16565b7f74c5d412ef45f2e49816788001b6e27a174bb63e91ade58fd0631869b74a6ec5846040518082815260200191505060405180910390a150505050565b617112816001617a7e90919063ffffffff16565b8073ffffffffffffffffffffffffffffffffffffffff167f2fed5abf6a80d6dfe30b4895481b2fc5d7dce5f8f7b931832f4a2947d5040c7f60405160405180910390a250565b61716c816002617b2d90919063ffffffff16565b8073ffffffffffffffffffffffffffffffffffffffff167f97069a05372df648feb174cc125711b2c72a81450a1ab2769c8faf49917d7fd260405160405180910390a250565b6171c6816004617b2d90919063ffffffff16565b8073ffffffffffffffffffffffffffffffffffffffff167f2860b5ba44f983f8f363ee6eeb3c24cbca3096803fbdd5129b9e253f01cac07660405160405180910390a250565b617220816003617b2d90919063ffffffff16565b8073ffffffffffffffffffffffffffffffffffffffff167fddbf200aa634dc3fb81cfd68583dd1040d1c751d335e1d86b631bde3e977fea860405160405180910390a250565b61727a816000617b2d90919063ffffffff16565b8073ffffffffffffffffffffffffffffffffffffffff167f28b26e7a3d20aedbc5f8f2ebf7da671c0491723a2b78f47a097b0e46dee0714260405160405180910390a250565b600084600101549050600073ffffffffffffffffffffffffffffffffffffffff168473ffffffffffffffffffffffffffffffffffffffff161415151561730557600080fd5b61730f8585615e5a565b15151561731b57600080fd5b6000600281111561732857fe5b8560020160009054906101000a900460ff16600281111561734557fe5b14156173ad578460000160009054906101000a900473ffffffffffffffffffffffffffffffffffffffff1673ffffffffffffffffffffffffffffffffffffffff163373ffffffffffffffffffffffffffffffffffffffff161415156173a957600080fd5b8190505b6002808111156173b957fe5b8560020160009054906101000a900460ff1660028111156173d657fe5b14156173e2575061757a565b60018560050160008673ffffffffffffffffffffffffffffffffffffffff1673ffffffffffffffffffffffffffffffffffffffff16815260200190815260200160002060006101000a81548160ff021916908315150217905550617444617e32565b84816000019073ffffffffffffffffffffffffffffffffffffffff16908173ffffffffffffffffffffffffffffffffffffffff168152505083816020018190525081816040018181525050808660040160008860030154815260200190815260200160002060008201518160000160006101000a81548173ffffffffffffffffffffffffffffffffffffffff021916908373ffffffffffffffffffffffffffffffffffffffff160217905550602082015181600101908051906020019061750c929190617c25565b506040820151816002015590505085600301548660060160008773ffffffffffffffffffffffffffffffffffffffff1673ffffffffffffffffffffffffffffffffffffffff168152602001908152602001600020819055506001866003016000828254019250508190555050505b50505050565b617594816002617a7e90919063ffffffff16565b8073ffffffffffffffffffffffffffffffffffffffff167fe16181bbb8b138f88a23696ae25f2c63713913e3fc6922b234a08639bf53cbea60405160405180910390a250565b6175ee816005617b2d90919063ffffffff16565b8073ffffffffffffffffffffffffffffffffffffffff167f71ae26cad02663e3d92efd6ec56031a80d74a20c0ab4183faa8bf262261c9baa60405160405180910390a250565b816000600d6000838152602001908152602001600020600081548110151561765857fe5b906000526020600020015490506002600681111561767257fe5b600c600083815260200190815260200160002060030160009054906101000a900460ff1660068111156176a157fe5b1415156176ad57600080fd5b6000600d600086815260200190815260200160002080549050905060008090505b8181101561784a576000600d6000888152602001908152602001600020828154811015156176f857fe5b906000526020600020015490506003600c600083815260200190815260200160002060030160006101000a81548160ff0219169083600681111561773857fe5b021790555033600c600083815260200190815260200160002060030160016101000a81548173ffffffffffffffffffffffffffffffffffffffff021916908373ffffffffffffffffffffffffffffffffffffffff16021790555033600c600083815260200190815260200160002060050160006101000a81548173ffffffffffffffffffffffffffffffffffffffff021916908373ffffffffffffffffffffffffffffffffffffffff16021790555085600c600083815260200190815260200160002060060160006101000a81548173ffffffffffffffffffffffffffffffffffffffff021916908373ffffffffffffffffffffffffffffffffffffffff1602179055505080806001019150506176ce565b507f92f64ca637d023f354075a4be751b169c1a8a9ccb6d33cdd0cb3520543995727856040518082815260200191505060405180910390a15050505050565b60606001600281111561789857fe5b8260020160009054906101000a900460ff1660028111156178b557fe5b14156178f8576040805190810160405280600481526020017f4f70656e0000000000000000000000000000000000000000000000000000000081525090506179d2565b60028081111561790457fe5b8260020160009054906101000a900460ff16600281111561792157fe5b1415617964576040805190810160405280600581526020017f436c6f736500000000000000000000000000000000000000000000000000000081525090506179d2565b6000600281111561797157fe5b8260020160009054906101000a900460ff16600281111561798e57fe5b14156179d1576040805190810160405280600881526020017f526573747269637400000000000000000000000000000000000000000000000081525090506179d2565b5b919050565b6000806000905060008090505b8360030154811015617a7457600073ffffffffffffffffffffffffffffffffffffffff1684600401600083815260200190815260200160002060000160009054906101000a900473ffffffffffffffffffffffffffffffffffffffff1673ffffffffffffffffffffffffffffffffffffffff16141515617a675781806001019250505b80806001019150506179e4565b5080915050919050565b600073ffffffffffffffffffffffffffffffffffffffff168173ffffffffffffffffffffffffffffffffffffffff1614151515617aba57600080fd5b617ac48282616004565b1515617acf57600080fd5b60008260000160008373ffffffffffffffffffffffffffffffffffffffff1673ffffffffffffffffffffffffffffffffffffffff16815260200190815260200160002060006101000a81548160ff0219169083151502179055505050565b600073ffffffffffffffffffffffffffffffffffffffff168173ffffffffffffffffffffffffffffffffffffffff1614151515617b6957600080fd5b617b738282616004565b151515617b7f57600080fd5b60018260000160008373ffffffffffffffffffffffffffffffffffffffff1673ffffffffffffffffffffffffffffffffffffffff16815260200190815260200160002060006101000a81548160ff0219169083151502179055505050565b60a060405190810160405280600073ffffffffffffffffffffffffffffffffffffffff1681526020016000815260200160001515815260200160608152602001606081525090565b828054600181600116156101000203166002900490600052602060002090601f016020900481019282601f10617c6657805160ff1916838001178555617c94565b82800160010185558215617c94579182015b82811115617c93578251825591602001919060010190617c78565b5b509050617ca19190617e6a565b5090565b608060405190810160405280600081526020016000815260200160008152602001600073ffffffffffffffffffffffffffffffffffffffff1681525090565b6101606040519081016040528060008152602001600081526020016000815260200160006006811115617d1357fe5b8152602001600073ffffffffffffffffffffffffffffffffffffffff168152602001600073ffffffffffffffffffffffffffffffffffffffff168152602001600073ffffffffffffffffffffffffffffffffffffffff168152602001600073ffffffffffffffffffffffffffffffffffffffff1681526020016000815260200160008152602001600081525090565b6101c06040519081016040528060008152602001600073ffffffffffffffffffffffffffffffffffffffff168152602001600073ffffffffffffffffffffffffffffffffffffffff1681526020016060815260200160006003811115617e0457fe5b8152602001617e11617e8f565b81526020016000815260200160008152602001617e2c617eb1565b81525090565b606060405190810160405280600073ffffffffffffffffffffffffffffffffffffffff16815260200160608152602001600081525090565b617e8c91905b80821115617e88576000816000905550600101617e70565b5090565b90565b6060604051908101604052806060815260200160608152602001606081525090565b608060405190810160405280600073ffffffffffffffffffffffffffffffffffffffff1681526020016000815260200160006002811115617eee57fe5b815260200160008152509056fea165627a7a7230582037edb737df60722f2eda530da34954969c40a0614859de1162923a590b5e50ad0029",
  "source": "pragma solidity ^0.5.0;\n\n/// Import main chains contracts\nimport \"./Storage/Drug.sol\";\nimport \"./Storage/DrugDesign.sol\";\n\n/// Import Main Roles contract `Rolable.sol`\nimport \"../AccessControl/Rolable.sol\";\n\n/// Import Pausable contract from OpenZeppelin library\nimport \"openzeppelin-solidity/contracts/lifecycle/Pausable.sol\";\n\n\n/// @author Khalid F.Sh\n/// @title Supply Chain Contract\ncontract SupplyChain is Rolable, Pausable, DrugDesign, Drug {\n\n    constructor() public {\n\n    }\n\n    /// Function helps Designer to estaplish a new Drug Design\n    function designDrug(\n        string memory _designerName,\n        string memory _drugName,\n        string memory _description,\n        string memory _notes\n    )\n        public\n        onlyDesigner()\n        whenNotPaused()\n    {\n        super.designDrug(\n            _designerName,\n            _drugName,\n            _description,\n            _notes\n        );\n    }\n\n    // Add Test Case for Drug Design by regulator\n    function addTestCaseByRegulaor(\n        uint _udpc,\n        string memory _description,\n        bool _isPassed,\n        string memory _notes\n    )\n        public\n        onlyRegulator()\n    {\n        super.addTestCaseByRegulaor(\n            _udpc,\n            _description,\n            _isPassed,\n            _notes\n        );\n    }\n\n    // Function to approve drug by a regulator only\n    function approveDrug(uint _udpc)\n        public\n        onlyRegulator()\n        whenNotPaused()\n    {\n        super.approveDrug(_udpc);\n    }\n\n    /// Function to purchase a drug design\n    function purchaseDrugDesign(uint _udpc)\n        public\n        payable\n        onlyManufacturer()\n    {\n        super.purchaseDrugDesign(_udpc);\n    }\n\n    /// Function to build a manufacturer partner contract\n    function buildPartnerContract(uint _udpc, string memory _name)\n        public\n        onlyManufacturer()\n        whenNotPaused()\n    {\n        super.buildPartnerContract(_udpc, _name);\n    }\n\n    /// Function helps manufacturer to manufactur a new Drug Loud\n    function manufacturDrugsLoud(uint _udpc, uint quantity)\n        public\n        onlyManufacturer()\n        onlyManufacturPartnerOf(_udpc)\n    {\n        super.manufacturDrugsLoud(_udpc, quantity);\n    }\n\n    /// Function helps distributor to buy a Drug Loud\n    /// it can be quantity only order but i think its not important for now\n    function buyDrugsLoud(uint _slu, address _receiver)\n        public\n        payable\n        onlyDistributor()\n        whenNotPaused()\n    {\n        /// reciever most be reteiler\n        require(isRetailer(_receiver));\n        /// collect info about the whole proccess\n        DrugItem memory sampleUnit = dItems[stockLouds[_slu][0]];\n        uint _udpc = sampleUnit.udpc;\n        uint price = sampleUnit.price;\n        uint quantity = stockLouds[_slu].length;\n        uint totalPrice = price*quantity;\n        \n        ///colect shared worker addresses to payed them\n        address payable sallerId = address(sampleUnit.currentOwnerId);\n\n        require(msg.value >= totalPrice, \"Not Enough!\");\n        uint amountToReturn = msg.value - totalPrice;\n        if (amountToReturn != 0)\n            address(msg.sender).transfer(amountToReturn);\n\n        super.buyDrugsLoud(_slu, _receiver);\n        \n        if (sallerId == dDItems[_udpc].currentOwner){\n            sallerId.transfer(totalPrice);\n        }\n        else {\n            uint shareOfSallerPresntage = dDItems[_udpc].manufacturers.sharesOf(sallerId);\n            uint shareOfSaller = (shareOfSallerPresntage*totalPrice)/100;\n            address payable orignalSallerId = dDItems[_udpc].manufacturers.owner;\n            sallerId.transfer(shareOfSaller);\n            orignalSallerId.transfer(totalPrice - shareOfSaller);\n        }\n        \n    }\n\n    /// Function helps manufacturer to Pack a isManufactured Drug Loud\n    function purchaseDrug (uint _pku)\n        public\n        payable\n        onlyConsumer()\n        whenNotPaused()\n    {\n        uint price = dItems[_pku].price;\n        address payable sallerId = dItems[_pku].currentOwnerId;\n\n        address payable retailerId = address(uint160(dItems[_pku].retailerId));\n        uint retialerBounty = (price*5) /100;\n        uint developerBounty = (price*1) /100; \n\n        require(msg.value >= price, \"Not Enough!\");\n        uint amountToReturn = msg.value - price;\n        if (amountToReturn != 0)\n            address(msg.sender).transfer(amountToReturn);\n\n        super.purchaseDrug(_pku);\n\n        sallerId.transfer(price - (retialerBounty + developerBounty));\n        retailerId.transfer(retialerBounty);\n    }\n\n}\n",
  "sourcePath": "/home/rajat/Desktop/ethereum/drug-supply-chain/contracts/Base/SupplyChain.sol",
  "compiler": {
    "name": "solc",
    "version": "0.5.0+commit.1d4f565a.Emscripten.clang"
  },
  "schemaVersion": "3.0.23",
  "updatedAt": "2020-02-28T20:51:48.615Z",
  "devdoc": {
    "author": "Khalid F.Sh",
    "methods": {
      "addRegulator(address)": {
        "params": {
          "account": "address to be Added"
        }
      },
      "amIConsumer()": {
        "return": "boolean for caller address state in `_consumers` Role"
      },
      "amIDesigner()": {
        "return": "boolean for caller address state in `_designers` Role"
      },
      "amIDistributor()": {
        "return": "boolean for caller address state in `_distributors` Role"
      },
      "amIManufacturer()": {
        "return": "boolean for caller address state in `_manufacturers` Role"
      },
      "amIRegulator()": {
        "return": "boolean for caller address state in `_regulators` Role"
      },
      "amIRetailer()": {
        "return": "boolean for caller address state in `_retailers` Role"
      },
      "isConsumer(address)": {
        "params": {
          "account": "address to be checked"
        },
        "return": "boolean for this address state in `_consumers` Role"
      },
      "isDesigner(address)": {
        "params": {
          "account": "address to be checked"
        },
        "return": "boolean for this address state in `_designers` Role"
      },
      "isDistributor(address)": {
        "params": {
          "account": "address to be checked"
        },
        "return": "boolean for this address state in `_distributors` Role"
      },
      "isManufacturer(address)": {
        "params": {
          "account": "address to be checked"
        },
        "return": "boolean for this address state in `_manufacturers` Role"
      },
      "isRegulator(address)": {
        "params": {
          "account": "address to be checked"
        },
        "return": "boolean for this address state in `_regulators` Role"
      },
      "isRetailer(address)": {
        "params": {
          "account": "address to be checked"
        },
        "return": "boolean for this address state in `_retailers` Role"
      },
      "pause()": {
        "details": "called by the owner to pause, triggers stopped state"
      },
      "paused()": {
        "return": "true if the contract is paused, false otherwise."
      },
      "unpause()": {
        "details": "called by the owner to unpause, returns to normal state"
      },
      "whoAmI()": {
        "return": "array contining every role with its state as boolean"
      }
    },
    "title": "Supply Chain Contract"
  },
  "userdoc": {
    "methods": {
      "addDrugsLoud(uint256,uint256)": {
        "notice": "Function helps manufacturer to add Drug Loud for sale"
      },
      "addRegulator(address)": {
        "notice": "Function to add account to regulator role`onlyRegulator` modifier  assignd to sure that the whole role groub regulated"
      },
      "addTestCase(uint256,string,bool,string)": {
        "notice": "Add Test Case for Drug Design by currentOwner"
      },
      "amIConsumer()": {
        "notice": "Function to check caller `msg.sender` if he has consumer role"
      },
      "amIDesigner()": {
        "notice": "Function to check caller `msg.sender` if he has designer role"
      },
      "amIDistributor()": {
        "notice": "Function to check caller `msg.sender` if he has distributor role"
      },
      "amIManufacturer()": {
        "notice": "Function to check caller `msg.sender` if he has manufacturer role"
      },
      "amIRegulator()": {
        "notice": "Function to check caller `msg.sender` if he has regulator role"
      },
      "amIRetailer()": {
        "notice": "Function to check caller `msg.sender` if he has retailer role"
      },
      "assignMeAsConsumer()": {
        "notice": "Function to assign caller `msg.sender` to consumer role"
      },
      "assignMeAsDesigner()": {
        "notice": "Function to assign caller `msg.sender` to designer roledesigner allways should be a menufacturer, after checking isManufacturer add it if not"
      },
      "assignMeAsDistributor()": {
        "notice": "Function to assign caller `msg.sender` to distributor role"
      },
      "assignMeAsManufacturer()": {
        "notice": "Function to assign caller `msg.sender` to manufacturer role"
      },
      "assignMeAsRetailer()": {
        "notice": "Function to assign caller `msg.sender` to retailer role"
      },
      "buildPartnerContract(uint256,string)": {
        "notice": "Function to build a manufacturer partner contract"
      },
      "buildRestrictPartnerContract(uint256,address,string,uint256)": {
        "notice": "Function to build a manufacturer partner contract by the currentOwner when its restracted"
      },
      "buyDrugsLoud(uint256,address)": {
        "notice": "Function helps distributor to buy a Drug Loud it can be quantity only order but i think its not important for now"
      },
      "closeManufactPartnership(uint256)": {
        "notice": "Function to close manufacturer partnership"
      },
      "designDrug(string,string,string,string)": {
        "notice": "Function helps Designer to estaplish a new Drug Design"
      },
      "fetchDrugLoaudData(uint256)": {
        "notice": "public data featching functions"
      },
      "isConsumer(address)": {
        "notice": "Function to check even he has consumer role or notuses'Roles' library's internal function `has()` to check, refer to library for more detail"
      },
      "isDesigner(address)": {
        "notice": "Function to check even he has designer role or notuses'Roles' library's internal function `has()` to check, refer to library for more detail"
      },
      "isDistributor(address)": {
        "notice": "Function to check even he has distributor role or notuses'Roles' library's internal function `has()` to check, refer to library for more detail"
      },
      "isManufacturer(address)": {
        "notice": "Function to check even he has manufacturer role or notuses'Roles' library's internal function `has()` to check, refer to library for more detail"
      },
      "isRegulator(address)": {
        "notice": "Function to check even he has regulator role or notuses'Roles' library's internal function `has()` to check, refer to library for more detail"
      },
      "isRetailer(address)": {
        "notice": "Function to check even he has retailer role or notuses'Roles' library's internal function `has()` to check, refer to library for more detail"
      },
      "manufacturDrugsLoud(uint256,uint256)": {
        "notice": "Function helps manufacturer to manufactur a new Drug Loud"
      },
      "openManufactPartnership(uint256,uint256)": {
        "notice": "Function to open partnership for manufacturer"
      },
      "packDrugsLoud(uint256)": {
        "notice": "Function helps manufacturer to Pack a isManufactured Drug Loud"
      },
      "purchaseDrug(uint256)": {
        "notice": "Function helps manufacturer to Pack a isManufactured Drug Loud"
      },
      "purchaseDrugDesign(uint256)": {
        "notice": "Function to purchase a drug design"
      },
      "receiveDrugsLoud(uint256)": {
        "notice": "Function helps manufacturer to Pack a isManufactured Drug Loud"
      },
      "renounceMeFromConsumer()": {
        "notice": "Function to renounce caller `msg.sender` from consumer role"
      },
      "renounceMeFromDesigner()": {
        "notice": "Function to renounce caller `msg.sender` from designer role"
      },
      "renounceMeFromDistributor()": {
        "notice": "Function to renounce caller `msg.sender` from distributor role"
      },
      "renounceMeFromManufacturer()": {
        "notice": "Function to renounce caller `msg.sender` from manufacturer role"
      },
      "renounceMeFromRegulator()": {
        "notice": "Function to renounce caller `msg.sender` from regulator role"
      },
      "renounceMeFromRetailer()": {
        "notice": "Function to renounce caller `msg.sender` from retailer role"
      },
      "restrictManufactPartnership(uint256)": {
        "notice": "Function to open partnership for manufacturer"
      },
      "shipDrugsLoud(uint256)": {
        "notice": "Function helps manufacturer to ship a Drug Loud"
      },
      "upForSale(uint256,uint256)": {
        "notice": "Function to sale a drug design"
      },
      "updateDrugsLoudShippmentEnv(uint256,uint256,uint256)": {
        "notice": "Function helps manufacturer and distributor to update Drug Loud envuirment"
      },
      "updateDrugsLoudStockEnv(uint256,uint256,uint256)": {
        "notice": "Function helps manufacturer to Pack a isManufactured Drug Loud"
      },
      "whoAmI()": {
        "notice": "Function to check all roles for the caller"
      }
    }
  }
}